{"contracts/myArb.sol":{"MyArb":{"abi":[{"inputs":[],"stateMutability":"nonpayable","type":"constructor"},{"inputs":[{"internalType":"uint256","name":"amountIn","type":"uint256"},{"internalType":"uint256","name":"reserveIn","type":"uint256"},{"internalType":"uint256","name":"reserveOut","type":"uint256"}],"name":"getAmountOut","outputs":[{"internalType":"uint256","name":"amountOut","type":"uint256"}],"stateMutability":"pure","type":"function"},{"inputs":[],"name":"owner","outputs":[{"internalType":"address","name":"","type":"address"}],"stateMutability":"view","type":"function"},{"inputs":[{"components":[{"internalType":"address","name":"poolAddress","type":"address"},{"internalType":"uint256","name":"stepType","type":"uint256"},{"internalType":"address","name":"token0","type":"address"},{"internalType":"address","name":"token1","type":"address"}],"internalType":"struct MyArb.Step","name":"initStep","type":"tuple"},{"components":[{"internalType":"address","name":"poolAddress","type":"address"},{"internalType":"uint256","name":"stepType","type":"uint256"},{"internalType":"address","name":"token0","type":"address"},{"internalType":"address","name":"token1","type":"address"}],"internalType":"struct MyArb.Step[]","name":"steps","type":"tuple[]"},{"internalType":"uint256","name":"input","type":"uint256"},{"internalType":"uint256","name":"fees","type":"uint256"},{"internalType":"bytes","name":"endStepData","type":"bytes"}],"name":"startFlashLoan","outputs":[],"stateMutability":"nonpayable","type":"function"},{"inputs":[{"internalType":"address","name":"sender","type":"address"},{"internalType":"uint256","name":"amount0","type":"uint256"},{"internalType":"uint256","name":"amount1","type":"uint256"},{"internalType":"bytes","name":"data","type":"bytes"}],"name":"uniswapV2Call","outputs":[],"stateMutability":"nonpayable","type":"function"},{"inputs":[{"internalType":"int256","name":"amount0Delta","type":"int256"},{"internalType":"int256","name":"amount1Delta","type":"int256"},{"internalType":"bytes","name":"data","type":"bytes"}],"name":"uniswapV3SwapCallback","outputs":[],"stateMutability":"nonpayable","type":"function"},{"inputs":[],"name":"withdrawFunds","outputs":[],"stateMutability":"nonpayable","type":"function"},{"stateMutability":"payable","type":"receive"}],"evm":{"bytecode":{"linkReferences":{},"object":"6080806040523461002857600080546001600160a01b031916331790556116b8908161002e8239f35b600080fdfe6080604052600436101561001b575b361561001957600080fd5b005b6000803560e01c8063054d50d414610ce457806310d1e85c14610bc557806324600fc314610b4b5780638da5cb5b14610b24578063f3443c98146102395763fa461e3314610069575061000e565b34610236576060366003190112610236576004356001600160401b03602435604435828111610232576100a0903690600401610d25565b8192910160808382031261022e576100b783610d11565b936020956100c6878601610d11565b94604081013593841515850361022a57606082013593841161022a5788936100ee9201610e3e565b6001600160a01b039687949091906101ef575b5088821361018c575b50505050848113610119578480f35b839161013d918660405195868095819463a9059cbb60e01b83523360048401610f8a565b0393165af1801561018157610153575b80808480f35b8161017292903d1061017a575b61016a8183610e1b565b810190610f72565b50388061014d565b503d610160565b6040513d85823e3d90fd5b6101ae918960405195868095819463a9059cbb60e01b83523360048401610f8a565b0393165af180156101e4576101c7575b8481859261010a565b6101dd90853d871161017a5761016a8183610e1b565b50386101be565b6040513d88823e3d90fd5b61020481858061021b94518301019101610ea8565b8a84121561022157610215846110a9565b9061112e565b38610101565b610215876110a9565b8980fd5b8580fd5b8480fd5b80fd5b503461023657366003190161010081126105025760801361023657608435906001600160401b03808311610502573660238401121561050257826004013590808211610511573660248360071b860101116105115760e43590811161051157836102a884923690600401610d25565b914792602435956040518093826040830160208085015252602460608301910192885b818110610ac45750506102e7925003601f198101845283610e1b565b8490600187166109b957600460606001600160a01b03610305610fa5565b1660405192838092630240bc6b60e21b82525afa9081156109ae578790889261098b575b50969788976001600160701b039283169216908890600216156109775750906103549160a435610d75565b6001600160a01b03610364610fa5565b169061036e610fbb565b98610377610fd1565b604080516001600160a01b039c8d16602082015291909b169a81019a909a52608060608b01526103c48a6103ae60a0820189610fe7565b60a435608083015203601f1981018c528b610e1b565b823b15610973579161040999918980946040519c8d958694859363022c0d9f60e01b855260048501526024840152306044840152608060648401526084830190610fe7565b03925af180156101e45761095d575b8596509493945b600160c4351661054f575b506001600160a01b0392506104419150610fbb9050565b166040516370a0823160e01b8152306004820152602081602481855afa908115610181578391610515575b50813b15610511578291602483926040519485938492632e1a7d4d60e01b845260048401525af18015610506576104ee575b5080808060c43560801c8181156104e5575b4190f1156104d8576104ce9060c4356001600160801b031690610d52565b4711156102365780f35b50604051903d90823e3d90fd5b506108fc6104b0565b6104f790610dd7565b61050257818361049e565b5080fd5b6040513d84823e3d90fd5b8280fd5b9250506020823d602011610547575b8161053160209383610e1b565b81010312610542578391518561046c565b600080fd5b3d9150610524565b83608091810103126106c2576040519161056883610e00565b61057184610d11565b83526020840135602084015261058960408501610d11565b80604085015261059b60608601610d11565b80606086015283156108bd575b5050602083015160011661079457508151604051630240bc6b60e21b81526001600160a01b0392916060908290600490829087165afa9081156101e45786908792610761575b5086956001600160701b03928316929190911690869060200135600216156106f057509161062260209261064b9483610d75565b9484806040830151169151168860405180968195829463a9059cbb60e01b845260048401610f8a565b03925af180156106e5576106c6575b505b610664610fa5565b1691823b156106c2576106929284928360405180968195829463022c0d9f60e01b8452309160048501611104565b03925af18015610506576106ae575b50505b818380808061042a565b6106b790610dd7565b6105025781836106a1565b8380fd5b6106de9060203d60201161017a5761016a8183610e1b565b508661065a565b6040513d87823e3d90fd5b9495509161070461072d9360209383610d75565b9584806060830151169151168860405180968195829463a9059cbb60e01b845260048401610f8a565b03925af180156106e557610742575b5061065c565b61075a9060203d60201161017a5761016a8183610e1b565b508661073c565b9050610785915060603d60601161078d575b61077d8183610e1b565b8101906110ce565b5090896105ee565b503d610773565b9293506108219260409250906020850135600216156108a3576401000276a45b876001600160a01b036107c5610fa5565b16926107fa6107d2610fbb565b6107ec6107dd610fd1565b97895198899360208501611027565b03601f198101875286610e1b565b8551630251596160e31b81529687958694859360208c013560021615153060048701611070565b03925af1918215610898578491859361085c575b506020013560021615610852575061084c906110a9565b506106a4565b61084c91506110a9565b6002919350602092506108869060403d604011610891575b61087e8183610e1b565b81019061105a565b929092939150610835565b503d610874565b6040513d86823e3d90fd5b73fffd8963efd1fc6a506488495d951d5263988d256107b4565b91925060249160209190868301356002161561094d57506001600160a01b03165b6040516370a0823160e01b815230600482015292839182906001600160a01b03165afa9081156106e5578591610918575b509087806105a8565b9450506020843d602011610945575b8161093460209383610e1b565b81010312610542578593518761090f565b3d9150610927565b6001600160a01b031690506108de565b9394909561096a90610dd7565b93928590610418565b8880fd5b98506109859160a435610d75565b96610354565b90506109a6915060603d60601161078d5761077d8183610e1b565b509089610329565b6040513d89823e3d90fd5b9495939486949091506002811615610aa557610a4360406401000276a45b6001600160a01b036109e7610fa5565b166109f0610fbb565b91610a1d6109fc610fd1565b93610a0f8a875196879360208501611027565b03601f198101855284610e1b565b898451809681958294630251596160e31b845260a43560028c1615153060048701611070565b03925af19182156101e45786918793610a7f575b5060021615610a705750610a6a906110a9565b9061041f565b610a7a91506110a9565b610a6a565b610a9d9193506002925060403d6040116108915761087e8183610e1b565b929091610a57565b610a43604073fffd8963efd1fc6a506488495d951d5263988d256109d7565b9092509060019060809081906001600160a01b0380610ae289610d11565b1682526020880135602083015280610afc60408a01610d11565b166040830152610b0e60608901610d11565b16606082015201940191019185929391936102cb565b5034610236578060031936011261023657546040516001600160a01b039091168152602090f35b503461023657806003193601126102365780546001600160a01b031633819003610b9c5781808080934790828215610b93575bf115610b875780f35b604051903d90823e3d90fd5b506108fc610b7e565b60405162461bcd60e51b81526020600482015260016024820152606f60f81b6044820152606490fd5b5034610236576080366003190112610236576001600160a01b0360043581811603610502576001600160401b039060243560443560643584811161022e57610c11903690600401610d25565b8192910194608083870312610ce057610c2983610d11565b93602096610c38888601610d11565b92604086013590811161022a576060610c59610c7b93610c6b938901610e3e565b96013595898082518301019101610ea8565b821580159390610cd8579061112e565b610c89575b50610119578480f35b85604051809263a9059cbb60e01b8252818a8982610cab8a3360048401610f8a565b0393165af180156109ae5715610c8057610cd190863d881161017a5761016a8183610e1b565b5038610c80565b50849061112e565b8680fd5b5034610236576060366003190112610236576020610d09604435602435600435610d75565b604051908152f35b35906001600160a01b038216820361054257565b9181601f84011215610542578235916001600160401b038311610542576020838186019501011161054257565b91908201809211610d5f57565b634e487b7160e01b600052601160045260246000fd5b6103e580820291808304821481151715610d5f57840202928184041481151715610d5f576103e891828102928184041490151715610d5f57610db691610d52565b908115610dc1570490565b634e487b7160e01b600052601260045260246000fd5b6001600160401b038111610dea57604052565b634e487b7160e01b600052604160045260246000fd5b608081019081106001600160401b03821117610dea57604052565b601f909101601f19168101906001600160401b03821190821017610dea57604052565b81601f82011215610542578035906001600160401b038211610dea5760405192610e72601f8401601f191660200185610e1b565b8284526020838301011161054257816000926020809301838601378301015290565b51906001600160a01b038216820361054257565b602080828403126105425781516001600160401b039283821161054257019083601f83011215610542578151928311610dea5760409260405194610ef1838360051b0187610e1b565b818652828087019260071b85010193818511610542578301915b848310610f1b5750505050505090565b60808383031261054257836080918751610f3481610e00565b610f3d86610e94565b81528286015183820152610f52898701610e94565b898201526060610f63818801610e94565b90820152815201920191610f0b565b90816020910312610542575180151581036105425790565b6001600160a01b039091168152602081019190915260400190565b6004356001600160a01b03811681036105425790565b6044356001600160a01b03811681036105425790565b6064356001600160a01b03811681036105425790565b919082519283825260005b848110611013575050826000602080949584010152601f8019910116010190565b602081830181015184830182015201610ff2565b6001600160a01b039182168152911660208201526001604082015260806060820181905261105792910190610fe7565b90565b9190826040910312610542576020825192015190565b6001600160a01b039182168152911515602083015260408201929092529116606082015260a06080820181905261105792910190610fe7565b600160ff1b8114610d5f5760000390565b51906001600160701b038216820361054257565b90816060910312610542576110e2816110ba565b9160406110f1602084016110ba565b92015163ffffffff811681036105425790565b9160a0939183526020830152600180841b0316604082015260806060820152600060808201520190565b919060005b835181101561167c576020808260051b86010151928184015190600160028316151592161560001461144357845160408051630240bc6b60e21b81529094600494926001600160a01b0392606091829082908990829088165afa90811561130e576000908192611422575b5060018060701b038091169116916000968b88918098600014611319575050505084156112a1575b6111d56111fd92849287610d75565b9484898c015116858c511660008a8c519687958694859363a9059cbb60e01b85528401610f8a565b03925af1801561129657611278575b50505b600096511691823b15610ce0579184939187809461124297519788958694859363022c0d9f60e01b855230928501611104565b03925af190811561126f57509060019291611260575b505b01611133565b61126990610dd7565b38611258565b513d85823e3d90fd5b8161128e92903d1061017a5761016a8183610e1b565b50388061120c565b87513d6000823e3d90fd5b935060248284898c0151168951928380926370a0823160e01b8252308c8301525afa90811561130e579083916000916112de575b509490506111c6565b9182813d8311611307575b6112f38183610e1b565b8101031261023657505182906111fd6112d5565b503d6112e9565b88513d6000823e3d90fd5b98838795969289949a959b15611395575b5050506113619461133b9184610d75565b978c015116858c511660008a8c519687958694859363a9059cbb60e01b85528401610f8a565b03925af1801561129657611377575b505061120f565b8161138d92903d1061017a5761016a8183610e1b565b503880611370565b6024949295509592950151168b51928380926370a0823160e01b82528d30908301525afa9182156114175791869183879594926113dc575b5090929050611361898e61132a565b9250848194969592503d8311611410575b6113f78183610e1b565b810103126102365750519091839185908461133b6113cd565b503d6113ed565b8a51903d90823e3d90fd5b905061143b9150823d841161078d5761077d8183610e1b565b50903861119e565b93959493908115611574575b8015611559576401000276a4925b60018060a01b03928389511691600060409a868c8201511696606080920151168c519760a0948901528c880152860152608080860152600081860152845260c0948585019285841060018060401b03851117610dea578360008c94886114db818597868a52630251596160e31b875260bf19948c3060c48501611070565b0301925af193841561130e576001959697986000948596611521575b50505050600014611512575061150c906110a9565b9161125a565b61151c91506110a9565b61150c565b908092939496506115479550913d10611551575b61153f8285610e1b565b01019061105a565b91388080806114f7565b3d9150611535565b73fffd8963efd1fc6a506488495d951d5263988d259261145d565b9050600081156115fb575060408681015181516370a0823160e01b8152306004820152908490829060249082906001600160a01b03165afa9182156115f157506000916115c4575b505b9061144f565b908382813d83116115ea575b6115da8183610e1b565b81010312610236575051386115bc565b503d6115d0565b513d6000823e3d90fd5b6060870151604080516370a0823160e01b8152306004820152909290918590839060249082906001600160a01b03165afa92831561167257508092611642575b50506115be565b9091508382813d831161166b575b61165a8183610e1b565b81010312610236575051388061163b565b503d611650565b51903d90823e3d90fd5b5050905056fea2646970667358221220863f7f50169d71341ccfbf12f3ddbf13fbff0965fa9b2394c0990745f7cb131764736f6c63430008180033","opcodes":"PUSH1 0x80 DUP1 PUSH1 0x40 MSTORE CALLVALUE PUSH2 0x28 JUMPI PUSH1 0x0 DUP1 SLOAD PUSH1 0x1 PUSH1 0x1 PUSH1 0xA0 SHL SUB NOT AND CALLER OR SWAP1 SSTORE PUSH2 0x16B8 SWAP1 DUP2 PUSH2 0x2E DUP3 CODECOPY RETURN JUMPDEST PUSH1 0x0 DUP1 REVERT INVALID PUSH1 0x80 PUSH1 0x40 MSTORE PUSH1 0x4 CALLDATASIZE LT ISZERO PUSH2 0x1B JUMPI JUMPDEST CALLDATASIZE ISZERO PUSH2 0x19 JUMPI PUSH1 0x0 DUP1 REVERT JUMPDEST STOP JUMPDEST PUSH1 0x0 DUP1 CALLDATALOAD PUSH1 0xE0 SHR DUP1 PUSH4 0x54D50D4 EQ PUSH2 0xCE4 JUMPI DUP1 PUSH4 0x10D1E85C EQ PUSH2 0xBC5 JUMPI DUP1 PUSH4 0x24600FC3 EQ PUSH2 0xB4B JUMPI DUP1 PUSH4 0x8DA5CB5B EQ PUSH2 0xB24 JUMPI DUP1 PUSH4 0xF3443C98 EQ PUSH2 0x239 JUMPI PUSH4 0xFA461E33 EQ PUSH2 0x69 JUMPI POP PUSH2 0xE JUMP JUMPDEST CALLVALUE PUSH2 0x236 JUMPI PUSH1 0x60 CALLDATASIZE PUSH1 0x3 NOT ADD SLT PUSH2 0x236 JUMPI PUSH1 0x4 CALLDATALOAD PUSH1 0x1 PUSH1 0x1 PUSH1 0x40 SHL SUB PUSH1 0x24 CALLDATALOAD PUSH1 0x44 CALLDATALOAD DUP3 DUP2 GT PUSH2 0x232 JUMPI PUSH2 0xA0 SWAP1 CALLDATASIZE SWAP1 PUSH1 0x4 ADD PUSH2 0xD25 JUMP JUMPDEST DUP2 SWAP3 SWAP2 ADD PUSH1 0x80 DUP4 DUP3 SUB SLT PUSH2 0x22E JUMPI PUSH2 0xB7 DUP4 PUSH2 0xD11 JUMP JUMPDEST SWAP4 PUSH1 0x20 SWAP6 PUSH2 0xC6 DUP8 DUP7 ADD PUSH2 0xD11 JUMP JUMPDEST SWAP5 PUSH1 0x40 DUP2 ADD CALLDATALOAD SWAP4 DUP5 ISZERO ISZERO DUP6 SUB PUSH2 0x22A JUMPI PUSH1 0x60 DUP3 ADD CALLDATALOAD SWAP4 DUP5 GT PUSH2 0x22A JUMPI DUP9 SWAP4 PUSH2 0xEE SWAP3 ADD PUSH2 0xE3E JUMP JUMPDEST PUSH1 0x1 PUSH1 0x1 PUSH1 0xA0 SHL SUB SWAP7 DUP8 SWAP5 SWAP1 SWAP2 SWAP1 PUSH2 0x1EF JUMPI JUMPDEST POP DUP9 DUP3 SGT PUSH2 0x18C JUMPI JUMPDEST POP POP POP POP DUP5 DUP2 SGT PUSH2 0x119 JUMPI DUP5 DUP1 RETURN JUMPDEST DUP4 SWAP2 PUSH2 0x13D SWAP2 DUP7 PUSH1 0x40 MLOAD SWAP6 DUP7 DUP1 SWAP6 DUP2 SWAP5 PUSH4 0xA9059CBB PUSH1 0xE0 SHL DUP4 MSTORE CALLER PUSH1 0x4 DUP5 ADD PUSH2 0xF8A JUMP JUMPDEST SUB SWAP4 AND GAS CALL DUP1 ISZERO PUSH2 0x181 JUMPI PUSH2 0x153 JUMPI JUMPDEST DUP1 DUP1 DUP5 DUP1 RETURN JUMPDEST DUP2 PUSH2 0x172 SWAP3 SWAP1 RETURNDATASIZE LT PUSH2 0x17A JUMPI JUMPDEST PUSH2 0x16A DUP2 DUP4 PUSH2 0xE1B JUMP JUMPDEST DUP2 ADD SWAP1 PUSH2 0xF72 JUMP JUMPDEST POP CODESIZE DUP1 PUSH2 0x14D JUMP JUMPDEST POP RETURNDATASIZE PUSH2 0x160 JUMP JUMPDEST PUSH1 0x40 MLOAD RETURNDATASIZE DUP6 DUP3 RETURNDATACOPY RETURNDATASIZE SWAP1 REVERT JUMPDEST PUSH2 0x1AE SWAP2 DUP10 PUSH1 0x40 MLOAD SWAP6 DUP7 DUP1 SWAP6 DUP2 SWAP5 PUSH4 0xA9059CBB PUSH1 0xE0 SHL DUP4 MSTORE CALLER PUSH1 0x4 DUP5 ADD PUSH2 0xF8A JUMP JUMPDEST SUB SWAP4 AND GAS CALL DUP1 ISZERO PUSH2 0x1E4 JUMPI PUSH2 0x1C7 JUMPI JUMPDEST DUP5 DUP2 DUP6 SWAP3 PUSH2 0x10A JUMP JUMPDEST PUSH2 0x1DD SWAP1 DUP6 RETURNDATASIZE DUP8 GT PUSH2 0x17A JUMPI PUSH2 0x16A DUP2 DUP4 PUSH2 0xE1B JUMP JUMPDEST POP CODESIZE PUSH2 0x1BE JUMP JUMPDEST PUSH1 0x40 MLOAD RETURNDATASIZE DUP9 DUP3 RETURNDATACOPY RETURNDATASIZE SWAP1 REVERT JUMPDEST PUSH2 0x204 DUP2 DUP6 DUP1 PUSH2 0x21B SWAP5 MLOAD DUP4 ADD ADD SWAP2 ADD PUSH2 0xEA8 JUMP JUMPDEST DUP11 DUP5 SLT ISZERO PUSH2 0x221 JUMPI PUSH2 0x215 DUP5 PUSH2 0x10A9 JUMP JUMPDEST SWAP1 PUSH2 0x112E JUMP JUMPDEST CODESIZE PUSH2 0x101 JUMP JUMPDEST PUSH2 0x215 DUP8 PUSH2 0x10A9 JUMP JUMPDEST DUP10 DUP1 REVERT JUMPDEST DUP6 DUP1 REVERT JUMPDEST DUP5 DUP1 REVERT JUMPDEST DUP1 REVERT JUMPDEST POP CALLVALUE PUSH2 0x236 JUMPI CALLDATASIZE PUSH1 0x3 NOT ADD PUSH2 0x100 DUP2 SLT PUSH2 0x502 JUMPI PUSH1 0x80 SGT PUSH2 0x236 JUMPI PUSH1 0x84 CALLDATALOAD SWAP1 PUSH1 0x1 PUSH1 0x1 PUSH1 0x40 SHL SUB DUP1 DUP4 GT PUSH2 0x502 JUMPI CALLDATASIZE PUSH1 0x23 DUP5 ADD SLT ISZERO PUSH2 0x502 JUMPI DUP3 PUSH1 0x4 ADD CALLDATALOAD SWAP1 DUP1 DUP3 GT PUSH2 0x511 JUMPI CALLDATASIZE PUSH1 0x24 DUP4 PUSH1 0x7 SHL DUP7 ADD ADD GT PUSH2 0x511 JUMPI PUSH1 0xE4 CALLDATALOAD SWAP1 DUP2 GT PUSH2 0x511 JUMPI DUP4 PUSH2 0x2A8 DUP5 SWAP3 CALLDATASIZE SWAP1 PUSH1 0x4 ADD PUSH2 0xD25 JUMP JUMPDEST SWAP2 SELFBALANCE SWAP3 PUSH1 0x24 CALLDATALOAD SWAP6 PUSH1 0x40 MLOAD DUP1 SWAP4 DUP3 PUSH1 0x40 DUP4 ADD PUSH1 0x20 DUP1 DUP6 ADD MSTORE MSTORE PUSH1 0x24 PUSH1 0x60 DUP4 ADD SWAP2 ADD SWAP3 DUP9 JUMPDEST DUP2 DUP2 LT PUSH2 0xAC4 JUMPI POP POP PUSH2 0x2E7 SWAP3 POP SUB PUSH1 0x1F NOT DUP2 ADD DUP5 MSTORE DUP4 PUSH2 0xE1B JUMP JUMPDEST DUP5 SWAP1 PUSH1 0x1 DUP8 AND PUSH2 0x9B9 JUMPI PUSH1 0x4 PUSH1 0x60 PUSH1 0x1 PUSH1 0x1 PUSH1 0xA0 SHL SUB PUSH2 0x305 PUSH2 0xFA5 JUMP JUMPDEST AND PUSH1 0x40 MLOAD SWAP3 DUP4 DUP1 SWAP3 PUSH4 0x240BC6B PUSH1 0xE2 SHL DUP3 MSTORE GAS STATICCALL SWAP1 DUP2 ISZERO PUSH2 0x9AE JUMPI DUP8 SWAP1 DUP9 SWAP3 PUSH2 0x98B JUMPI JUMPDEST POP SWAP7 SWAP8 DUP9 SWAP8 PUSH1 0x1 PUSH1 0x1 PUSH1 0x70 SHL SUB SWAP3 DUP4 AND SWAP3 AND SWAP1 DUP9 SWAP1 PUSH1 0x2 AND ISZERO PUSH2 0x977 JUMPI POP SWAP1 PUSH2 0x354 SWAP2 PUSH1 0xA4 CALLDATALOAD PUSH2 0xD75 JUMP JUMPDEST PUSH1 0x1 PUSH1 0x1 PUSH1 0xA0 SHL SUB PUSH2 0x364 PUSH2 0xFA5 JUMP JUMPDEST AND SWAP1 PUSH2 0x36E PUSH2 0xFBB JUMP JUMPDEST SWAP9 PUSH2 0x377 PUSH2 0xFD1 JUMP JUMPDEST PUSH1 0x40 DUP1 MLOAD PUSH1 0x1 PUSH1 0x1 PUSH1 0xA0 SHL SUB SWAP13 DUP14 AND PUSH1 0x20 DUP3 ADD MSTORE SWAP2 SWAP1 SWAP12 AND SWAP11 DUP2 ADD SWAP11 SWAP1 SWAP11 MSTORE PUSH1 0x80 PUSH1 0x60 DUP12 ADD MSTORE PUSH2 0x3C4 DUP11 PUSH2 0x3AE PUSH1 0xA0 DUP3 ADD DUP10 PUSH2 0xFE7 JUMP JUMPDEST PUSH1 0xA4 CALLDATALOAD PUSH1 0x80 DUP4 ADD MSTORE SUB PUSH1 0x1F NOT DUP2 ADD DUP13 MSTORE DUP12 PUSH2 0xE1B JUMP JUMPDEST DUP3 EXTCODESIZE ISZERO PUSH2 0x973 JUMPI SWAP2 PUSH2 0x409 SWAP10 SWAP2 DUP10 DUP1 SWAP5 PUSH1 0x40 MLOAD SWAP13 DUP14 SWAP6 DUP7 SWAP5 DUP6 SWAP4 PUSH4 0x22C0D9F PUSH1 0xE0 SHL DUP6 MSTORE PUSH1 0x4 DUP6 ADD MSTORE PUSH1 0x24 DUP5 ADD MSTORE ADDRESS PUSH1 0x44 DUP5 ADD MSTORE PUSH1 0x80 PUSH1 0x64 DUP5 ADD MSTORE PUSH1 0x84 DUP4 ADD SWAP1 PUSH2 0xFE7 JUMP JUMPDEST SUB SWAP3 GAS CALL DUP1 ISZERO PUSH2 0x1E4 JUMPI PUSH2 0x95D JUMPI JUMPDEST DUP6 SWAP7 POP SWAP5 SWAP4 SWAP5 JUMPDEST PUSH1 0x1 PUSH1 0xC4 CALLDATALOAD AND PUSH2 0x54F JUMPI JUMPDEST POP PUSH1 0x1 PUSH1 0x1 PUSH1 0xA0 SHL SUB SWAP3 POP PUSH2 0x441 SWAP2 POP PUSH2 0xFBB SWAP1 POP JUMP JUMPDEST AND PUSH1 0x40 MLOAD PUSH4 0x70A08231 PUSH1 0xE0 SHL DUP2 MSTORE ADDRESS PUSH1 0x4 DUP3 ADD MSTORE PUSH1 0x20 DUP2 PUSH1 0x24 DUP2 DUP6 GAS STATICCALL SWAP1 DUP2 ISZERO PUSH2 0x181 JUMPI DUP4 SWAP2 PUSH2 0x515 JUMPI JUMPDEST POP DUP2 EXTCODESIZE ISZERO PUSH2 0x511 JUMPI DUP3 SWAP2 PUSH1 0x24 DUP4 SWAP3 PUSH1 0x40 MLOAD SWAP5 DUP6 SWAP4 DUP5 SWAP3 PUSH4 0x2E1A7D4D PUSH1 0xE0 SHL DUP5 MSTORE PUSH1 0x4 DUP5 ADD MSTORE GAS CALL DUP1 ISZERO PUSH2 0x506 JUMPI PUSH2 0x4EE JUMPI JUMPDEST POP DUP1 DUP1 DUP1 PUSH1 0xC4 CALLDATALOAD PUSH1 0x80 SHR DUP2 DUP2 ISZERO PUSH2 0x4E5 JUMPI JUMPDEST COINBASE SWAP1 CALL ISZERO PUSH2 0x4D8 JUMPI PUSH2 0x4CE SWAP1 PUSH1 0xC4 CALLDATALOAD PUSH1 0x1 PUSH1 0x1 PUSH1 0x80 SHL SUB AND SWAP1 PUSH2 0xD52 JUMP JUMPDEST SELFBALANCE GT ISZERO PUSH2 0x236 JUMPI DUP1 RETURN JUMPDEST POP PUSH1 0x40 MLOAD SWAP1 RETURNDATASIZE SWAP1 DUP3 RETURNDATACOPY RETURNDATASIZE SWAP1 REVERT JUMPDEST POP PUSH2 0x8FC PUSH2 0x4B0 JUMP JUMPDEST PUSH2 0x4F7 SWAP1 PUSH2 0xDD7 JUMP JUMPDEST PUSH2 0x502 JUMPI DUP2 DUP4 PUSH2 0x49E JUMP JUMPDEST POP DUP1 REVERT JUMPDEST PUSH1 0x40 MLOAD RETURNDATASIZE DUP5 DUP3 RETURNDATACOPY RETURNDATASIZE SWAP1 REVERT JUMPDEST DUP3 DUP1 REVERT JUMPDEST SWAP3 POP POP PUSH1 0x20 DUP3 RETURNDATASIZE PUSH1 0x20 GT PUSH2 0x547 JUMPI JUMPDEST DUP2 PUSH2 0x531 PUSH1 0x20 SWAP4 DUP4 PUSH2 0xE1B JUMP JUMPDEST DUP2 ADD SUB SLT PUSH2 0x542 JUMPI DUP4 SWAP2 MLOAD DUP6 PUSH2 0x46C JUMP JUMPDEST PUSH1 0x0 DUP1 REVERT JUMPDEST RETURNDATASIZE SWAP2 POP PUSH2 0x524 JUMP JUMPDEST DUP4 PUSH1 0x80 SWAP2 DUP2 ADD SUB SLT PUSH2 0x6C2 JUMPI PUSH1 0x40 MLOAD SWAP2 PUSH2 0x568 DUP4 PUSH2 0xE00 JUMP JUMPDEST PUSH2 0x571 DUP5 PUSH2 0xD11 JUMP JUMPDEST DUP4 MSTORE PUSH1 0x20 DUP5 ADD CALLDATALOAD PUSH1 0x20 DUP5 ADD MSTORE PUSH2 0x589 PUSH1 0x40 DUP6 ADD PUSH2 0xD11 JUMP JUMPDEST DUP1 PUSH1 0x40 DUP6 ADD MSTORE PUSH2 0x59B PUSH1 0x60 DUP7 ADD PUSH2 0xD11 JUMP JUMPDEST DUP1 PUSH1 0x60 DUP7 ADD MSTORE DUP4 ISZERO PUSH2 0x8BD JUMPI JUMPDEST POP POP PUSH1 0x20 DUP4 ADD MLOAD PUSH1 0x1 AND PUSH2 0x794 JUMPI POP DUP2 MLOAD PUSH1 0x40 MLOAD PUSH4 0x240BC6B PUSH1 0xE2 SHL DUP2 MSTORE PUSH1 0x1 PUSH1 0x1 PUSH1 0xA0 SHL SUB SWAP3 SWAP2 PUSH1 0x60 SWAP1 DUP3 SWAP1 PUSH1 0x4 SWAP1 DUP3 SWAP1 DUP8 AND GAS STATICCALL SWAP1 DUP2 ISZERO PUSH2 0x1E4 JUMPI DUP7 SWAP1 DUP8 SWAP3 PUSH2 0x761 JUMPI JUMPDEST POP DUP7 SWAP6 PUSH1 0x1 PUSH1 0x1 PUSH1 0x70 SHL SUB SWAP3 DUP4 AND SWAP3 SWAP2 SWAP1 SWAP2 AND SWAP1 DUP7 SWAP1 PUSH1 0x20 ADD CALLDATALOAD PUSH1 0x2 AND ISZERO PUSH2 0x6F0 JUMPI POP SWAP2 PUSH2 0x622 PUSH1 0x20 SWAP3 PUSH2 0x64B SWAP5 DUP4 PUSH2 0xD75 JUMP JUMPDEST SWAP5 DUP5 DUP1 PUSH1 0x40 DUP4 ADD MLOAD AND SWAP2 MLOAD AND DUP9 PUSH1 0x40 MLOAD DUP1 SWAP7 DUP2 SWAP6 DUP3 SWAP5 PUSH4 0xA9059CBB PUSH1 0xE0 SHL DUP5 MSTORE PUSH1 0x4 DUP5 ADD PUSH2 0xF8A JUMP JUMPDEST SUB SWAP3 GAS CALL DUP1 ISZERO PUSH2 0x6E5 JUMPI PUSH2 0x6C6 JUMPI JUMPDEST POP JUMPDEST PUSH2 0x664 PUSH2 0xFA5 JUMP JUMPDEST AND SWAP2 DUP3 EXTCODESIZE ISZERO PUSH2 0x6C2 JUMPI PUSH2 0x692 SWAP3 DUP5 SWAP3 DUP4 PUSH1 0x40 MLOAD DUP1 SWAP7 DUP2 SWAP6 DUP3 SWAP5 PUSH4 0x22C0D9F PUSH1 0xE0 SHL DUP5 MSTORE ADDRESS SWAP2 PUSH1 0x4 DUP6 ADD PUSH2 0x1104 JUMP JUMPDEST SUB SWAP3 GAS CALL DUP1 ISZERO PUSH2 0x506 JUMPI PUSH2 0x6AE JUMPI JUMPDEST POP POP JUMPDEST DUP2 DUP4 DUP1 DUP1 DUP1 PUSH2 0x42A JUMP JUMPDEST PUSH2 0x6B7 SWAP1 PUSH2 0xDD7 JUMP JUMPDEST PUSH2 0x502 JUMPI DUP2 DUP4 PUSH2 0x6A1 JUMP JUMPDEST DUP4 DUP1 REVERT JUMPDEST PUSH2 0x6DE SWAP1 PUSH1 0x20 RETURNDATASIZE PUSH1 0x20 GT PUSH2 0x17A JUMPI PUSH2 0x16A DUP2 DUP4 PUSH2 0xE1B JUMP JUMPDEST POP DUP7 PUSH2 0x65A JUMP JUMPDEST PUSH1 0x40 MLOAD RETURNDATASIZE DUP8 DUP3 RETURNDATACOPY RETURNDATASIZE SWAP1 REVERT JUMPDEST SWAP5 SWAP6 POP SWAP2 PUSH2 0x704 PUSH2 0x72D SWAP4 PUSH1 0x20 SWAP4 DUP4 PUSH2 0xD75 JUMP JUMPDEST SWAP6 DUP5 DUP1 PUSH1 0x60 DUP4 ADD MLOAD AND SWAP2 MLOAD AND DUP9 PUSH1 0x40 MLOAD DUP1 SWAP7 DUP2 SWAP6 DUP3 SWAP5 PUSH4 0xA9059CBB PUSH1 0xE0 SHL DUP5 MSTORE PUSH1 0x4 DUP5 ADD PUSH2 0xF8A JUMP JUMPDEST SUB SWAP3 GAS CALL DUP1 ISZERO PUSH2 0x6E5 JUMPI PUSH2 0x742 JUMPI JUMPDEST POP PUSH2 0x65C JUMP JUMPDEST PUSH2 0x75A SWAP1 PUSH1 0x20 RETURNDATASIZE PUSH1 0x20 GT PUSH2 0x17A JUMPI PUSH2 0x16A DUP2 DUP4 PUSH2 0xE1B JUMP JUMPDEST POP DUP7 PUSH2 0x73C JUMP JUMPDEST SWAP1 POP PUSH2 0x785 SWAP2 POP PUSH1 0x60 RETURNDATASIZE PUSH1 0x60 GT PUSH2 0x78D JUMPI JUMPDEST PUSH2 0x77D DUP2 DUP4 PUSH2 0xE1B JUMP JUMPDEST DUP2 ADD SWAP1 PUSH2 0x10CE JUMP JUMPDEST POP SWAP1 DUP10 PUSH2 0x5EE JUMP JUMPDEST POP RETURNDATASIZE PUSH2 0x773 JUMP JUMPDEST SWAP3 SWAP4 POP PUSH2 0x821 SWAP3 PUSH1 0x40 SWAP3 POP SWAP1 PUSH1 0x20 DUP6 ADD CALLDATALOAD PUSH1 0x2 AND ISZERO PUSH2 0x8A3 JUMPI PUSH5 0x1000276A4 JUMPDEST DUP8 PUSH1 0x1 PUSH1 0x1 PUSH1 0xA0 SHL SUB PUSH2 0x7C5 PUSH2 0xFA5 JUMP JUMPDEST AND SWAP3 PUSH2 0x7FA PUSH2 0x7D2 PUSH2 0xFBB JUMP JUMPDEST PUSH2 0x7EC PUSH2 0x7DD PUSH2 0xFD1 JUMP JUMPDEST SWAP8 DUP10 MLOAD SWAP9 DUP10 SWAP4 PUSH1 0x20 DUP6 ADD PUSH2 0x1027 JUMP JUMPDEST SUB PUSH1 0x1F NOT DUP2 ADD DUP8 MSTORE DUP7 PUSH2 0xE1B JUMP JUMPDEST DUP6 MLOAD PUSH4 0x2515961 PUSH1 0xE3 SHL DUP2 MSTORE SWAP7 DUP8 SWAP6 DUP7 SWAP5 DUP6 SWAP4 PUSH1 0x20 DUP13 ADD CALLDATALOAD PUSH1 0x2 AND ISZERO ISZERO ADDRESS PUSH1 0x4 DUP8 ADD PUSH2 0x1070 JUMP JUMPDEST SUB SWAP3 GAS CALL SWAP2 DUP3 ISZERO PUSH2 0x898 JUMPI DUP5 SWAP2 DUP6 SWAP4 PUSH2 0x85C JUMPI JUMPDEST POP PUSH1 0x20 ADD CALLDATALOAD PUSH1 0x2 AND ISZERO PUSH2 0x852 JUMPI POP PUSH2 0x84C SWAP1 PUSH2 0x10A9 JUMP JUMPDEST POP PUSH2 0x6A4 JUMP JUMPDEST PUSH2 0x84C SWAP2 POP PUSH2 0x10A9 JUMP JUMPDEST PUSH1 0x2 SWAP2 SWAP4 POP PUSH1 0x20 SWAP3 POP PUSH2 0x886 SWAP1 PUSH1 0x40 RETURNDATASIZE PUSH1 0x40 GT PUSH2 0x891 JUMPI JUMPDEST PUSH2 0x87E DUP2 DUP4 PUSH2 0xE1B JUMP JUMPDEST DUP2 ADD SWAP1 PUSH2 0x105A JUMP JUMPDEST SWAP3 SWAP1 SWAP3 SWAP4 SWAP2 POP PUSH2 0x835 JUMP JUMPDEST POP RETURNDATASIZE PUSH2 0x874 JUMP JUMPDEST PUSH1 0x40 MLOAD RETURNDATASIZE DUP7 DUP3 RETURNDATACOPY RETURNDATASIZE SWAP1 REVERT JUMPDEST PUSH20 0xFFFD8963EFD1FC6A506488495D951D5263988D25 PUSH2 0x7B4 JUMP JUMPDEST SWAP2 SWAP3 POP PUSH1 0x24 SWAP2 PUSH1 0x20 SWAP2 SWAP1 DUP7 DUP4 ADD CALLDATALOAD PUSH1 0x2 AND ISZERO PUSH2 0x94D JUMPI POP PUSH1 0x1 PUSH1 0x1 PUSH1 0xA0 SHL SUB AND JUMPDEST PUSH1 0x40 MLOAD PUSH4 0x70A08231 PUSH1 0xE0 SHL DUP2 MSTORE ADDRESS PUSH1 0x4 DUP3 ADD MSTORE SWAP3 DUP4 SWAP2 DUP3 SWAP1 PUSH1 0x1 PUSH1 0x1 PUSH1 0xA0 SHL SUB AND GAS STATICCALL SWAP1 DUP2 ISZERO PUSH2 0x6E5 JUMPI DUP6 SWAP2 PUSH2 0x918 JUMPI JUMPDEST POP SWAP1 DUP8 DUP1 PUSH2 0x5A8 JUMP JUMPDEST SWAP5 POP POP PUSH1 0x20 DUP5 RETURNDATASIZE PUSH1 0x20 GT PUSH2 0x945 JUMPI JUMPDEST DUP2 PUSH2 0x934 PUSH1 0x20 SWAP4 DUP4 PUSH2 0xE1B JUMP JUMPDEST DUP2 ADD SUB SLT PUSH2 0x542 JUMPI DUP6 SWAP4 MLOAD DUP8 PUSH2 0x90F JUMP JUMPDEST RETURNDATASIZE SWAP2 POP PUSH2 0x927 JUMP JUMPDEST PUSH1 0x1 PUSH1 0x1 PUSH1 0xA0 SHL SUB AND SWAP1 POP PUSH2 0x8DE JUMP JUMPDEST SWAP4 SWAP5 SWAP1 SWAP6 PUSH2 0x96A SWAP1 PUSH2 0xDD7 JUMP JUMPDEST SWAP4 SWAP3 DUP6 SWAP1 PUSH2 0x418 JUMP JUMPDEST DUP9 DUP1 REVERT JUMPDEST SWAP9 POP PUSH2 0x985 SWAP2 PUSH1 0xA4 CALLDATALOAD PUSH2 0xD75 JUMP JUMPDEST SWAP7 PUSH2 0x354 JUMP JUMPDEST SWAP1 POP PUSH2 0x9A6 SWAP2 POP PUSH1 0x60 RETURNDATASIZE PUSH1 0x60 GT PUSH2 0x78D JUMPI PUSH2 0x77D DUP2 DUP4 PUSH2 0xE1B JUMP JUMPDEST POP SWAP1 DUP10 PUSH2 0x329 JUMP JUMPDEST PUSH1 0x40 MLOAD RETURNDATASIZE DUP10 DUP3 RETURNDATACOPY RETURNDATASIZE SWAP1 REVERT JUMPDEST SWAP5 SWAP6 SWAP4 SWAP5 DUP7 SWAP5 SWAP1 SWAP2 POP PUSH1 0x2 DUP2 AND ISZERO PUSH2 0xAA5 JUMPI PUSH2 0xA43 PUSH1 0x40 PUSH5 0x1000276A4 JUMPDEST PUSH1 0x1 PUSH1 0x1 PUSH1 0xA0 SHL SUB PUSH2 0x9E7 PUSH2 0xFA5 JUMP JUMPDEST AND PUSH2 0x9F0 PUSH2 0xFBB JUMP JUMPDEST SWAP2 PUSH2 0xA1D PUSH2 0x9FC PUSH2 0xFD1 JUMP JUMPDEST SWAP4 PUSH2 0xA0F DUP11 DUP8 MLOAD SWAP7 DUP8 SWAP4 PUSH1 0x20 DUP6 ADD PUSH2 0x1027 JUMP JUMPDEST SUB PUSH1 0x1F NOT DUP2 ADD DUP6 MSTORE DUP5 PUSH2 0xE1B JUMP JUMPDEST DUP10 DUP5 MLOAD DUP1 SWAP7 DUP2 SWAP6 DUP3 SWAP5 PUSH4 0x2515961 PUSH1 0xE3 SHL DUP5 MSTORE PUSH1 0xA4 CALLDATALOAD PUSH1 0x2 DUP13 AND ISZERO ISZERO ADDRESS PUSH1 0x4 DUP8 ADD PUSH2 0x1070 JUMP JUMPDEST SUB SWAP3 GAS CALL SWAP2 DUP3 ISZERO PUSH2 0x1E4 JUMPI DUP7 SWAP2 DUP8 SWAP4 PUSH2 0xA7F JUMPI JUMPDEST POP PUSH1 0x2 AND ISZERO PUSH2 0xA70 JUMPI POP PUSH2 0xA6A SWAP1 PUSH2 0x10A9 JUMP JUMPDEST SWAP1 PUSH2 0x41F JUMP JUMPDEST PUSH2 0xA7A SWAP2 POP PUSH2 0x10A9 JUMP JUMPDEST PUSH2 0xA6A JUMP JUMPDEST PUSH2 0xA9D SWAP2 SWAP4 POP PUSH1 0x2 SWAP3 POP PUSH1 0x40 RETURNDATASIZE PUSH1 0x40 GT PUSH2 0x891 JUMPI PUSH2 0x87E DUP2 DUP4 PUSH2 0xE1B JUMP JUMPDEST SWAP3 SWAP1 SWAP2 PUSH2 0xA57 JUMP JUMPDEST PUSH2 0xA43 PUSH1 0x40 PUSH20 0xFFFD8963EFD1FC6A506488495D951D5263988D25 PUSH2 0x9D7 JUMP JUMPDEST SWAP1 SWAP3 POP SWAP1 PUSH1 0x1 SWAP1 PUSH1 0x80 SWAP1 DUP2 SWAP1 PUSH1 0x1 PUSH1 0x1 PUSH1 0xA0 SHL SUB DUP1 PUSH2 0xAE2 DUP10 PUSH2 0xD11 JUMP JUMPDEST AND DUP3 MSTORE PUSH1 0x20 DUP9 ADD CALLDATALOAD PUSH1 0x20 DUP4 ADD MSTORE DUP1 PUSH2 0xAFC PUSH1 0x40 DUP11 ADD PUSH2 0xD11 JUMP JUMPDEST AND PUSH1 0x40 DUP4 ADD MSTORE PUSH2 0xB0E PUSH1 0x60 DUP10 ADD PUSH2 0xD11 JUMP JUMPDEST AND PUSH1 0x60 DUP3 ADD MSTORE ADD SWAP5 ADD SWAP2 ADD SWAP2 DUP6 SWAP3 SWAP4 SWAP2 SWAP4 PUSH2 0x2CB JUMP JUMPDEST POP CALLVALUE PUSH2 0x236 JUMPI DUP1 PUSH1 0x3 NOT CALLDATASIZE ADD SLT PUSH2 0x236 JUMPI SLOAD PUSH1 0x40 MLOAD PUSH1 0x1 PUSH1 0x1 PUSH1 0xA0 SHL SUB SWAP1 SWAP2 AND DUP2 MSTORE PUSH1 0x20 SWAP1 RETURN JUMPDEST POP CALLVALUE PUSH2 0x236 JUMPI DUP1 PUSH1 0x3 NOT CALLDATASIZE ADD SLT PUSH2 0x236 JUMPI DUP1 SLOAD PUSH1 0x1 PUSH1 0x1 PUSH1 0xA0 SHL SUB AND CALLER DUP2 SWAP1 SUB PUSH2 0xB9C JUMPI DUP2 DUP1 DUP1 DUP1 SWAP4 SELFBALANCE SWAP1 DUP3 DUP3 ISZERO PUSH2 0xB93 JUMPI JUMPDEST CALL ISZERO PUSH2 0xB87 JUMPI DUP1 RETURN JUMPDEST PUSH1 0x40 MLOAD SWAP1 RETURNDATASIZE SWAP1 DUP3 RETURNDATACOPY RETURNDATASIZE SWAP1 REVERT JUMPDEST POP PUSH2 0x8FC PUSH2 0xB7E JUMP JUMPDEST PUSH1 0x40 MLOAD PUSH3 0x461BCD PUSH1 0xE5 SHL DUP2 MSTORE PUSH1 0x20 PUSH1 0x4 DUP3 ADD MSTORE PUSH1 0x1 PUSH1 0x24 DUP3 ADD MSTORE PUSH1 0x6F PUSH1 0xF8 SHL PUSH1 0x44 DUP3 ADD MSTORE PUSH1 0x64 SWAP1 REVERT JUMPDEST POP CALLVALUE PUSH2 0x236 JUMPI PUSH1 0x80 CALLDATASIZE PUSH1 0x3 NOT ADD SLT PUSH2 0x236 JUMPI PUSH1 0x1 PUSH1 0x1 PUSH1 0xA0 SHL SUB PUSH1 0x4 CALLDATALOAD DUP2 DUP2 AND SUB PUSH2 0x502 JUMPI PUSH1 0x1 PUSH1 0x1 PUSH1 0x40 SHL SUB SWAP1 PUSH1 0x24 CALLDATALOAD PUSH1 0x44 CALLDATALOAD PUSH1 0x64 CALLDATALOAD DUP5 DUP2 GT PUSH2 0x22E JUMPI PUSH2 0xC11 SWAP1 CALLDATASIZE SWAP1 PUSH1 0x4 ADD PUSH2 0xD25 JUMP JUMPDEST DUP2 SWAP3 SWAP2 ADD SWAP5 PUSH1 0x80 DUP4 DUP8 SUB SLT PUSH2 0xCE0 JUMPI PUSH2 0xC29 DUP4 PUSH2 0xD11 JUMP JUMPDEST SWAP4 PUSH1 0x20 SWAP7 PUSH2 0xC38 DUP9 DUP7 ADD PUSH2 0xD11 JUMP JUMPDEST SWAP3 PUSH1 0x40 DUP7 ADD CALLDATALOAD SWAP1 DUP2 GT PUSH2 0x22A JUMPI PUSH1 0x60 PUSH2 0xC59 PUSH2 0xC7B SWAP4 PUSH2 0xC6B SWAP4 DUP10 ADD PUSH2 0xE3E JUMP JUMPDEST SWAP7 ADD CALLDATALOAD SWAP6 DUP10 DUP1 DUP3 MLOAD DUP4 ADD ADD SWAP2 ADD PUSH2 0xEA8 JUMP JUMPDEST DUP3 ISZERO DUP1 ISZERO SWAP4 SWAP1 PUSH2 0xCD8 JUMPI SWAP1 PUSH2 0x112E JUMP JUMPDEST PUSH2 0xC89 JUMPI JUMPDEST POP PUSH2 0x119 JUMPI DUP5 DUP1 RETURN JUMPDEST DUP6 PUSH1 0x40 MLOAD DUP1 SWAP3 PUSH4 0xA9059CBB PUSH1 0xE0 SHL DUP3 MSTORE DUP2 DUP11 DUP10 DUP3 PUSH2 0xCAB DUP11 CALLER PUSH1 0x4 DUP5 ADD PUSH2 0xF8A JUMP JUMPDEST SUB SWAP4 AND GAS CALL DUP1 ISZERO PUSH2 0x9AE JUMPI ISZERO PUSH2 0xC80 JUMPI PUSH2 0xCD1 SWAP1 DUP7 RETURNDATASIZE DUP9 GT PUSH2 0x17A JUMPI PUSH2 0x16A DUP2 DUP4 PUSH2 0xE1B JUMP JUMPDEST POP CODESIZE PUSH2 0xC80 JUMP JUMPDEST POP DUP5 SWAP1 PUSH2 0x112E JUMP JUMPDEST DUP7 DUP1 REVERT JUMPDEST POP CALLVALUE PUSH2 0x236 JUMPI PUSH1 0x60 CALLDATASIZE PUSH1 0x3 NOT ADD SLT PUSH2 0x236 JUMPI PUSH1 0x20 PUSH2 0xD09 PUSH1 0x44 CALLDATALOAD PUSH1 0x24 CALLDATALOAD PUSH1 0x4 CALLDATALOAD PUSH2 0xD75 JUMP JUMPDEST PUSH1 0x40 MLOAD SWAP1 DUP2 MSTORE RETURN JUMPDEST CALLDATALOAD SWAP1 PUSH1 0x1 PUSH1 0x1 PUSH1 0xA0 SHL SUB DUP3 AND DUP3 SUB PUSH2 0x542 JUMPI JUMP JUMPDEST SWAP2 DUP2 PUSH1 0x1F DUP5 ADD SLT ISZERO PUSH2 0x542 JUMPI DUP3 CALLDATALOAD SWAP2 PUSH1 0x1 PUSH1 0x1 PUSH1 0x40 SHL SUB DUP4 GT PUSH2 0x542 JUMPI PUSH1 0x20 DUP4 DUP2 DUP7 ADD SWAP6 ADD ADD GT PUSH2 0x542 JUMPI JUMP JUMPDEST SWAP2 SWAP1 DUP3 ADD DUP1 SWAP3 GT PUSH2 0xD5F JUMPI JUMP JUMPDEST PUSH4 0x4E487B71 PUSH1 0xE0 SHL PUSH1 0x0 MSTORE PUSH1 0x11 PUSH1 0x4 MSTORE PUSH1 0x24 PUSH1 0x0 REVERT JUMPDEST PUSH2 0x3E5 DUP1 DUP3 MUL SWAP2 DUP1 DUP4 DIV DUP3 EQ DUP2 ISZERO OR ISZERO PUSH2 0xD5F JUMPI DUP5 MUL MUL SWAP3 DUP2 DUP5 DIV EQ DUP2 ISZERO OR ISZERO PUSH2 0xD5F JUMPI PUSH2 0x3E8 SWAP2 DUP3 DUP2 MUL SWAP3 DUP2 DUP5 DIV EQ SWAP1 ISZERO OR ISZERO PUSH2 0xD5F JUMPI PUSH2 0xDB6 SWAP2 PUSH2 0xD52 JUMP JUMPDEST SWAP1 DUP2 ISZERO PUSH2 0xDC1 JUMPI DIV SWAP1 JUMP JUMPDEST PUSH4 0x4E487B71 PUSH1 0xE0 SHL PUSH1 0x0 MSTORE PUSH1 0x12 PUSH1 0x4 MSTORE PUSH1 0x24 PUSH1 0x0 REVERT JUMPDEST PUSH1 0x1 PUSH1 0x1 PUSH1 0x40 SHL SUB DUP2 GT PUSH2 0xDEA JUMPI PUSH1 0x40 MSTORE JUMP JUMPDEST PUSH4 0x4E487B71 PUSH1 0xE0 SHL PUSH1 0x0 MSTORE PUSH1 0x41 PUSH1 0x4 MSTORE PUSH1 0x24 PUSH1 0x0 REVERT JUMPDEST PUSH1 0x80 DUP2 ADD SWAP1 DUP2 LT PUSH1 0x1 PUSH1 0x1 PUSH1 0x40 SHL SUB DUP3 GT OR PUSH2 0xDEA JUMPI PUSH1 0x40 MSTORE JUMP JUMPDEST PUSH1 0x1F SWAP1 SWAP2 ADD PUSH1 0x1F NOT AND DUP2 ADD SWAP1 PUSH1 0x1 PUSH1 0x1 PUSH1 0x40 SHL SUB DUP3 GT SWAP1 DUP3 LT OR PUSH2 0xDEA JUMPI PUSH1 0x40 MSTORE JUMP JUMPDEST DUP2 PUSH1 0x1F DUP3 ADD SLT ISZERO PUSH2 0x542 JUMPI DUP1 CALLDATALOAD SWAP1 PUSH1 0x1 PUSH1 0x1 PUSH1 0x40 SHL SUB DUP3 GT PUSH2 0xDEA JUMPI PUSH1 0x40 MLOAD SWAP3 PUSH2 0xE72 PUSH1 0x1F DUP5 ADD PUSH1 0x1F NOT AND PUSH1 0x20 ADD DUP6 PUSH2 0xE1B JUMP JUMPDEST DUP3 DUP5 MSTORE PUSH1 0x20 DUP4 DUP4 ADD ADD GT PUSH2 0x542 JUMPI DUP2 PUSH1 0x0 SWAP3 PUSH1 0x20 DUP1 SWAP4 ADD DUP4 DUP7 ADD CALLDATACOPY DUP4 ADD ADD MSTORE SWAP1 JUMP JUMPDEST MLOAD SWAP1 PUSH1 0x1 PUSH1 0x1 PUSH1 0xA0 SHL SUB DUP3 AND DUP3 SUB PUSH2 0x542 JUMPI JUMP JUMPDEST PUSH1 0x20 DUP1 DUP3 DUP5 SUB SLT PUSH2 0x542 JUMPI DUP2 MLOAD PUSH1 0x1 PUSH1 0x1 PUSH1 0x40 SHL SUB SWAP3 DUP4 DUP3 GT PUSH2 0x542 JUMPI ADD SWAP1 DUP4 PUSH1 0x1F DUP4 ADD SLT ISZERO PUSH2 0x542 JUMPI DUP2 MLOAD SWAP3 DUP4 GT PUSH2 0xDEA JUMPI PUSH1 0x40 SWAP3 PUSH1 0x40 MLOAD SWAP5 PUSH2 0xEF1 DUP4 DUP4 PUSH1 0x5 SHL ADD DUP8 PUSH2 0xE1B JUMP JUMPDEST DUP2 DUP7 MSTORE DUP3 DUP1 DUP8 ADD SWAP3 PUSH1 0x7 SHL DUP6 ADD ADD SWAP4 DUP2 DUP6 GT PUSH2 0x542 JUMPI DUP4 ADD SWAP2 JUMPDEST DUP5 DUP4 LT PUSH2 0xF1B JUMPI POP POP POP POP POP POP SWAP1 JUMP JUMPDEST PUSH1 0x80 DUP4 DUP4 SUB SLT PUSH2 0x542 JUMPI DUP4 PUSH1 0x80 SWAP2 DUP8 MLOAD PUSH2 0xF34 DUP2 PUSH2 0xE00 JUMP JUMPDEST PUSH2 0xF3D DUP7 PUSH2 0xE94 JUMP JUMPDEST DUP2 MSTORE DUP3 DUP7 ADD MLOAD DUP4 DUP3 ADD MSTORE PUSH2 0xF52 DUP10 DUP8 ADD PUSH2 0xE94 JUMP JUMPDEST DUP10 DUP3 ADD MSTORE PUSH1 0x60 PUSH2 0xF63 DUP2 DUP9 ADD PUSH2 0xE94 JUMP JUMPDEST SWAP1 DUP3 ADD MSTORE DUP2 MSTORE ADD SWAP3 ADD SWAP2 PUSH2 0xF0B JUMP JUMPDEST SWAP1 DUP2 PUSH1 0x20 SWAP2 SUB SLT PUSH2 0x542 JUMPI MLOAD DUP1 ISZERO ISZERO DUP2 SUB PUSH2 0x542 JUMPI SWAP1 JUMP JUMPDEST PUSH1 0x1 PUSH1 0x1 PUSH1 0xA0 SHL SUB SWAP1 SWAP2 AND DUP2 MSTORE PUSH1 0x20 DUP2 ADD SWAP2 SWAP1 SWAP2 MSTORE PUSH1 0x40 ADD SWAP1 JUMP JUMPDEST PUSH1 0x4 CALLDATALOAD PUSH1 0x1 PUSH1 0x1 PUSH1 0xA0 SHL SUB DUP2 AND DUP2 SUB PUSH2 0x542 JUMPI SWAP1 JUMP JUMPDEST PUSH1 0x44 CALLDATALOAD PUSH1 0x1 PUSH1 0x1 PUSH1 0xA0 SHL SUB DUP2 AND DUP2 SUB PUSH2 0x542 JUMPI SWAP1 JUMP JUMPDEST PUSH1 0x64 CALLDATALOAD PUSH1 0x1 PUSH1 0x1 PUSH1 0xA0 SHL SUB DUP2 AND DUP2 SUB PUSH2 0x542 JUMPI SWAP1 JUMP JUMPDEST SWAP2 SWAP1 DUP3 MLOAD SWAP3 DUP4 DUP3 MSTORE PUSH1 0x0 JUMPDEST DUP5 DUP2 LT PUSH2 0x1013 JUMPI POP POP DUP3 PUSH1 0x0 PUSH1 0x20 DUP1 SWAP5 SWAP6 DUP5 ADD ADD MSTORE PUSH1 0x1F DUP1 NOT SWAP2 ADD AND ADD ADD SWAP1 JUMP JUMPDEST PUSH1 0x20 DUP2 DUP4 ADD DUP2 ADD MLOAD DUP5 DUP4 ADD DUP3 ADD MSTORE ADD PUSH2 0xFF2 JUMP JUMPDEST PUSH1 0x1 PUSH1 0x1 PUSH1 0xA0 SHL SUB SWAP2 DUP3 AND DUP2 MSTORE SWAP2 AND PUSH1 0x20 DUP3 ADD MSTORE PUSH1 0x1 PUSH1 0x40 DUP3 ADD MSTORE PUSH1 0x80 PUSH1 0x60 DUP3 ADD DUP2 SWAP1 MSTORE PUSH2 0x1057 SWAP3 SWAP2 ADD SWAP1 PUSH2 0xFE7 JUMP JUMPDEST SWAP1 JUMP JUMPDEST SWAP2 SWAP1 DUP3 PUSH1 0x40 SWAP2 SUB SLT PUSH2 0x542 JUMPI PUSH1 0x20 DUP3 MLOAD SWAP3 ADD MLOAD SWAP1 JUMP JUMPDEST PUSH1 0x1 PUSH1 0x1 PUSH1 0xA0 SHL SUB SWAP2 DUP3 AND DUP2 MSTORE SWAP2 ISZERO ISZERO PUSH1 0x20 DUP4 ADD MSTORE PUSH1 0x40 DUP3 ADD SWAP3 SWAP1 SWAP3 MSTORE SWAP2 AND PUSH1 0x60 DUP3 ADD MSTORE PUSH1 0xA0 PUSH1 0x80 DUP3 ADD DUP2 SWAP1 MSTORE PUSH2 0x1057 SWAP3 SWAP2 ADD SWAP1 PUSH2 0xFE7 JUMP JUMPDEST PUSH1 0x1 PUSH1 0xFF SHL DUP2 EQ PUSH2 0xD5F JUMPI PUSH1 0x0 SUB SWAP1 JUMP JUMPDEST MLOAD SWAP1 PUSH1 0x1 PUSH1 0x1 PUSH1 0x70 SHL SUB DUP3 AND DUP3 SUB PUSH2 0x542 JUMPI JUMP JUMPDEST SWAP1 DUP2 PUSH1 0x60 SWAP2 SUB SLT PUSH2 0x542 JUMPI PUSH2 0x10E2 DUP2 PUSH2 0x10BA JUMP JUMPDEST SWAP2 PUSH1 0x40 PUSH2 0x10F1 PUSH1 0x20 DUP5 ADD PUSH2 0x10BA JUMP JUMPDEST SWAP3 ADD MLOAD PUSH4 0xFFFFFFFF DUP2 AND DUP2 SUB PUSH2 0x542 JUMPI SWAP1 JUMP JUMPDEST SWAP2 PUSH1 0xA0 SWAP4 SWAP2 DUP4 MSTORE PUSH1 0x20 DUP4 ADD MSTORE PUSH1 0x1 DUP1 DUP5 SHL SUB AND PUSH1 0x40 DUP3 ADD MSTORE PUSH1 0x80 PUSH1 0x60 DUP3 ADD MSTORE PUSH1 0x0 PUSH1 0x80 DUP3 ADD MSTORE ADD SWAP1 JUMP JUMPDEST SWAP2 SWAP1 PUSH1 0x0 JUMPDEST DUP4 MLOAD DUP2 LT ISZERO PUSH2 0x167C JUMPI PUSH1 0x20 DUP1 DUP3 PUSH1 0x5 SHL DUP7 ADD ADD MLOAD SWAP3 DUP2 DUP5 ADD MLOAD SWAP1 PUSH1 0x1 PUSH1 0x2 DUP4 AND ISZERO ISZERO SWAP3 AND ISZERO PUSH1 0x0 EQ PUSH2 0x1443 JUMPI DUP5 MLOAD PUSH1 0x40 DUP1 MLOAD PUSH4 0x240BC6B PUSH1 0xE2 SHL DUP2 MSTORE SWAP1 SWAP5 PUSH1 0x4 SWAP5 SWAP3 PUSH1 0x1 PUSH1 0x1 PUSH1 0xA0 SHL SUB SWAP3 PUSH1 0x60 SWAP2 DUP3 SWAP1 DUP3 SWAP1 DUP10 SWAP1 DUP3 SWAP1 DUP9 AND GAS STATICCALL SWAP1 DUP2 ISZERO PUSH2 0x130E JUMPI PUSH1 0x0 SWAP1 DUP2 SWAP3 PUSH2 0x1422 JUMPI JUMPDEST POP PUSH1 0x1 DUP1 PUSH1 0x70 SHL SUB DUP1 SWAP2 AND SWAP2 AND SWAP2 PUSH1 0x0 SWAP7 DUP12 DUP9 SWAP2 DUP1 SWAP9 PUSH1 0x0 EQ PUSH2 0x1319 JUMPI POP POP POP POP DUP5 ISZERO PUSH2 0x12A1 JUMPI JUMPDEST PUSH2 0x11D5 PUSH2 0x11FD SWAP3 DUP5 SWAP3 DUP8 PUSH2 0xD75 JUMP JUMPDEST SWAP5 DUP5 DUP10 DUP13 ADD MLOAD AND DUP6 DUP13 MLOAD AND PUSH1 0x0 DUP11 DUP13 MLOAD SWAP7 DUP8 SWAP6 DUP7 SWAP5 DUP6 SWAP4 PUSH4 0xA9059CBB PUSH1 0xE0 SHL DUP6 MSTORE DUP5 ADD PUSH2 0xF8A JUMP JUMPDEST SUB SWAP3 GAS CALL DUP1 ISZERO PUSH2 0x1296 JUMPI PUSH2 0x1278 JUMPI JUMPDEST POP POP JUMPDEST PUSH1 0x0 SWAP7 MLOAD AND SWAP2 DUP3 EXTCODESIZE ISZERO PUSH2 0xCE0 JUMPI SWAP2 DUP5 SWAP4 SWAP2 DUP8 DUP1 SWAP5 PUSH2 0x1242 SWAP8 MLOAD SWAP8 DUP9 SWAP6 DUP7 SWAP5 DUP6 SWAP4 PUSH4 0x22C0D9F PUSH1 0xE0 SHL DUP6 MSTORE ADDRESS SWAP3 DUP6 ADD PUSH2 0x1104 JUMP JUMPDEST SUB SWAP3 GAS CALL SWAP1 DUP2 ISZERO PUSH2 0x126F JUMPI POP SWAP1 PUSH1 0x1 SWAP3 SWAP2 PUSH2 0x1260 JUMPI JUMPDEST POP JUMPDEST ADD PUSH2 0x1133 JUMP JUMPDEST PUSH2 0x1269 SWAP1 PUSH2 0xDD7 JUMP JUMPDEST CODESIZE PUSH2 0x1258 JUMP JUMPDEST MLOAD RETURNDATASIZE DUP6 DUP3 RETURNDATACOPY RETURNDATASIZE SWAP1 REVERT JUMPDEST DUP2 PUSH2 0x128E SWAP3 SWAP1 RETURNDATASIZE LT PUSH2 0x17A JUMPI PUSH2 0x16A DUP2 DUP4 PUSH2 0xE1B JUMP JUMPDEST POP CODESIZE DUP1 PUSH2 0x120C JUMP JUMPDEST DUP8 MLOAD RETURNDATASIZE PUSH1 0x0 DUP3 RETURNDATACOPY RETURNDATASIZE SWAP1 REVERT JUMPDEST SWAP4 POP PUSH1 0x24 DUP3 DUP5 DUP10 DUP13 ADD MLOAD AND DUP10 MLOAD SWAP3 DUP4 DUP1 SWAP3 PUSH4 0x70A08231 PUSH1 0xE0 SHL DUP3 MSTORE ADDRESS DUP13 DUP4 ADD MSTORE GAS STATICCALL SWAP1 DUP2 ISZERO PUSH2 0x130E JUMPI SWAP1 DUP4 SWAP2 PUSH1 0x0 SWAP2 PUSH2 0x12DE JUMPI JUMPDEST POP SWAP5 SWAP1 POP PUSH2 0x11C6 JUMP JUMPDEST SWAP2 DUP3 DUP2 RETURNDATASIZE DUP4 GT PUSH2 0x1307 JUMPI JUMPDEST PUSH2 0x12F3 DUP2 DUP4 PUSH2 0xE1B JUMP JUMPDEST DUP2 ADD SUB SLT PUSH2 0x236 JUMPI POP MLOAD DUP3 SWAP1 PUSH2 0x11FD PUSH2 0x12D5 JUMP JUMPDEST POP RETURNDATASIZE PUSH2 0x12E9 JUMP JUMPDEST DUP9 MLOAD RETURNDATASIZE PUSH1 0x0 DUP3 RETURNDATACOPY RETURNDATASIZE SWAP1 REVERT JUMPDEST SWAP9 DUP4 DUP8 SWAP6 SWAP7 SWAP3 DUP10 SWAP5 SWAP11 SWAP6 SWAP12 ISZERO PUSH2 0x1395 JUMPI JUMPDEST POP POP POP PUSH2 0x1361 SWAP5 PUSH2 0x133B SWAP2 DUP5 PUSH2 0xD75 JUMP JUMPDEST SWAP8 DUP13 ADD MLOAD AND DUP6 DUP13 MLOAD AND PUSH1 0x0 DUP11 DUP13 MLOAD SWAP7 DUP8 SWAP6 DUP7 SWAP5 DUP6 SWAP4 PUSH4 0xA9059CBB PUSH1 0xE0 SHL DUP6 MSTORE DUP5 ADD PUSH2 0xF8A JUMP JUMPDEST SUB SWAP3 GAS CALL DUP1 ISZERO PUSH2 0x1296 JUMPI PUSH2 0x1377 JUMPI JUMPDEST POP POP PUSH2 0x120F JUMP JUMPDEST DUP2 PUSH2 0x138D SWAP3 SWAP1 RETURNDATASIZE LT PUSH2 0x17A JUMPI PUSH2 0x16A DUP2 DUP4 PUSH2 0xE1B JUMP JUMPDEST POP CODESIZE DUP1 PUSH2 0x1370 JUMP JUMPDEST PUSH1 0x24 SWAP5 SWAP3 SWAP6 POP SWAP6 SWAP3 SWAP6 ADD MLOAD AND DUP12 MLOAD SWAP3 DUP4 DUP1 SWAP3 PUSH4 0x70A08231 PUSH1 0xE0 SHL DUP3 MSTORE DUP14 ADDRESS SWAP1 DUP4 ADD MSTORE GAS STATICCALL SWAP2 DUP3 ISZERO PUSH2 0x1417 JUMPI SWAP2 DUP7 SWAP2 DUP4 DUP8 SWAP6 SWAP5 SWAP3 PUSH2 0x13DC JUMPI JUMPDEST POP SWAP1 SWAP3 SWAP1 POP PUSH2 0x1361 DUP10 DUP15 PUSH2 0x132A JUMP JUMPDEST SWAP3 POP DUP5 DUP2 SWAP5 SWAP7 SWAP6 SWAP3 POP RETURNDATASIZE DUP4 GT PUSH2 0x1410 JUMPI JUMPDEST PUSH2 0x13F7 DUP2 DUP4 PUSH2 0xE1B JUMP JUMPDEST DUP2 ADD SUB SLT PUSH2 0x236 JUMPI POP MLOAD SWAP1 SWAP2 DUP4 SWAP2 DUP6 SWAP1 DUP5 PUSH2 0x133B PUSH2 0x13CD JUMP JUMPDEST POP RETURNDATASIZE PUSH2 0x13ED JUMP JUMPDEST DUP11 MLOAD SWAP1 RETURNDATASIZE SWAP1 DUP3 RETURNDATACOPY RETURNDATASIZE SWAP1 REVERT JUMPDEST SWAP1 POP PUSH2 0x143B SWAP2 POP DUP3 RETURNDATASIZE DUP5 GT PUSH2 0x78D JUMPI PUSH2 0x77D DUP2 DUP4 PUSH2 0xE1B JUMP JUMPDEST POP SWAP1 CODESIZE PUSH2 0x119E JUMP JUMPDEST SWAP4 SWAP6 SWAP5 SWAP4 SWAP1 DUP2 ISZERO PUSH2 0x1574 JUMPI JUMPDEST DUP1 ISZERO PUSH2 0x1559 JUMPI PUSH5 0x1000276A4 SWAP3 JUMPDEST PUSH1 0x1 DUP1 PUSH1 0xA0 SHL SUB SWAP3 DUP4 DUP10 MLOAD AND SWAP2 PUSH1 0x0 PUSH1 0x40 SWAP11 DUP7 DUP13 DUP3 ADD MLOAD AND SWAP7 PUSH1 0x60 DUP1 SWAP3 ADD MLOAD AND DUP13 MLOAD SWAP8 PUSH1 0xA0 SWAP5 DUP10 ADD MSTORE DUP13 DUP9 ADD MSTORE DUP7 ADD MSTORE PUSH1 0x80 DUP1 DUP7 ADD MSTORE PUSH1 0x0 DUP2 DUP7 ADD MSTORE DUP5 MSTORE PUSH1 0xC0 SWAP5 DUP6 DUP6 ADD SWAP3 DUP6 DUP5 LT PUSH1 0x1 DUP1 PUSH1 0x40 SHL SUB DUP6 GT OR PUSH2 0xDEA JUMPI DUP4 PUSH1 0x0 DUP13 SWAP5 DUP9 PUSH2 0x14DB DUP2 DUP6 SWAP8 DUP7 DUP11 MSTORE PUSH4 0x2515961 PUSH1 0xE3 SHL DUP8 MSTORE PUSH1 0xBF NOT SWAP5 DUP13 ADDRESS PUSH1 0xC4 DUP6 ADD PUSH2 0x1070 JUMP JUMPDEST SUB ADD SWAP3 GAS CALL SWAP4 DUP5 ISZERO PUSH2 0x130E JUMPI PUSH1 0x1 SWAP6 SWAP7 SWAP8 SWAP9 PUSH1 0x0 SWAP5 DUP6 SWAP7 PUSH2 0x1521 JUMPI JUMPDEST POP POP POP POP PUSH1 0x0 EQ PUSH2 0x1512 JUMPI POP PUSH2 0x150C SWAP1 PUSH2 0x10A9 JUMP JUMPDEST SWAP2 PUSH2 0x125A JUMP JUMPDEST PUSH2 0x151C SWAP2 POP PUSH2 0x10A9 JUMP JUMPDEST PUSH2 0x150C JUMP JUMPDEST SWAP1 DUP1 SWAP3 SWAP4 SWAP5 SWAP7 POP PUSH2 0x1547 SWAP6 POP SWAP2 RETURNDATASIZE LT PUSH2 0x1551 JUMPI JUMPDEST PUSH2 0x153F DUP3 DUP6 PUSH2 0xE1B JUMP JUMPDEST ADD ADD SWAP1 PUSH2 0x105A JUMP JUMPDEST SWAP2 CODESIZE DUP1 DUP1 DUP1 PUSH2 0x14F7 JUMP JUMPDEST RETURNDATASIZE SWAP2 POP PUSH2 0x1535 JUMP JUMPDEST PUSH20 0xFFFD8963EFD1FC6A506488495D951D5263988D25 SWAP3 PUSH2 0x145D JUMP JUMPDEST SWAP1 POP PUSH1 0x0 DUP2 ISZERO PUSH2 0x15FB JUMPI POP PUSH1 0x40 DUP7 DUP2 ADD MLOAD DUP2 MLOAD PUSH4 0x70A08231 PUSH1 0xE0 SHL DUP2 MSTORE ADDRESS PUSH1 0x4 DUP3 ADD MSTORE SWAP1 DUP5 SWAP1 DUP3 SWAP1 PUSH1 0x24 SWAP1 DUP3 SWAP1 PUSH1 0x1 PUSH1 0x1 PUSH1 0xA0 SHL SUB AND GAS STATICCALL SWAP2 DUP3 ISZERO PUSH2 0x15F1 JUMPI POP PUSH1 0x0 SWAP2 PUSH2 0x15C4 JUMPI JUMPDEST POP JUMPDEST SWAP1 PUSH2 0x144F JUMP JUMPDEST SWAP1 DUP4 DUP3 DUP2 RETURNDATASIZE DUP4 GT PUSH2 0x15EA JUMPI JUMPDEST PUSH2 0x15DA DUP2 DUP4 PUSH2 0xE1B JUMP JUMPDEST DUP2 ADD SUB SLT PUSH2 0x236 JUMPI POP MLOAD CODESIZE PUSH2 0x15BC JUMP JUMPDEST POP RETURNDATASIZE PUSH2 0x15D0 JUMP JUMPDEST MLOAD RETURNDATASIZE PUSH1 0x0 DUP3 RETURNDATACOPY RETURNDATASIZE SWAP1 REVERT JUMPDEST PUSH1 0x60 DUP8 ADD MLOAD PUSH1 0x40 DUP1 MLOAD PUSH4 0x70A08231 PUSH1 0xE0 SHL DUP2 MSTORE ADDRESS PUSH1 0x4 DUP3 ADD MSTORE SWAP1 SWAP3 SWAP1 SWAP2 DUP6 SWAP1 DUP4 SWAP1 PUSH1 0x24 SWAP1 DUP3 SWAP1 PUSH1 0x1 PUSH1 0x1 PUSH1 0xA0 SHL SUB AND GAS STATICCALL SWAP3 DUP4 ISZERO PUSH2 0x1672 JUMPI POP DUP1 SWAP3 PUSH2 0x1642 JUMPI JUMPDEST POP POP PUSH2 0x15BE JUMP JUMPDEST SWAP1 SWAP2 POP DUP4 DUP3 DUP2 RETURNDATASIZE DUP4 GT PUSH2 0x166B JUMPI JUMPDEST PUSH2 0x165A DUP2 DUP4 PUSH2 0xE1B JUMP JUMPDEST DUP2 ADD SUB SLT PUSH2 0x236 JUMPI POP MLOAD CODESIZE DUP1 PUSH2 0x163B JUMP JUMPDEST POP RETURNDATASIZE PUSH2 0x1650 JUMP JUMPDEST MLOAD SWAP1 RETURNDATASIZE SWAP1 DUP3 RETURNDATACOPY RETURNDATASIZE SWAP1 REVERT JUMPDEST POP POP SWAP1 POP JUMP INVALID LOG2 PUSH5 0x6970667358 0x22 SLT KECCAK256 DUP7 EXTCODEHASH PUSH32 0x50169D71341CCFBF12F3DDBF13FBFF0965FA9B2394C0990745F7CB131764736F PUSH13 0x63430008180033000000000000 "},"methodIdentifiers":{"getAmountOut(uint256,uint256,uint256)":"054d50d4","owner()":"8da5cb5b","startFlashLoan((address,uint256,address,address),(address,uint256,address,address)[],uint256,uint256,bytes)":"f3443c98","uniswapV2Call(address,uint256,uint256,bytes)":"10d1e85c","uniswapV3SwapCallback(int256,int256,bytes)":"fa461e33","withdrawFunds()":"24600fc3"}}}}}