{
  "_format": "hh-sol-artifact-1",
  "contractName": "MyArb",
  "sourceName": "contracts/UniswapArb.sol",
  "abi": [
    {
      "inputs": [],
      "stateMutability": "nonpayable",
      "type": "constructor"
    },
    {
      "inputs": [
        {
          "internalType": "uint256",
          "name": "amountIn",
          "type": "uint256"
        },
        {
          "internalType": "uint256",
          "name": "reserveIn",
          "type": "uint256"
        },
        {
          "internalType": "uint256",
          "name": "reserveOut",
          "type": "uint256"
        }
      ],
      "name": "getAmountOut",
      "outputs": [
        {
          "internalType": "uint256",
          "name": "amountOut",
          "type": "uint256"
        }
      ],
      "stateMutability": "pure",
      "type": "function"
    },
    {
      "inputs": [],
      "name": "owner",
      "outputs": [
        {
          "internalType": "address",
          "name": "",
          "type": "address"
        }
      ],
      "stateMutability": "view",
      "type": "function"
    },
    {
      "inputs": [
        {
          "components": [
            {
              "internalType": "address",
              "name": "poolAddress",
              "type": "address"
            },
            {
              "internalType": "uint256",
              "name": "stepType",
              "type": "uint256"
            },
            {
              "internalType": "address",
              "name": "token0",
              "type": "address"
            },
            {
              "internalType": "address",
              "name": "token1",
              "type": "address"
            }
          ],
          "internalType": "struct MyArb.Step",
          "name": "initStep",
          "type": "tuple"
        },
        {
          "components": [
            {
              "internalType": "address",
              "name": "poolAddress",
              "type": "address"
            },
            {
              "internalType": "uint256",
              "name": "stepType",
              "type": "uint256"
            },
            {
              "internalType": "address",
              "name": "token0",
              "type": "address"
            },
            {
              "internalType": "address",
              "name": "token1",
              "type": "address"
            }
          ],
          "internalType": "struct MyArb.Step[]",
          "name": "steps",
          "type": "tuple[]"
        },
        {
          "internalType": "uint256",
          "name": "input",
          "type": "uint256"
        },
        {
          "internalType": "uint256",
          "name": "fees",
          "type": "uint256"
        },
        {
          "internalType": "bytes",
          "name": "endStepData",
          "type": "bytes"
        }
      ],
      "name": "startFlashLoan",
      "outputs": [],
      "stateMutability": "nonpayable",
      "type": "function"
    },
    {
      "inputs": [
        {
          "internalType": "address",
          "name": "sender",
          "type": "address"
        },
        {
          "internalType": "uint256",
          "name": "amount0",
          "type": "uint256"
        },
        {
          "internalType": "uint256",
          "name": "amount1",
          "type": "uint256"
        },
        {
          "internalType": "bytes",
          "name": "data",
          "type": "bytes"
        }
      ],
      "name": "uniswapV2Call",
      "outputs": [],
      "stateMutability": "nonpayable",
      "type": "function"
    },
    {
      "inputs": [
        {
          "internalType": "int256",
          "name": "amount0Delta",
          "type": "int256"
        },
        {
          "internalType": "int256",
          "name": "amount1Delta",
          "type": "int256"
        },
        {
          "internalType": "bytes",
          "name": "data",
          "type": "bytes"
        }
      ],
      "name": "uniswapV3SwapCallback",
      "outputs": [],
      "stateMutability": "nonpayable",
      "type": "function"
    },
    {
      "inputs": [],
      "name": "withdrawFunds",
      "outputs": [],
      "stateMutability": "nonpayable",
      "type": "function"
    },
    {
      "stateMutability": "payable",
      "type": "receive"
    }
  ],
  "bytecode": "0x6080806040523461002857600080546001600160a01b03191633179055611574908161002e8239f35b600080fdfe6080604052600436101561001b575b361561001957600080fd5b005b6000803560e01c8063054d50d414610b5c57806310d1e85c14610a7857806324600fc3146109fe5780638da5cb5b146109d7578063f3443c981461017f5763fa461e3314610069575061000e565b3461017c57606036600319011261017c576001600160401b03602435600435604435838111610178576100a0903690600401610b9d565b810191608082840312610174576100b682610b89565b916100c360208201610b89565b936040820135968715158803610170576060830135908111610170576100e99201610cd1565b6001600160a01b0395610134575b50858113610120575b505083821361010d578380f35b6101199233911661144f565b3880808380f35b61012d918533911661144f565b3880610100565b61014a8160208061016194518301019101610d2c565b878312156101675761015b83610efa565b90610f7f565b386100f7565b61015b86610efa565b8880fd5b8580fd5b8480fd5b80fd5b503461017c573660031901610100811261044b5760801361017c57608435906001600160401b0380831161044b573660238401121561044b5782600401359080821161045a573660248360071b8601011161045a5760e43590811161045a57836101ee84923690600401610b9d565b914792602435956040518093826040830160208085015252602460608301910192885b81811061097757505061022d925003601f198101845283610c93565b84906001871661086c57600460606001600160a01b0361024b610df6565b1660405192838092630240bc6b60e21b82525afa908115610861578790889261083e575b50969788976001600160701b0392831692169088906002161561082a57509061029a9160a435610bed565b6001600160a01b036102aa610df6565b16906102b4610e0c565b986102bd610e22565b604080516001600160a01b039c8d16602082015291909b169a81019a909a52608060608b015261030a8a6102f460a0820189610e38565b60a435608083015203601f1981018c528b610c93565b823b15610170579161034f99918980946040519c8d958694859363022c0d9f60e01b855260048501526024840152306044840152608060648401526084830190610e38565b03925af1801561064a57610814575b8596509493945b600160c435166104a3575b50506040516370a0823160e01b815230600482015273c02aaa39b223fe8d0a0e5c4f27ead9083c756cc292509050602081602481855afa90811561049857839161045e575b50813b1561045a578291602483926040519485938492632e1a7d4d60e01b845260048401525af1801561044f57610437575b5080808060c43560801c81811561042e575b4190f115610421576104179060c4356001600160801b031690610bca565b47111561017c5780f35b50604051903d90823e3d90fd5b506108fc6103f9565b61044090610c4f565b61044b5781836103e7565b5080fd5b6040513d84823e3d90fd5b8280fd5b9250506020823d602011610490575b8161047a60209383610c93565b8101031261048b57839151856103b5565b600080fd5b3d915061046d565b6040513d85823e3d90fd5b83608091810103126105ea57604051916104bc83610c78565b6104c584610b89565b83526020840135938460208501526104f160606104e460408401610b89565b9283604088015201610b89565b806060860152831561076c575b5050602083015160011661065557508151604051630240bc6b60e21b81526001600160a01b0392916060908290600490829087165afa90811561064a5786908792610617575b5086956001600160701b039283169291909116908690600216156105ee575082916105729161058494610bed565b9383806040830151169151169061144f565b61058c610df6565b1691823b156105ea576105ba9284928360405180968195829463022c0d9f60e01b8452309160048501610f55565b03925af1801561044f576105d6575b50505b8183808080610370565b6105df90610c4f565b61044b5781836105c9565b8380fd5b94955061060090839261061294610bed565b9483806060830151169151169061144f565b610584565b905061063b915060603d606011610643575b6106338183610c93565b810190610f1f565b509089610544565b503d610629565b6040513d88823e3d90fd5b9293506106da9260409250906002851615610752576401000276a45b876001600160a01b03610682610df6565b16926106b761068f610e0c565b6106a961069a610e22565b97895198899360208501610e78565b03601f198101875286610c93565b8551630251596160e31b81529687958694859360028c1615153060048701610ec1565b03925af19182156107475784918593610711575b5060021615610707575061070190610efa565b506105cc565b6107019150610efa565b6107389193506002925060403d604011610740575b6107308183610c93565b810190610eab565b9290916106ee565b503d610726565b6040513d86823e3d90fd5b73fffd8963efd1fc6a506488495d951d5263988d25610671565b91925060249160209190600287161561080457506001600160a01b03165b6040516370a0823160e01b815230600482015292839182906001600160a01b03165afa9081156107f95785916107c4575b509087806104fe565b9450506020843d6020116107f1575b816107e060209383610c93565b8101031261048b57859351876107bb565b3d91506107d3565b6040513d87823e3d90fd5b6001600160a01b0316905061078a565b9394909561082190610c4f565b9392859061035e565b98506108389160a435610bed565b9661029a565b9050610859915060603d606011610643576106338183610c93565b50908961026f565b6040513d89823e3d90fd5b9495939486949091506002811615610958576108f660406401000276a45b6001600160a01b0361089a610df6565b166108a3610e0c565b916108d06108af610e22565b936108c28a875196879360208501610e78565b03601f198101855284610c93565b898451809681958294630251596160e31b845260a43560028c1615153060048701610ec1565b03925af191821561064a5786918793610932575b5060021615610923575061091d90610efa565b90610365565b61092d9150610efa565b61091d565b6109509193506002925060403d604011610740576107308183610c93565b92909161090a565b6108f6604073fffd8963efd1fc6a506488495d951d5263988d2561088a565b9092509060019060809081906001600160a01b038061099589610b89565b16825260208801356020830152806109af60408a01610b89565b1660408301526109c160608901610b89565b1660608201520194019101918592939193610211565b503461017c578060031936011261017c57546040516001600160a01b039091168152602090f35b503461017c578060031936011261017c5780546001600160a01b031633819003610a4f5781808080934790828215610a46575bf115610a3a5780f35b604051903d90823e3d90fd5b506108fc610a31565b60405162461bcd60e51b81526020600482015260016024820152606f60f81b6044820152606490fd5b503461017c57608036600319011261017c576001600160a01b036004358181160361044b576001600160401b0360243560443560643583811161017457610ac3903690600401610b9d565b81019390608081860312610b5857610ada81610b89565b93610ae760208301610b89565b926040830135908111610170576060610b08610b1d98610b2d938601610cd1565b93013596836020808a96518301019101610d2c565b821580159390610b505790610f7f565b610b3c575b505061010d578380f35b610b49918633911661144f565b3883610b32565b508590610f7f565b8680fd5b503461017c57606036600319011261017c576020610b81604435602435600435610bed565b604051908152f35b35906001600160a01b038216820361048b57565b9181601f8401121561048b578235916001600160401b03831161048b576020838186019501011161048b57565b91908201809211610bd757565b634e487b7160e01b600052601160045260246000fd5b6103e580820291808304821481151715610bd757840202928184041481151715610bd7576103e891828102928184041490151715610bd757610c2e91610bca565b908115610c39570490565b634e487b7160e01b600052601260045260246000fd5b6001600160401b038111610c6257604052565b634e487b7160e01b600052604160045260246000fd5b608081019081106001600160401b03821117610c6257604052565b601f909101601f19168101906001600160401b03821190821017610c6257604052565b6001600160401b038111610c6257601f01601f191660200190565b81601f8201121561048b57803590610ce882610cb6565b92610cf66040519485610c93565b8284526020838301011161048b57816000926020809301838601378301015290565b51906001600160a01b038216820361048b57565b6020808284031261048b5781516001600160401b039283821161048b57019083601f8301121561048b578151928311610c625760409260405194610d75838360051b0187610c93565b818652828087019260071b8501019381851161048b578301915b848310610d9f5750505050505090565b60808383031261048b57836080918751610db881610c78565b610dc186610d18565b81528286015183820152610dd6898701610d18565b898201526060610de7818801610d18565b90820152815201920191610d8f565b6004356001600160a01b038116810361048b5790565b6044356001600160a01b038116810361048b5790565b6064356001600160a01b038116810361048b5790565b919082519283825260005b848110610e64575050826000602080949584010152601f8019910116010190565b602081830181015184830182015201610e43565b6001600160a01b0391821681529116602082015260016040820152608060608201819052610ea892910190610e38565b90565b919082604091031261048b576020825192015190565b6001600160a01b039182168152911515602083015260408201929092529116606082015260a060808201819052610ea892910190610e38565b600160ff1b8114610bd75760000390565b51906001600160701b038216820361048b57565b9081606091031261048b57610f3381610f0b565b916040610f4260208401610f0b565b92015163ffffffff8116810361048b5790565b9160a0939183526020830152600180841b0316604082015260806060820152600060808201520190565b919060005b835181101561144957602091828260051b86010151928084015191600160028416151593161560001461120f57845160408051630240bc6b60e21b8152909460049490926001600160a01b03926060929091839083908990829088165afa9182156111145760009081936111ec575b5060018060701b038091169216926000968b8891809860001461111f575050505084156110a4575b5061103b9161102a9185610bed565b9282878a015116838a51169061144f565b600096511691823b15610b58579184939187809461106e97519788958694859363022c0d9f60e01b855230928501610f55565b03925af190811561109b5750906001929161108c575b505b01610f84565b61109590610c4f565b38611084565b513d85823e3d90fd5b90935060248184898c0151168951928380926370a0823160e01b8252308c8301525afa918215611114576000926110e3575b509093905061103b61101b565b81819392933d831161110d575b6110fa8183610c93565b8101031261017c5750518161102a6110d6565b503d6110f0565b88513d6000823e3d90fd5b988388959297939996949a15611157575b5050506111529450906111439184610bed565b958a015116838a51169061144f565b61103b565b602494959193965082970151168b51938480926370a0823160e01b82528d30908301525afa9485156111e057908693929181966111a3575b508c95949150611143905061115289611130565b829450809291939596503d83116111d9575b6111bf8183610c93565b8101031261017c575051919083908061115261114361118f565b503d6111b5565b508951903d90823e3d90fd5b9050611206919250833d8511610643576106338183610c93565b50919038610ff3565b9395949390918115611341575b8015611326576401000276a4925b60018060a01b03928389511691600060409a868c8201511696606080920151168c519760a0948901528c880152860152608080860152600081860152845260c0948585019285841060018060401b03851117610c62578360008c94886112a8818597868a52630251596160e31b875260bf19948c3060c48501610ec1565b0301925af19384156111145760019596979860009485966112ee575b505050506000146112df57506112d990610efa565b91611086565b6112e99150610efa565b6112d9565b908092939496506113149550913d1061131e575b61130c8285610c93565b010190610eab565b91388080806112c4565b3d9150611302565b73fffd8963efd1fc6a506488495d951d5263988d259261122a565b9050600081156113c8575060408681015181516370a0823160e01b8152306004820152908490829060249082906001600160a01b03165afa9182156113be5750600091611391575b505b9061121c565b908382813d83116113b7575b6113a78183610c93565b8101031261017c57505138611389565b503d61139d565b513d6000823e3d90fd5b6060870151604080516370a0823160e01b8152306004820152909290918590839060249082906001600160a01b03165afa92831561143f5750809261140f575b505061138b565b9091508382813d8311611438575b6114278183610c93565b8101031261017c5750513880611408565b503d61141d565b51903d90823e3d90fd5b50509050565b60405163a9059cbb60e01b602082019081526001600160a01b0390931660248201526044808201949094529283529161148781610c78565b600092839283809351925af1903d15611536573d906114a582610cb6565b916114b36040519384610c93565b82523d81602084013e5b826114f5575b5050156114cc57565b60405162461bcd60e51b81526020600482015260016024820152600b60fb1b6044820152606490fd5b908092505191821592831561150f575b50505038806114c3565b81929350906020918101031261044b576020015190811515820361017c5750388080611505565b6060906114bd56fea2646970667358221220d2bc0fe695d02f579f4dd4cdcd1635fb8b5b2c4797095324383de24346cf0d1364736f6c63430008180033",
  "linkReferences": {},
  "deployedLinkReferences": {}
}