{
  "_format": "hh-sol-artifact-1",
  "contractName": "UniswapV3Pool",
  "sourceName": "contracts/v3/UniswapV3Pool.sol",
  "abi": [
    {
      "inputs": [
        {
          "internalType": "address",
          "name": "t0",
          "type": "address"
        },
        {
          "internalType": "address",
          "name": "t1",
          "type": "address"
        },
        {
          "internalType": "uint24",
          "name": "fee_",
          "type": "uint24"
        },
        {
          "internalType": "int24",
          "name": "tick_",
          "type": "int24"
        },
        {
          "internalType": "int24",
          "name": "tickSpace_",
          "type": "int24"
        },
        {
          "internalType": "uint160",
          "name": "sqrtPrice_",
          "type": "uint160"
        },
        {
          "internalType": "uint128",
          "name": "liquidity_",
          "type": "uint128"
        }
      ],
      "stateMutability": "nonpayable",
      "type": "constructor"
    },
    {
      "anonymous": false,
      "inputs": [
        {
          "indexed": true,
          "internalType": "address",
          "name": "owner",
          "type": "address"
        },
        {
          "indexed": true,
          "internalType": "int24",
          "name": "tickLower",
          "type": "int24"
        },
        {
          "indexed": true,
          "internalType": "int24",
          "name": "tickUpper",
          "type": "int24"
        },
        {
          "indexed": false,
          "internalType": "uint128",
          "name": "amount",
          "type": "uint128"
        },
        {
          "indexed": false,
          "internalType": "uint256",
          "name": "amount0",
          "type": "uint256"
        },
        {
          "indexed": false,
          "internalType": "uint256",
          "name": "amount1",
          "type": "uint256"
        }
      ],
      "name": "Burn",
      "type": "event"
    },
    {
      "anonymous": false,
      "inputs": [
        {
          "indexed": true,
          "internalType": "address",
          "name": "owner",
          "type": "address"
        },
        {
          "indexed": false,
          "internalType": "address",
          "name": "recipient",
          "type": "address"
        },
        {
          "indexed": true,
          "internalType": "int24",
          "name": "tickLower",
          "type": "int24"
        },
        {
          "indexed": true,
          "internalType": "int24",
          "name": "tickUpper",
          "type": "int24"
        },
        {
          "indexed": false,
          "internalType": "uint128",
          "name": "amount0",
          "type": "uint128"
        },
        {
          "indexed": false,
          "internalType": "uint128",
          "name": "amount1",
          "type": "uint128"
        }
      ],
      "name": "Collect",
      "type": "event"
    },
    {
      "anonymous": false,
      "inputs": [
        {
          "indexed": true,
          "internalType": "address",
          "name": "sender",
          "type": "address"
        },
        {
          "indexed": true,
          "internalType": "address",
          "name": "recipient",
          "type": "address"
        },
        {
          "indexed": false,
          "internalType": "uint128",
          "name": "amount0",
          "type": "uint128"
        },
        {
          "indexed": false,
          "internalType": "uint128",
          "name": "amount1",
          "type": "uint128"
        }
      ],
      "name": "CollectProtocol",
      "type": "event"
    },
    {
      "anonymous": false,
      "inputs": [
        {
          "indexed": true,
          "internalType": "address",
          "name": "sender",
          "type": "address"
        },
        {
          "indexed": true,
          "internalType": "address",
          "name": "recipient",
          "type": "address"
        },
        {
          "indexed": false,
          "internalType": "uint256",
          "name": "amount0",
          "type": "uint256"
        },
        {
          "indexed": false,
          "internalType": "uint256",
          "name": "amount1",
          "type": "uint256"
        },
        {
          "indexed": false,
          "internalType": "uint256",
          "name": "paid0",
          "type": "uint256"
        },
        {
          "indexed": false,
          "internalType": "uint256",
          "name": "paid1",
          "type": "uint256"
        }
      ],
      "name": "Flash",
      "type": "event"
    },
    {
      "anonymous": false,
      "inputs": [
        {
          "indexed": false,
          "internalType": "uint16",
          "name": "observationCardinalityNextOld",
          "type": "uint16"
        },
        {
          "indexed": false,
          "internalType": "uint16",
          "name": "observationCardinalityNextNew",
          "type": "uint16"
        }
      ],
      "name": "IncreaseObservationCardinalityNext",
      "type": "event"
    },
    {
      "anonymous": false,
      "inputs": [
        {
          "indexed": false,
          "internalType": "uint160",
          "name": "sqrtPriceX96",
          "type": "uint160"
        },
        {
          "indexed": false,
          "internalType": "int24",
          "name": "tick",
          "type": "int24"
        }
      ],
      "name": "Initialize",
      "type": "event"
    },
    {
      "anonymous": false,
      "inputs": [
        {
          "indexed": false,
          "internalType": "address",
          "name": "sender",
          "type": "address"
        },
        {
          "indexed": true,
          "internalType": "address",
          "name": "owner",
          "type": "address"
        },
        {
          "indexed": true,
          "internalType": "int24",
          "name": "tickLower",
          "type": "int24"
        },
        {
          "indexed": true,
          "internalType": "int24",
          "name": "tickUpper",
          "type": "int24"
        },
        {
          "indexed": false,
          "internalType": "uint128",
          "name": "amount",
          "type": "uint128"
        },
        {
          "indexed": false,
          "internalType": "uint256",
          "name": "amount0",
          "type": "uint256"
        },
        {
          "indexed": false,
          "internalType": "uint256",
          "name": "amount1",
          "type": "uint256"
        }
      ],
      "name": "Mint",
      "type": "event"
    },
    {
      "anonymous": false,
      "inputs": [
        {
          "indexed": false,
          "internalType": "uint8",
          "name": "feeProtocol0Old",
          "type": "uint8"
        },
        {
          "indexed": false,
          "internalType": "uint8",
          "name": "feeProtocol1Old",
          "type": "uint8"
        },
        {
          "indexed": false,
          "internalType": "uint8",
          "name": "feeProtocol0New",
          "type": "uint8"
        },
        {
          "indexed": false,
          "internalType": "uint8",
          "name": "feeProtocol1New",
          "type": "uint8"
        }
      ],
      "name": "SetFeeProtocol",
      "type": "event"
    },
    {
      "anonymous": false,
      "inputs": [
        {
          "indexed": true,
          "internalType": "address",
          "name": "sender",
          "type": "address"
        },
        {
          "indexed": true,
          "internalType": "address",
          "name": "recipient",
          "type": "address"
        },
        {
          "indexed": false,
          "internalType": "int256",
          "name": "amount0",
          "type": "int256"
        },
        {
          "indexed": false,
          "internalType": "int256",
          "name": "amount1",
          "type": "int256"
        },
        {
          "indexed": false,
          "internalType": "uint160",
          "name": "sqrtPriceX96",
          "type": "uint160"
        },
        {
          "indexed": false,
          "internalType": "uint128",
          "name": "liquidity",
          "type": "uint128"
        },
        {
          "indexed": false,
          "internalType": "int24",
          "name": "tick",
          "type": "int24"
        }
      ],
      "name": "Swap",
      "type": "event"
    },
    {
      "inputs": [
        {
          "internalType": "int24",
          "name": "tickLower",
          "type": "int24"
        },
        {
          "internalType": "int24",
          "name": "tickUpper",
          "type": "int24"
        },
        {
          "internalType": "uint128",
          "name": "amount",
          "type": "uint128"
        }
      ],
      "name": "burn",
      "outputs": [
        {
          "internalType": "uint256",
          "name": "amount0",
          "type": "uint256"
        },
        {
          "internalType": "uint256",
          "name": "amount1",
          "type": "uint256"
        }
      ],
      "stateMutability": "nonpayable",
      "type": "function"
    },
    {
      "inputs": [
        {
          "internalType": "address",
          "name": "recipient",
          "type": "address"
        },
        {
          "internalType": "int24",
          "name": "tickLower",
          "type": "int24"
        },
        {
          "internalType": "int24",
          "name": "tickUpper",
          "type": "int24"
        },
        {
          "internalType": "uint128",
          "name": "amount0Requested",
          "type": "uint128"
        },
        {
          "internalType": "uint128",
          "name": "amount1Requested",
          "type": "uint128"
        }
      ],
      "name": "collect",
      "outputs": [
        {
          "internalType": "uint128",
          "name": "amount0",
          "type": "uint128"
        },
        {
          "internalType": "uint128",
          "name": "amount1",
          "type": "uint128"
        }
      ],
      "stateMutability": "nonpayable",
      "type": "function"
    },
    {
      "inputs": [
        {
          "internalType": "address",
          "name": "recipient",
          "type": "address"
        },
        {
          "internalType": "uint128",
          "name": "amount0Requested",
          "type": "uint128"
        },
        {
          "internalType": "uint128",
          "name": "amount1Requested",
          "type": "uint128"
        }
      ],
      "name": "collectProtocol",
      "outputs": [
        {
          "internalType": "uint128",
          "name": "amount0",
          "type": "uint128"
        },
        {
          "internalType": "uint128",
          "name": "amount1",
          "type": "uint128"
        }
      ],
      "stateMutability": "nonpayable",
      "type": "function"
    },
    {
      "inputs": [],
      "name": "factory",
      "outputs": [
        {
          "internalType": "address",
          "name": "",
          "type": "address"
        }
      ],
      "stateMutability": "view",
      "type": "function"
    },
    {
      "inputs": [],
      "name": "fee",
      "outputs": [
        {
          "internalType": "uint24",
          "name": "",
          "type": "uint24"
        }
      ],
      "stateMutability": "view",
      "type": "function"
    },
    {
      "inputs": [],
      "name": "feeGrowthGlobal0X128",
      "outputs": [
        {
          "internalType": "uint256",
          "name": "",
          "type": "uint256"
        }
      ],
      "stateMutability": "view",
      "type": "function"
    },
    {
      "inputs": [],
      "name": "feeGrowthGlobal1X128",
      "outputs": [
        {
          "internalType": "uint256",
          "name": "",
          "type": "uint256"
        }
      ],
      "stateMutability": "view",
      "type": "function"
    },
    {
      "inputs": [
        {
          "internalType": "address",
          "name": "recipient",
          "type": "address"
        },
        {
          "internalType": "uint256",
          "name": "amount0",
          "type": "uint256"
        },
        {
          "internalType": "uint256",
          "name": "amount1",
          "type": "uint256"
        },
        {
          "internalType": "bytes",
          "name": "data",
          "type": "bytes"
        }
      ],
      "name": "flash",
      "outputs": [],
      "stateMutability": "nonpayable",
      "type": "function"
    },
    {
      "inputs": [
        {
          "internalType": "uint16",
          "name": "observationCardinalityNext",
          "type": "uint16"
        }
      ],
      "name": "increaseObservationCardinalityNext",
      "outputs": [],
      "stateMutability": "nonpayable",
      "type": "function"
    },
    {
      "inputs": [
        {
          "internalType": "uint160",
          "name": "sqrtPriceX96",
          "type": "uint160"
        }
      ],
      "name": "initialize",
      "outputs": [],
      "stateMutability": "nonpayable",
      "type": "function"
    },
    {
      "inputs": [],
      "name": "liquidity",
      "outputs": [
        {
          "internalType": "uint128",
          "name": "",
          "type": "uint128"
        }
      ],
      "stateMutability": "view",
      "type": "function"
    },
    {
      "inputs": [],
      "name": "maxLiquidityPerTick",
      "outputs": [
        {
          "internalType": "uint128",
          "name": "",
          "type": "uint128"
        }
      ],
      "stateMutability": "view",
      "type": "function"
    },
    {
      "inputs": [
        {
          "internalType": "address",
          "name": "recipient",
          "type": "address"
        },
        {
          "internalType": "int24",
          "name": "tickLower",
          "type": "int24"
        },
        {
          "internalType": "int24",
          "name": "tickUpper",
          "type": "int24"
        },
        {
          "internalType": "uint128",
          "name": "amount",
          "type": "uint128"
        },
        {
          "internalType": "bytes",
          "name": "data",
          "type": "bytes"
        }
      ],
      "name": "mint",
      "outputs": [
        {
          "internalType": "uint256",
          "name": "amount0",
          "type": "uint256"
        },
        {
          "internalType": "uint256",
          "name": "amount1",
          "type": "uint256"
        }
      ],
      "stateMutability": "nonpayable",
      "type": "function"
    },
    {
      "inputs": [
        {
          "internalType": "uint256",
          "name": "",
          "type": "uint256"
        }
      ],
      "name": "observations",
      "outputs": [
        {
          "internalType": "uint32",
          "name": "blockTimestamp",
          "type": "uint32"
        },
        {
          "internalType": "int56",
          "name": "tickCumulative",
          "type": "int56"
        },
        {
          "internalType": "uint160",
          "name": "secondsPerLiquidityCumulativeX128",
          "type": "uint160"
        },
        {
          "internalType": "bool",
          "name": "initialized",
          "type": "bool"
        }
      ],
      "stateMutability": "view",
      "type": "function"
    },
    {
      "inputs": [
        {
          "internalType": "uint32[]",
          "name": "secondsAgos",
          "type": "uint32[]"
        }
      ],
      "name": "observe",
      "outputs": [
        {
          "internalType": "int56[]",
          "name": "tickCumulatives",
          "type": "int56[]"
        },
        {
          "internalType": "uint160[]",
          "name": "secondsPerLiquidityCumulativeX128s",
          "type": "uint160[]"
        }
      ],
      "stateMutability": "view",
      "type": "function"
    },
    {
      "inputs": [
        {
          "internalType": "bytes32",
          "name": "",
          "type": "bytes32"
        }
      ],
      "name": "positions",
      "outputs": [
        {
          "internalType": "uint128",
          "name": "liquidity",
          "type": "uint128"
        },
        {
          "internalType": "uint256",
          "name": "feeGrowthInside0LastX128",
          "type": "uint256"
        },
        {
          "internalType": "uint256",
          "name": "feeGrowthInside1LastX128",
          "type": "uint256"
        },
        {
          "internalType": "uint128",
          "name": "tokensOwed0",
          "type": "uint128"
        },
        {
          "internalType": "uint128",
          "name": "tokensOwed1",
          "type": "uint128"
        }
      ],
      "stateMutability": "view",
      "type": "function"
    },
    {
      "inputs": [],
      "name": "protocolFees",
      "outputs": [
        {
          "internalType": "uint128",
          "name": "token0",
          "type": "uint128"
        },
        {
          "internalType": "uint128",
          "name": "token1",
          "type": "uint128"
        }
      ],
      "stateMutability": "view",
      "type": "function"
    },
    {
      "inputs": [
        {
          "internalType": "uint8",
          "name": "feeProtocol0",
          "type": "uint8"
        },
        {
          "internalType": "uint8",
          "name": "feeProtocol1",
          "type": "uint8"
        }
      ],
      "name": "setFeeProtocol",
      "outputs": [],
      "stateMutability": "nonpayable",
      "type": "function"
    },
    {
      "inputs": [
        {
          "internalType": "int24",
          "name": "tick_",
          "type": "int24"
        },
        {
          "internalType": "int128",
          "name": "liquidityNet_",
          "type": "int128"
        }
      ],
      "name": "setLiquidityNet",
      "outputs": [],
      "stateMutability": "nonpayable",
      "type": "function"
    },
    {
      "inputs": [],
      "name": "slot0",
      "outputs": [
        {
          "internalType": "uint160",
          "name": "sqrtPriceX96",
          "type": "uint160"
        },
        {
          "internalType": "int24",
          "name": "tick",
          "type": "int24"
        },
        {
          "internalType": "uint16",
          "name": "observationIndex",
          "type": "uint16"
        },
        {
          "internalType": "uint16",
          "name": "observationCardinality",
          "type": "uint16"
        },
        {
          "internalType": "uint16",
          "name": "observationCardinalityNext",
          "type": "uint16"
        },
        {
          "internalType": "uint8",
          "name": "feeProtocol",
          "type": "uint8"
        },
        {
          "internalType": "bool",
          "name": "unlocked",
          "type": "bool"
        }
      ],
      "stateMutability": "view",
      "type": "function"
    },
    {
      "inputs": [
        {
          "internalType": "int24",
          "name": "tickLower",
          "type": "int24"
        },
        {
          "internalType": "int24",
          "name": "tickUpper",
          "type": "int24"
        }
      ],
      "name": "snapshotCumulativesInside",
      "outputs": [
        {
          "internalType": "int56",
          "name": "tickCumulativeInside",
          "type": "int56"
        },
        {
          "internalType": "uint160",
          "name": "secondsPerLiquidityInsideX128",
          "type": "uint160"
        },
        {
          "internalType": "uint32",
          "name": "secondsInside",
          "type": "uint32"
        }
      ],
      "stateMutability": "view",
      "type": "function"
    },
    {
      "inputs": [
        {
          "internalType": "address",
          "name": "recipient",
          "type": "address"
        },
        {
          "internalType": "bool",
          "name": "zeroForOne",
          "type": "bool"
        },
        {
          "internalType": "int256",
          "name": "amountSpecified",
          "type": "int256"
        },
        {
          "internalType": "uint160",
          "name": "sqrtPriceLimitX96",
          "type": "uint160"
        },
        {
          "internalType": "bytes",
          "name": "data",
          "type": "bytes"
        }
      ],
      "name": "swap",
      "outputs": [
        {
          "internalType": "int256",
          "name": "amount0",
          "type": "int256"
        },
        {
          "internalType": "int256",
          "name": "amount1",
          "type": "int256"
        }
      ],
      "stateMutability": "nonpayable",
      "type": "function"
    },
    {
      "inputs": [
        {
          "internalType": "int16",
          "name": "",
          "type": "int16"
        }
      ],
      "name": "tickBitmap",
      "outputs": [
        {
          "internalType": "uint256",
          "name": "",
          "type": "uint256"
        }
      ],
      "stateMutability": "view",
      "type": "function"
    },
    {
      "inputs": [],
      "name": "tickSpacing",
      "outputs": [
        {
          "internalType": "int24",
          "name": "",
          "type": "int24"
        }
      ],
      "stateMutability": "view",
      "type": "function"
    },
    {
      "inputs": [
        {
          "internalType": "int24",
          "name": "",
          "type": "int24"
        }
      ],
      "name": "ticks",
      "outputs": [
        {
          "internalType": "uint128",
          "name": "liquidityGross",
          "type": "uint128"
        },
        {
          "internalType": "int128",
          "name": "liquidityNet",
          "type": "int128"
        },
        {
          "internalType": "uint256",
          "name": "feeGrowthOutside0X128",
          "type": "uint256"
        },
        {
          "internalType": "uint256",
          "name": "feeGrowthOutside1X128",
          "type": "uint256"
        },
        {
          "internalType": "int56",
          "name": "tickCumulativeOutside",
          "type": "int56"
        },
        {
          "internalType": "uint160",
          "name": "secondsPerLiquidityOutsideX128",
          "type": "uint160"
        },
        {
          "internalType": "uint32",
          "name": "secondsOutside",
          "type": "uint32"
        },
        {
          "internalType": "bool",
          "name": "initialized",
          "type": "bool"
        }
      ],
      "stateMutability": "view",
      "type": "function"
    },
    {
      "inputs": [],
      "name": "token0",
      "outputs": [
        {
          "internalType": "address",
          "name": "",
          "type": "address"
        }
      ],
      "stateMutability": "view",
      "type": "function"
    },
    {
      "inputs": [],
      "name": "token1",
      "outputs": [
        {
          "internalType": "address",
          "name": "",
          "type": "address"
        }
      ],
      "stateMutability": "view",
      "type": "function"
    }
  ],
  "bytecode": "0x6101606040523480156200001257600080fd5b5060405162005cef38038062005cef833981810160405260e08110156200003857600080fd5b508051602080830151604084015160608086015160808088015160a089015160c0909901513090941b909152600281810b900b60e890811b6101205284901b6001600160e81b03191661010052600480546001600160801b0319166001600160801b03851617905595969395929490939190620000c0908490620001ec811b62002b3717901c565b60801b6001600160801b03191661014052600060a0819052606088811b6001600160601b031990811660c0529088901b1660e0528062000119620001036200025a565b60086200025e60201b62002ba31790919060201c565b6040805160e0810182526001600160a01b03979097168088526002998a0b60208901819052600092890183905261ffff94851660608a01819052939094166080890181905260a08901839052600160c0909901989098528154600160f01b6001600160a01b031990911690911762ffffff60a01b1916600160a01b62ffffff95909b0b94909416999099029290921763ffffffff60b81b1916600160c81b9091021761ffff60d81b1916600160d81b9095029490941761ffff60e81b19169590951790925550620002aa95505050505050565b60008082600281900b620d89e719816200020257fe5b05029050600083600281900b620d89e8816200021a57fe5b0502905060008460020b83830360020b816200023257fe5b0560010190508062ffffff166001600160801b038016816200025057fe5b0495945050505050565b4290565b6040805160808101825263ffffffff9283168082526000602083018190529282019290925260016060909101819052835463ffffffff1916909117909116600160f81b17909155908190565b60805160601c60a05160601c60c05160601c60e05160601c6101005160e81c6101205160e81c6101405160801c6159736200037c60003980611f8f5280614ddf5280614e16525080610bbc52806128c952806128f35280614e4a5280614e7c525080610cab528061196c52806119a3528061293b5250806111695280611a265280611e9552806123ca52806129175280613ec252508061088e528061129752806119f55280611e2f52806123445280613d7952508061201c52806122035280612857525080612bfa52506159736000f3fe608060405234801561001057600080fd5b50600436106101495760003560e01c80630dfe16811461014e578063128acb08146101725780631a6865021461021f5780631ad8b03b14610243578063252c09d71461027a57806332148f67146102d15780633850c7bd146102f45780633c8a7d8d1461034d57806346141319146103ed578063490e6cbc146104075780634f1eb3d814610491578063514ea4bf146104e25780635339c2961461053b57806370cf754a1461055b5780638206a4d11461056357806385b667291461058b578063883bdbfd146105c8578063a34123a7146106cf578063a38807f214610709578063c45a015514610764578063c6b5e3af1461076c578063d0c93a7c14610795578063d21220a7146107b4578063ddca3f43146107bc578063f3058399146107dc578063f30dba93146107e4578063f637731d14610866575b600080fd5b61015661088c565b604080516001600160a01b039092168252519081900360200190f35b610206600480360360a081101561018857600080fd5b6001600160a01b0382358116926020810135151592604082013592606083013516919081019060a081016080820135600160201b8111156101c857600080fd5b8201836020820111156101da57600080fd5b803590602001918460018302840111600160201b831117156101fb57600080fd5b5090925090506108b0565b6040805192835260208301919091528051918290030190f35b61022761144f565b604080516001600160801b039092168252519081900360200190f35b61024b61145e565b60405180836001600160801b03168152602001826001600160801b031681526020019250505060405180910390f35b6102976004803603602081101561029057600080fd5b5035611478565b6040805163ffffffff909516855260069390930b60208501526001600160a01b039091168383015215156060830152519081900360800190f35b6102f2600480360360208110156102e757600080fd5b503561ffff166114bd565b005b6102fc6115b7565b604080516001600160a01b03909816885260029690960b602088015261ffff9485168787015292841660608701529216608085015260ff90911660a0840152151560c0830152519081900360e00190f35b610206600480360360a081101561036357600080fd5b6001600160a01b03823516916020810135600290810b92604083013590910b916001600160801b036060820135169181019060a081016080820135600160201b8111156103af57600080fd5b8201836020820111156103c157600080fd5b803590602001918460018302840111600160201b831117156103e257600080fd5b509092509050611607565b6103f56118c3565b60408051918252519081900360200190f35b6102f26004803603608081101561041d57600080fd5b6001600160a01b038235169160208101359160408201359190810190608081016060820135600160201b81111561045357600080fd5b82018360208201111561046557600080fd5b803590602001918460018302840111600160201b8311171561048657600080fd5b5090925090506118c9565b61024b600480360360a08110156104a757600080fd5b506001600160a01b03813516906020810135600290810b91604081013590910b906001600160801b0360608201358116916080013516611d24565b6104ff600480360360208110156104f857600080fd5b5035611f3e565b604080516001600160801b0396871681526020810195909552848101939093529084166060840152909216608082015290519081900360a00190f35b6103f56004803603602081101561055157600080fd5b503560010b611f7b565b610227611f8d565b6102f26004803603604081101561057957600080fd5b5060ff81358116916020013516611fb1565b61024b600480360360608110156105a157600080fd5b506001600160a01b03813516906001600160801b0360208201358116916040013516612195565b610636600480360360208110156105de57600080fd5b810190602081018135600160201b8111156105f857600080fd5b82018360208201111561060a57600080fd5b803590602001918460208302840111600160201b8311171561062b57600080fd5b509092509050612462565b604051808060200180602001838103835285818151815260200191508051906020019060200280838360005b8381101561067a578181015183820152602001610662565b50505050905001838103825284818151815260200191508051906020019060200280838360005b838110156106b95781810151838201526020016106a1565b5050505090500194505050505060405180910390f35b610206600480360360608110156106e557600080fd5b508035600290810b91602081013590910b90604001356001600160801b03166124ef565b6107336004803603604081101561071f57600080fd5b508035600290810b9160200135900b612666565b6040805160069490940b84526001600160a01b03909216602084015263ffffffff1682820152519081900360600190f35b610156612855565b6102f26004803603604081101561078257600080fd5b50803560020b9060200135600f0b612879565b61079d6128f1565b6040805160029290920b8252519081900360200190f35b610156612915565b6107c4612939565b6040805162ffffff9092168252519081900360200190f35b6103f561295d565b610804600480360360208110156107fa57600080fd5b503560020b612963565b604080516001600160801b039099168952600f9790970b602089015287870195909552606087019390935260069190910b60808601526001600160a01b031660a085015263ffffffff1660c0840152151560e083015251908190036101000190f35b6102f26004803603602081101561087c57600080fd5b50356001600160a01b03166129cd565b7f000000000000000000000000000000000000000000000000000000000000000081565b6000806108bb612bef565b856108f2576040805162461bcd60e51b8152602060048201526002602482015261415360f01b604482015290519081900360640190fd5b6040805160e0810182526000546001600160a01b0381168252600160a01b8104600290810b810b900b602083015261ffff600160b81b8204811693830193909352600160c81b810483166060830152600160d81b8104909216608082015260ff600160e81b8304811660a0830152600160f01b909204909116151560c082018190526109ab576040805162461bcd60e51b81526020600482015260036024820152624c4f4b60e81b604482015290519081900360640190fd5b876109f65780600001516001600160a01b0316866001600160a01b03161180156109f1575073fffd8963efd1fc6a506488495d951d5263988d266001600160a01b038716105b610a28565b80600001516001600160a01b0316866001600160a01b0316108015610a2857506401000276a36001600160a01b038716115b610a5f576040805162461bcd60e51b815260206004820152600360248201526214d41360ea1b604482015290519081900360640190fd5b6000805460ff60f01b191681556040805160c08101909152808a610a8e5760048460a0015160ff16901c610aa1565b60108460a0015160ff1681610a9f57fe5b065b60ff1681526004546001600160801b03166020820152604001610ac2612c26565b63ffffffff168152602001600060060b815260200160006001600160a01b031681526020016000151581525090506000808913905060006040518060e001604052808b81526020016000815260200185600001516001600160a01b03168152602001856020015160020b81526020018c610b3e57600254610b42565b6001545b815260200160006001600160801b0316815260200184602001516001600160801b031681525090505b805115801590610b915750886001600160a01b031681604001516001600160a01b031614155b15610f5b57610b9e6158da565b60408201516001600160a01b031681526060820151610be1906006907f00000000000000000000000000000000000000000000000000000000000000008f612c2a565b15156040830152600290810b810b60208301819052620d89e719910b1215610c1257620d89e7196020820152610c31565b6020810151620d89e860029190910b1315610c3157620d89e860208201525b610c3e8160200151612d6c565b6001600160a01b031660608201526040820151610ccf908d610c78578b6001600160a01b031683606001516001600160a01b031611610c92565b8b6001600160a01b031683606001516001600160a01b0316105b610ca0578260600151610ca2565b8b5b60c085015185517f0000000000000000000000000000000000000000000000000000000000000000613093565b60c085015260a084015260808301526001600160a01b031660408301528215610d3157610d058160c00151826080015101613373565b825103825260a0810151610d2790610d1c90613373565b602084015190613389565b6020830152610d6c565b610d3e8160a00151613373565b825101825260c08101516080820151610d6691610d5b9101613373565b6020840151906133a5565b60208301525b835160ff1615610db2576000846000015160ff168260c0015181610d8c57fe5b60c0840180519290910491829003905260a0840180519091016001600160801b03169052505b60c08201516001600160801b031615610df157610de58160c00151600160801b8460c001516001600160801b03166133bb565b60808301805190910190525b80606001516001600160a01b031682604001516001600160a01b03161415610f1a57806040015115610ef1578360a00151610e7b57610e59846040015160008760200151886040015188602001518a60600151600861346b909695949392919063ffffffff16565b6001600160a01b03166080860152600690810b900b6060850152600160a08501525b6000610ec782602001518e610e9257600154610e98565b84608001515b8f610ea7578560800151610eab565b6002545b608089015160608a015160408b015160059594939291906135fd565b90508c15610ed3576000035b610ee18360c00151826136b7565b6001600160801b031660c0840152505b8b610f00578060200151610f09565b60018160200151035b600290810b900b6060830152610f55565b80600001516001600160a01b031682604001516001600160a01b031614610f5557610f48826040015161376d565b600290810b900b60608301525b50610b6b565b836020015160020b816060015160020b1461102957600080610fa986604001518660400151886020015188602001518a606001518b608001516008613a58909695949392919063ffffffff16565b604085015160608601516000805461ffff60c81b1916600160c81b61ffff958616021761ffff60b81b1916600160b81b95909416949094029290921762ffffff60a01b1916600160a01b62ffffff60029490940b9390931692909202919091176001600160a01b0319166001600160a01b039091161790555061104e9050565b6040810151600080546001600160a01b0319166001600160a01b039092169190911790555b8060c001516001600160801b031683602001516001600160801b0316146110945760c0810151600480546001600160801b0319166001600160801b039092169190911790555b8a156110e457608081015160015560a08101516001600160801b0316156110df5760a0810151600380546001600160801b031981166001600160801b03918216909301169190911790555b61112a565b608081015160025560a08101516001600160801b03161561112a5760a0810151600380546001600160801b03808216600160801b92839004821690940116029190911790555b8115158b15151461114357602081015181518b03611150565b80600001518a0381602001515b90965094508a15611289576000851215611192576111927f00000000000000000000000000000000000000000000000000000000000000008d87600003613bdd565b600061119c613d2b565b9050336001600160a01b031663fa461e3388888c8c6040518563ffffffff1660e01b815260040180858152602001848152602001806020018281038252848482818152602001925080828437600081840152601f19601f82011690508083019250505095505050505050600060405180830381600087803b15801561122057600080fd5b505af1158015611234573d6000803e3d6000fd5b50505050611240613d2b565b61124a8289613e64565b1115611283576040805162461bcd60e51b815260206004820152600360248201526249494160e81b604482015290519081900360640190fd5b506113b3565b60008612156112c0576112c07f00000000000000000000000000000000000000000000000000000000000000008d88600003613bdd565b60006112ca613e74565b9050336001600160a01b031663fa461e3388888c8c6040518563ffffffff1660e01b815260040180858152602001848152602001806020018281038252848482818152602001925080828437600081840152601f19601f82011690508083019250505095505050505050600060405180830381600087803b15801561134e57600080fd5b505af1158015611362573d6000803e3d6000fd5b5050505061136e613e74565b6113788288613e64565b11156113b1576040805162461bcd60e51b815260206004820152600360248201526249494160e81b604482015290519081900360640190fd5b505b60408082015160c083015160608085015184518b8152602081018b90526001600160a01b03948516818701526001600160801b039093169183019190915260020b60808201529151908e169133917fc42079f94a6350d7e6235f29174924f928cc2ac818eb64fed8004e115fbcca679181900360a00190a350506000805460ff60f01b1916600160f01b17905550919890975095505050505050565b6004546001600160801b031681565b6003546001600160801b0380821691600160801b90041682565b60088161ffff811061148957600080fd5b015463ffffffff81169150600160201b810460060b90600160581b81046001600160a01b031690600160f81b900460ff1684565b600054600160f01b900460ff16611501576040805162461bcd60e51b81526020600482015260036024820152624c4f4b60e81b604482015290519081900360640190fd5b6000805460ff60f01b19169055611516612bef565b60008054600160d81b900461ffff169061153260088385613f0c565b6000805461ffff808416600160d81b810261ffff60d81b199093169290921790925591925083161461159f576040805161ffff80851682528316602082015281517fac49e518f90a358f652e4400164f05a5d8f7e35e7747279bc3a93dbf584e125a929181900390910190a15b50506000805460ff60f01b1916600160f01b17905550565b6000546001600160a01b03811690600160a01b810460020b9061ffff600160b81b8204811691600160c81b8104821691600160d81b8204169060ff600160e81b8204811691600160f01b90041687565b600080548190600160f01b900460ff1661164e576040805162461bcd60e51b81526020600482015260036024820152624c4f4b60e81b604482015290519081900360640190fd5b6000805460ff60f01b191690556001600160801b03851661166e57600080fd5b6000806116bc60405180608001604052808c6001600160a01b031681526020018b60020b81526020018a60020b81526020016116b28a6001600160801b0316613faf565b600f0b9052613fc0565b925092505081935080925060008060008611156116de576116db613d2b565b91505b84156116ef576116ec613e74565b90505b336001600160a01b031663d348799787878b8b6040518563ffffffff1660e01b815260040180858152602001848152602001806020018281038252848482818152602001925080828437600081840152601f19601f82011690508083019250505095505050505050600060405180830381600087803b15801561177157600080fd5b505af1158015611785573d6000803e3d6000fd5b5050505060008611156117dc5761179a613d2b565b6117a48388613e64565b11156117dc576040805162461bcd60e51b815260206004820152600260248201526104d360f41b604482015290519081900360640190fd5b841561182c576117ea613e74565b6117f48287613e64565b111561182c576040805162461bcd60e51b81526020600482015260026024820152614d3160f01b604482015290519081900360640190fd5b8960020b8b60020b8d6001600160a01b03167f7a53080ba414158be7ec69b987b5fb7d07dee101fe85488f0853ae16239d0bde338d8b8b60405180856001600160a01b03168152602001846001600160801b0316815260200183815260200182815260200194505050505060405180910390a450506000805460ff60f01b1916600160f01b17905550919890975095505050505050565b60025481565b600054600160f01b900460ff1661190d576040805162461bcd60e51b81526020600482015260036024820152624c4f4b60e81b604482015290519081900360640190fd5b6000805460ff60f01b19169055611922612bef565b6004546001600160801b031680611964576040805162461bcd60e51b81526020600482015260016024820152601360fa1b604482015290519081900360640190fd5b6000611999867f000000000000000000000000000000000000000000000000000000000000000062ffffff16620f4240614200565b905060006119d0867f000000000000000000000000000000000000000000000000000000000000000062ffffff16620f4240614200565b905060006119dc613d2b565b905060006119e8613e74565b90508815611a1b57611a1b7f00000000000000000000000000000000000000000000000000000000000000008b8b613bdd565b8715611a4c57611a4c7f00000000000000000000000000000000000000000000000000000000000000008b8a613bdd565b336001600160a01b031663e9cbafb085858a8a6040518563ffffffff1660e01b815260040180858152602001848152602001806020018281038252848482818152602001925080828437600081840152601f19601f82011690508083019250505095505050505050600060405180830381600087803b158015611ace57600080fd5b505af1158015611ae2573d6000803e3d6000fd5b505050506000611af0613d2b565b90506000611afc613e74565b905081611b098588613e64565b1115611b41576040805162461bcd60e51b8152602060048201526002602482015261046360f41b604482015290519081900360640190fd5b80611b4c8487613e64565b1115611b84576040805162461bcd60e51b8152602060048201526002602482015261463160f01b604482015290519081900360640190fd5b8382038382038115611c135760008054600160e81b9004600f16908115611bb7578160ff168481611bb157fe5b04611bba565b60005b90506001600160801b03811615611bed57600380546001600160801b038082168401166001600160801b03199091161790555b611c07818503600160801b8d6001600160801b03166133bb565b60018054909101905550505b8015611c9e5760008054600160e81b900460041c600f16908115611c43578160ff168381611c3d57fe5b04611c46565b60005b90506001600160801b03811615611c7857600380546001600160801b03600160801b8083048216850182160291161790555b611c92818403600160801b8d6001600160801b03166133bb565b60028054909101905550505b8d6001600160a01b0316336001600160a01b03167fbdbdb71d7860376ba52b25a5028beea23581364a40522f6bcfb86bb1f2dca6338f8f86866040518085815260200184815260200183815260200182815260200194505050505060405180910390a350506000805460ff60f01b1916600160f01b179055505050505050505050505050565b600080548190600160f01b900460ff16611d6b576040805162461bcd60e51b81526020600482015260036024820152624c4f4b60e81b604482015290519081900360640190fd5b6000805460ff60f01b19168155611d85600733898961423a565b60038101549091506001600160801b0390811690861611611da65784611db5565b60038101546001600160801b03165b60038201549093506001600160801b03600160801b909104811690851611611ddd5783611df3565b6003810154600160801b90046001600160801b03165b91506001600160801b03831615611e58576003810180546001600160801b031981166001600160801b03918216869003821617909155611e58907f0000000000000000000000000000000000000000000000000000000000000000908a908616613bdd565b6001600160801b03821615611ebe576003810180546001600160801b03600160801b808304821686900382160291811691909117909155611ebe907f0000000000000000000000000000000000000000000000000000000000000000908a908516613bdd565b604080516001600160a01b038a1681526001600160801b0380861660208301528416818301529051600288810b92908a900b9133917f70935338e69775456a85ddef226c395fb668b63fa0115f5f20610b388e6ca9c0919081900360600190a4506000805460ff60f01b1916600160f01b17905590969095509350505050565b60076020526000908152604090208054600182015460028301546003909301546001600160801b0392831693919281811691600160801b90041685565b60066020526000908152604090205481565b7f000000000000000000000000000000000000000000000000000000000000000081565b600054600160f01b900460ff16611ff5576040805162461bcd60e51b81526020600482015260036024820152624c4f4b60e81b604482015290519081900360640190fd5b6000805460ff60f01b1916905560408051638da5cb5b60e01b815290516001600160a01b037f00000000000000000000000000000000000000000000000000000000000000001691638da5cb5b916004808301926020929190829003018186803b15801561206257600080fd5b505afa158015612076573d6000803e3d6000fd5b505050506040513d602081101561208c57600080fd5b50516001600160a01b031633146120a257600080fd5b60ff821615806120c5575060048260ff16101580156120c55750600a8260ff1611155b80156120ef575060ff811615806120ef575060048160ff16101580156120ef5750600a8160ff1611155b6120f857600080fd5b60008054610ff0600484901b16840160ff908116600160e81b90810260ff60e81b19841617909355919004167f973d8d92bb299f4af6ce49b52a8adb85ae46b9f214c4c4fc06ac77401237b1336010826040805160ff9390920683168252600f600486901c16602083015286831682820152918516606082015290519081900360800190a150506000805460ff60f01b1916600160f01b17905550565b600080548190600160f01b900460ff166121dc576040805162461bcd60e51b81526020600482015260036024820152624c4f4b60e81b604482015290519081900360640190fd5b6000805460ff60f01b1916905560408051638da5cb5b60e01b815290516001600160a01b037f00000000000000000000000000000000000000000000000000000000000000001691638da5cb5b916004808301926020929190829003018186803b15801561224957600080fd5b505afa15801561225d573d6000803e3d6000fd5b505050506040513d602081101561227357600080fd5b50516001600160a01b0316331461228957600080fd5b6003546001600160801b03908116908516116122a557836122b2565b6003546001600160801b03165b6003549092506001600160801b03600160801b9091048116908416116122d857826122ec565b600354600160801b90046001600160801b03165b90506001600160801b0382161561236d576003546001600160801b038381169116141561231b57600019909101905b600380546001600160801b031981166001600160801b0391821685900382161790915561236d907f00000000000000000000000000000000000000000000000000000000000000009087908516613bdd565b6001600160801b038116156123f3576003546001600160801b03828116600160801b90920416141561239e57600019015b600380546001600160801b03600160801b8083048216859003821602918116919091179091556123f3907f00000000000000000000000000000000000000000000000000000000000000009087908416613bdd565b604080516001600160801b0380851682528316602082015281516001600160a01b0388169233927f596b573906218d3411850b26a6b437d6c4522fdb43d2d2386263f86d50b8b151929081900390910190a36000805460ff60f01b1916600160f01b1790559094909350915050565b60608061246d612bef565b6124e4612478612c26565b858580806020026020016040519081016040528093929190818152602001838360200280828437600092018290525054600454600896959450600160a01b820460020b935061ffff600160b81b8304811693506001600160801b0390911691600160c81b900416614299565b915091509250929050565b600080548190600160f01b900460ff16612536576040805162461bcd60e51b81526020600482015260036024820152624c4f4b60e81b604482015290519081900360640190fd5b6000805460ff60f01b1916815560408051608081018252338152600288810b602083015287900b918101919091528190819061258f90606081016125826001600160801b038a16613faf565b600003600f0b9052613fc0565b92509250925081600003945080600003935060008511806125b05750600084115b156125ef576003830180546001600160801b038082168089018216600160801b93849004831689019092169092029091176001600160801b0319161790555b604080516001600160801b0388168152602081018790528082018690529051600289810b92908b900b9133917f0c396cd989a39f4459b5fa1aed6a9a8dcdbc45908acfd67e028cd568da98982c919081900360600190a450506000805460ff60f01b1916600160f01b179055509094909350915050565b6000806000612673612bef565b61267d85856143f1565b600285810b810b60009081526005602052604080822087840b90930b825281206003830154600681900b93600160381b82046001600160a01b0316928492600160d81b810463ffffffff169284929091600160f81b900460ff16806126e157600080fd5b6003820154600681900b9850600160381b81046001600160a01b03169650600160d81b810463ffffffff169450600160f81b900460ff168061272257600080fd5b50506040805160e0810182526000546001600160a01b0381168252600160a01b8104600290810b810b810b6020840181905261ffff600160b81b8404811695850195909552600160c81b830485166060850152600160d81b8304909416608084015260ff600160e81b8304811660a0850152600160f01b909204909116151560c08301529093508e810b91900b121590506127cb5750939094039650900393509003905061284e565b8a60020b816020015160020b121561283f5760006127e7612c26565b602083015160408401516004546060860151939450600093849361281d936008938893879392916001600160801b03169061346b565b9a9003989098039b50509490960392909203965090910303925061284e915050565b50949093039650039350900390505b9250925092565b7f000000000000000000000000000000000000000000000000000000000000000081565b600282810b900b60009081526005602052604090208054600f83900b6001600160801b03908116600160801b02911617815560030180546001600160f81b0316600160f81b1790556128ed6006837f00000000000000000000000000000000000000000000000000000000000000006144b6565b5050565b7f000000000000000000000000000000000000000000000000000000000000000081565b7f000000000000000000000000000000000000000000000000000000000000000081565b7f000000000000000000000000000000000000000000000000000000000000000081565b60015481565b60056020526000908152604090208054600182015460028301546003909301546001600160801b03831693600160801b909304600f0b9290600681900b90600160381b81046001600160a01b031690600160d81b810463ffffffff1690600160f81b900460ff1688565b6000546001600160a01b031615612a10576040805162461bcd60e51b8152602060048201526002602482015261414960f01b604482015290519081900360640190fd5b6000612a1b8261376d565b9050600080612a33612a2b612c26565b600890612ba3565b6040805160e0810182526001600160a01b038816808252600288810b6020808501829052600085870181905261ffff898116606088018190529089166080880181905260a08801839052600160c0909801979097528154600160f01b6001600160a01b0319909116871762ffffff60a01b1916600160a01b62ffffff9787900b97909716969096029590951763ffffffff60b81b1916600160c81b9091021761ffff60d81b1916600160d81b9096029590951761ffff60e81b191692909217909355835191825281019190915281519395509193507f98636036cb66a9c19a37435efc1e90142190214e8abeb821bdba3f2990dd4c9592918290030190a150505050565b60008082600281900b620d89e71981612b4c57fe5b05029050600083600281900b620d89e881612b6357fe5b0502905060008460020b83830360020b81612b7a57fe5b0560010190508062ffffff166001600160801b03801681612b9757fe5b0493505050505b919050565b6040805160808101825263ffffffff9283168082526000602083018190529282019290925260016060909101819052835463ffffffff1916909117909116600160f81b17909155908190565b306001600160a01b037f00000000000000000000000000000000000000000000000000000000000000001614612c2457600080fd5b565b4290565b60008060008460020b8660020b81612c3e57fe5b05905060008660020b128015612c6557508460020b8660020b81612c5e57fe5b0760020b15155b15612c6f57600019015b8315612ce457600080612c818361451c565b600182810b810b600090815260208d9052604090205460ff83169190911b80016000190190811680151597509294509092509085612cc657888360ff16860302612cd9565b88612cd08261452e565b840360ff168603025b965050505050612d62565b600080612cf38360010161451c565b91509150600060018260ff166001901b031990506000818b60008660010b60010b8152602001908152602001600020541690508060001415955085612d4557888360ff0360ff16866001010102612d5b565b8883612d50836145c8565b0360ff168660010101025b9650505050505b5094509492505050565b60008060008360020b12612d83578260020b612d8b565b8260020b6000035b9050620d89e8811115612dc9576040805162461bcd60e51b81526020600482015260016024820152601560fa1b604482015290519081900360640190fd5b600060018216612ddd57600160801b612def565b6ffffcb933bd6fad37aa2d162d1a5940015b6001600160881b031690506002821615612e19576ffff97272373d413259a46990580e213a0260801c5b6004821615612e38576ffff2e50f5f656932ef12357cf3c7fdcc0260801c5b6008821615612e57576fffe5caca7e10e4e61c3624eaa0941cd00260801c5b6010821615612e76576fffcb9843d60f6159c9db58835c9266440260801c5b6020821615612e95576fff973b41fa98c081472e6896dfb254c00260801c5b6040821615612eb4576fff2ea16466c96a3843ec78b326b528610260801c5b6080821615612ed3576ffe5dee046a99a2a811c461f1969c30530260801c5b610100821615612ef3576ffcbe86c7900a88aedcffc83b479aa3a40260801c5b610200821615612f13576ff987a7253ac413176f2b074cf7815e540260801c5b610400821615612f33576ff3392b0822b70005940c7a398e4b70f30260801c5b610800821615612f53576fe7159475a2c29b7443b29c7fa6e889d90260801c5b611000821615612f73576fd097f3bdfd2022b8845ad8f792aa58250260801c5b612000821615612f93576fa9f746462d870fdf8a65dc1f90e061e50260801c5b614000821615612fb3576f70d869a156d2a1b890bb3df62baf32f70260801c5b618000821615612fd3576f31be135f97d08fd981231505542fcfa60260801c5b62010000821615612ff4576f09aa508b5b7a84e1c677de54f3e99bc90260801c5b62020000821615613014576e5d6af8dedb81196699c329225ee6040260801c5b62040000821615613033576d2216e584f5fa1ea926041bedfe980260801c5b62080000821615613050576b048a170391f7dc42444e8fa20260801c5b60008460020b131561306b57806000198161306757fe5b0490505b600160201b81061561307e576001613081565b60005b60ff16602082901c0192505050919050565b6000806000806000886001600160a01b03168a6001600160a01b03161015905060008088121590506130e76040518060400160405280600a815260200169616464726573733a257360b01b815250306146b1565b80156131795760006131078989620f42400362ffffff16620f42406133bb565b9050826131205761311b8c8c8c6001614768565b61312d565b61312d8b8d8c60016147e3565b955061315560405180604001604052806004815260200163696e257360e01b815250876148bc565b858110613164578a9650613173565b6131708c8b838661496a565b96505b506131c3565b816131905761318b8b8b8b60006147e3565b61319d565b61319d8a8c8b6000614768565b93508388600003106131b1578995506131c3565b6131c08b8a8a600003856149b6565b95505b6000866001600160a01b03168b6001600160a01b0316149050613203604051806040016040528060058152602001646d6178257360d81b81525082614a02565b6132316040518060400160405280600c81526020016b616d6f756e746f75743a257360a01b815250866148bc565b8215613285578080156132415750815b61325757613252878d8c60016147e3565b613259565b855b9550808015613266575081155b61327c57613277878d8c6000614768565b61327e565b845b94506132cf565b80801561328f5750815b6132a5576132a08c888c6001614768565b6132a7565b855b95508080156132b4575081155b6132ca576132c58c888c60006147e3565b6132cc565b845b94505b6132fd6040518060400160405280600c81526020016b616d6f756e746f75743a257360a01b815250866148bc565b8115801561330d57508860000385115b15613319578860000394505b81801561333857508a6001600160a01b0316876001600160a01b031614155b15613347578589039350613364565b613361868962ffffff168a620f42400362ffffff16614200565b93505b50505095509550955095915050565b6000600160ff1b821061338557600080fd5b5090565b8082038281131560008312151461339f57600080fd5b92915050565b8181018281121560008312151461339f57600080fd5b60008080600019858709868602925082811090839003039050806133f157600084116133e657600080fd5b508290049050613464565b8084116133fd57600080fd5b6000848688096000868103871696879004966002600389028118808a02820302808a02820302808a02820302808a02820302808a02820302808a02909103029181900381900460010186841190950394909402919094039290920491909117919091029150505b9392505050565b60008063ffffffff8716613511576000898661ffff1661ffff811061348c57fe5b60408051608081018252919092015463ffffffff808216808452600160201b8304600690810b810b900b6020850152600160581b83046001600160a01b031694840194909452600160f81b90910460ff16151560608301529092508a16146134fd576134fa818a8988614ab2565b90505b8060200151816040015192509250506135f1565b8688036000806135268c8c858c8c8c8c614b55565b91509150816000015163ffffffff168363ffffffff1614156135585781602001518260400151945094505050506135f1565b805163ffffffff848116911614156135805780602001518160400151945094505050506135f1565b8151815160208085015190840151918390039286039163ffffffff80841692908516910360060b816135ae57fe5b05028460200151018263ffffffff168263ffffffff1686604001518660400151036001600160a01b031602816135e057fe5b048560400151019650965050505050505b97509795505050505050565b600295860b860b60009081526020979097526040909620600181018054909503909455938301805490920390915560038201805463ffffffff600160d81b6001600160a01b03600160381b808504821690960316909402600160381b600160d81b031990921691909117600681810b90960390950b66ffffffffffffff1666ffffffffffffff199095169490941782810485169095039093160263ffffffff60d81b1990931692909217905554600160801b9004600f0b90565b60008082600f0b121561371c57826001600160801b03168260000384039150816001600160801b031610613717576040805162461bcd60e51b81526020600482015260026024820152614c5360f01b604482015290519081900360640190fd5b61339f565b826001600160801b03168284019150816001600160801b0316101561339f576040805162461bcd60e51b81526020600482015260026024820152614c4160f01b604482015290519081900360640190fd5b60006401000276a36001600160a01b038316108015906137a9575073fffd8963efd1fc6a506488495d951d5263988d266001600160a01b038316105b6137de576040805162461bcd60e51b81526020600482015260016024820152602960f91b604482015290519081900360640190fd5b600160201b600160c01b03602083901b166001600160801b03811160071b81811c6001600160401b03811160061b90811c63ffffffff811160051b90811c61ffff811160041b90811c60ff8111600390811b91821c600f811160021b90811c918211600190811b92831c9790881196179094179092171790911717176080811061387057607f810383901c915061387a565b80607f0383901b91505b908002607f81811c60ff83811c9190911c800280831c81831c1c800280841c81841c1c800280851c81851c1c800280861c81861c1c800280871c81871c1c800280881c81881c1c800280891c81891c1c8002808a1c818a1c1c8002808b1c818b1c1c8002808c1c818c1c1c8002808d1c818d1c1c8002808e1c9c81901c9c909c1c80029c8d901c9e9d607f198f0160401b60c09190911c6001603f1b161760c19b909b1c6001603e1b169a909a1760c29990991c6001603d1b169890981760c39790971c6001603c1b169690961760c49590951c6001603b1b169490941760c59390931c6001603a1b169290921760c69190911c600160391b161760c79190911c600160381b161760c89190911c600160371b161760c99190911c600160361b161760ca9190911c600160351b161760cb9190911c600160341b161760cc9190911c600160331b161760cd9190911c600160321b1617693627a301d71055774c8581026f028f6481ab7f045a5af012a19d003aa9198101608090811d906fdb2df09e81959a81455e260799a0632f8301901d600281810b9083900b14613a4957886001600160a01b0316613a2d82612d6c565b6001600160a01b03161115613a425781613a44565b805b613a4b565b815b9998505050505050505050565b6000806000898961ffff1661ffff8110613a6e57fe5b60408051608081018252919092015463ffffffff808216808452600160201b8304600690810b810b900b6020850152600160581b83046001600160a01b031694840194909452600160f81b90910460ff161515606083015290925089161415613add57888592509250506135f1565b8461ffff168461ffff16118015613afe57506001850361ffff168961ffff16145b15613b0b57839150613b0f565b8491505b8161ffff168960010161ffff1681613b2357fe5b069250613b3281898989614ab2565b8a8461ffff1661ffff8110613b4357fe5b825191018054602084015160408501516060909501511515600160f81b026001600160f81b036001600160a01b03909616600160581b02600160581b600160f81b031960069390930b66ffffffffffffff16600160201b0266ffffffffffffff60201b1963ffffffff90971663ffffffff199095169490941795909516929092171692909217929092161790555097509795505050505050565b604080516001600160a01b038481166024830152604480830185905283518084039091018152606490920183526020820180516001600160e01b031663a9059cbb60e01b1781529251825160009485949389169392918291908083835b60208310613c595780518252601f199092019160209182019101613c3a565b6001836020036101000a0380198251168184511680821785525050505050509050019150506000604051808303816000865af19150503d8060008114613cbb576040519150601f19603f3d011682016040523d82523d6000602084013e613cc0565b606091505b5091509150818015613cee575080511580613cee5750808060200190516020811015613ceb57600080fd5b50515b613d24576040805162461bcd60e51b81526020600482015260026024820152612a2360f11b604482015290519081900360640190fd5b5050505050565b604080513060248083019190915282518083039091018152604490910182526020810180516001600160e01b03166370a0823160e01b17815291518151600093849384936001600160a01b037f00000000000000000000000000000000000000000000000000000000000000001693919290918291908083835b60208310613dc45780518252601f199092019160209182019101613da5565b6001836020036101000a038019825116818451168082178552505050505050905001915050600060405180830381855afa9150503d8060008114613e24576040519150601f19603f3d011682016040523d82523d6000602084013e613e29565b606091505b5091509150818015613e3d57506020815110155b613e4657600080fd5b808060200190516020811015613e5b57600080fd5b50519250505090565b8082018281101561339f57600080fd5b604080513060248083019190915282518083039091018152604490910182526020810180516001600160e01b03166370a0823160e01b17815291518151600093849384936001600160a01b037f000000000000000000000000000000000000000000000000000000000000000016939192909182919080838360208310613dc45780518252601f199092019160209182019101613da5565b6000808361ffff1611613f4a576040805162461bcd60e51b81526020600482015260016024820152604960f81b604482015290519081900360640190fd5b8261ffff168261ffff1611613f60575081613464565b825b8261ffff168161ffff161015613fa6576001858261ffff1661ffff8110613f8557fe5b01805463ffffffff191663ffffffff92909216919091179055600101613f62565b50909392505050565b80600f81900b8114612b9e57600080fd5b6000806000613fcd612bef565b613fdf846020015185604001516143f1565b6040805160e0810182526000546001600160a01b0381168252600160a01b8104600290810b810b900b602080840182905261ffff600160b81b8404811685870152600160c81b84048116606080870191909152600160d81b8504909116608086015260ff600160e81b8504811660a0870152600160f01b909404909316151560c0850152885190890151948901519289015193946140839491939092909190614d4f565b93508460600151600f0b6000146141f857846020015160020b816020015160020b12156140d8576140d16140ba8660200151612d6c565b6140c78760400151612d6c565b8760600151614f04565b92506141f8565b846040015160020b816020015160020b12156141ce5760045460408201516001600160801b039091169061412a9061410e612c26565b6020850151606086015160808701516008949392918791613a58565b6000805461ffff60c81b1916600160c81b61ffff938416021761ffff60b81b1916600160b81b93909216929092021790558151604087015161417a919061417090612d6c565b8860600151614f04565b935061419861418c8760200151612d6c565b83516060890151614f48565b92506141a88187606001516136b7565b600480546001600160801b0319166001600160801b0392909216919091179055506141f8565b6141f56141de8660200151612d6c565b6141eb8760400151612d6c565b8760600151614f48565b91505b509193909250565b600061420d8484846133bb565b90506000828061421957fe5b848609111561346457600019811061423057600080fd5b6001019392505050565b6040805160609490941b6001600160601b031916602080860191909152600293840b60e890811b60348701529290930b90911b60378401528051808403601a018152603a90930181528251928201929092206000908152929052902090565b60608060008361ffff16116142d9576040805162461bcd60e51b81526020600482015260016024820152604960f81b604482015290519081900360640190fd5b86516001600160401b03811180156142f057600080fd5b5060405190808252806020026020018201604052801561431a578160200160208202803683370190505b50915086516001600160401b038111801561433457600080fd5b5060405190808252806020026020018201604052801561435e578160200160208202803683370190505b50905060005b87518110156143e45761438f8a8a8a848151811061437e57fe5b60200260200101518a8a8a8a61346b565b84838151811061439b57fe5b602002602001018484815181106143ae57fe5b60200260200101826001600160a01b03166001600160a01b03168152508260060b60060b81525050508080600101915050614364565b5097509795505050505050565b8060020b8260020b12614431576040805162461bcd60e51b8152602060048201526003602482015262544c5560e81b604482015290519081900360640190fd5b620d89e719600283900b1215614474576040805162461bcd60e51b8152602060048201526003602482015262544c4d60e81b604482015290519081900360640190fd5b620d89e8600282900b13156128ed576040805162461bcd60e51b815260206004820152600360248201526254554d60e81b604482015290519081900360640190fd5b8060020b8260020b816144c557fe5b0760020b156144d357600080fd5b6000806144ee8360020b8560020b816144e857fe5b0561451c565b600191820b820b60009081526020979097526040909620805460ff9097169190911b90951890945550505050565b60020b600881901d9161010090910790565b600080821161453c57600080fd5b600160801b821061454f57608091821c91015b600160401b821061456257604091821c91015b600160201b821061457557602091821c91015b62010000821061458757601091821c91015b610100821061459857600891821c91015b601082106145a857600491821c91015b600482106145b857600291821c91015b60028210612b9e57600101919050565b60008082116145d657600080fd5b5060ff6001600160801b038216156145f157607f19016145f9565b608082901c91505b6001600160401b0382161561461157603f1901614619565b604082901c91505b63ffffffff82161561462e57601f1901614636565b602082901c91505b61ffff82161561464957600f1901614651565b601082901c91505b60ff821615614663576007190161466b565b600882901c91505b600f82161561467d5760031901614685565b600482901c91505b6003821615614697576001190161469f565b600282901c91505b6001821615612b9e5760001901919050565b6128ed82826040516024018080602001836001600160a01b03168152602001828103825284818151815260200191508051906020019080838360005b838110156147055781810151838201526020016146ed565b50505050905090810190601f1680156147325780820380516001836020036101000a031916815260200191505b5060408051601f198184030181529190526020810180516001600160e01b031663319af33360e01b1790529350614f7792505050565b6000836001600160a01b0316856001600160a01b03161115614788579293925b816147b5576147b0836001600160801b03168686036001600160a01b0316600160601b6133bb565b6147d8565b6147d8836001600160801b03168686036001600160a01b0316600160601b614200565b90505b949350505050565b6000836001600160a01b0316856001600160a01b03161115614803579293925b600160601b600160e01b03606084901b166001600160a01b03868603811690871661482d57600080fd5b61485b6040518060400160405280600b81526020016a6e313a2573206e323a257360a81b8152508383614f91565b8361488b57866001600160a01b031661487e8383896001600160a01b03166133bb565b8161488557fe5b046148b1565b6148b16148a28383896001600160a01b0316614200565b886001600160a01b031661504c565b979650505050505050565b6128ed82826040516024018080602001838152602001828103825284818151815260200191508051906020019080838360005b838110156149075781810151838201526020016148ef565b50505050905090810190601f1680156149345780820380516001836020036101000a031916815260200191505b5060408051601f198184030181529190526020810180516001600160e01b0316632d839cb360e21b1790529350614f7792505050565b600080856001600160a01b03161161498157600080fd5b6000846001600160801b03161161499757600080fd5b816149a9576147b08585856001615057565b6147d88585856001615138565b600080856001600160a01b0316116149cd57600080fd5b6000846001600160801b0316116149e357600080fd5b816149f5576147b08585856000615138565b6147d88585856000615057565b6128ed828260405160240180806020018315158152602001828103825284818151815260200191508051906020019080838360005b83811015614a4f578181015183820152602001614a37565b50505050905090810190601f168015614a7c5780820380516001836020036101000a031916815260200191505b5060408051601f198184030181529190526020810180516001600160e01b031663c3b5563560e01b1790529350614f7792505050565b614aba615916565b600085600001518503905060405180608001604052808663ffffffff1681526020018263ffffffff168660020b0288602001510160060b81526020016000856001600160801b031611614b0e576001614b10565b845b6001600160801b031663ffffffff60801b608085901b1681614b2e57fe5b048860400151016001600160a01b0316815260200160011515815250915050949350505050565b614b5d615916565b614b65615916565b888561ffff1661ffff8110614b7657fe5b60408051608081018252919092015463ffffffff8116808352600160201b8204600690810b810b900b6020840152600160581b82046001600160a01b031693830193909352600160f81b900460ff16151560608201529250614bda9089908961521b565b15614c12578663ffffffff16826000015163ffffffff161415614bfc576135f1565b81614c0983898988614ab2565b915091506135f1565b888361ffff168660010161ffff1681614c2757fe5b0661ffff1661ffff8110614c3757fe5b60408051608081018252929091015463ffffffff81168352600160201b8104600690810b810b900b60208401526001600160a01b03600160581b8204169183019190915260ff600160f81b90910416151560608201819052909250614cec57604080516080810182528a5463ffffffff81168252600160201b8104600690810b810b900b6020830152600160581b81046001600160a01b031692820192909252600160f81b90910460ff161515606082015291505b614cfb8883600001518961521b565b614d32576040805162461bcd60e51b815260206004820152600360248201526213d31160ea1b604482015290519081900360640190fd5b614d3f89898988876152dc565b9150915097509795505050505050565b6000614d5e600787878761423a565b60015460025491925090600080600f87900b15614ea4576000614d7f612c26565b6000805460045492935090918291614dc99160089186918591600160a01b810460020b9161ffff600160b81b83048116926001600160801b0390921691600160c81b90041661346b565b9092509050614e0360058d8b8d8b8b87898b60007f000000000000000000000000000000000000000000000000000000000000000061547a565b9450614e3a60058c8b8d8b8b87898b60017f000000000000000000000000000000000000000000000000000000000000000061547a565b93508415614e6e57614e6e60068d7f00000000000000000000000000000000000000000000000000000000000000006144b6565b8315614ea057614ea060068c7f00000000000000000000000000000000000000000000000000000000000000006144b6565b5050505b600080614eb660058c8c8b8a8a615633565b9092509050614ec7878a84846156df565b600089600f0b1215614ef5578315614ee457614ee460058c615874565b8215614ef557614ef560058b615874565b50505050505095945050505050565b60008082600f0b12614f2a57614f25614f2085858560016147e3565b613373565b6147db565b614f3d614f2085858560000360006147e3565b600003949350505050565b60008082600f0b12614f6457614f25614f208585856001614768565b614f3d614f208585856000036000614768565b614f8e81614f866158a06158c1565b63ffffffff16565b50565b6150478383836040516024018080602001848152602001838152602001828103825285818151815260200191508051906020019080838360005b83811015614fe3578181015183820152602001614fcb565b50505050905090810190601f1680156150105780820380516001836020036101000a031916815260200191505b5060408051601f198184030181529190526020810180516001600160e01b031663ca47c4eb60e01b1790529450614f779350505050565b505050565b808204910615150190565b600081156150ca5760006001600160a01b0384111561508d5761508884600160601b876001600160801b03166133bb565b6150a5565b6001600160801b038516606085901b816150a357fe5b045b90506150c26150bd6001600160a01b03881683613e64565b6158c4565b9150506147db565b60006001600160a01b038411156150f8576150f384600160601b876001600160801b0316614200565b61510f565b61510f606085901b6001600160801b03871661504c565b905080866001600160a01b03161161512657600080fd5b6001600160a01b0386160390506147db565b6000826151465750836147db565b600160601b600160e01b03606085901b1682156151d4576001600160a01b0386168481029085828161517457fe5b0414156151a5578181018281106151a35761519983896001600160a01b031683614200565b93505050506147db565b505b6151cb826151c6878a6001600160a01b031686816151bf57fe5b0490613e64565b61504c565b925050506147db565b6001600160a01b038616848102908582816151eb57fe5b041480156151f857508082115b61520157600080fd5b8082036151996150bd846001600160a01b038b1684614200565b60008363ffffffff168363ffffffff161115801561524557508363ffffffff168263ffffffff1611155b15615261578163ffffffff168363ffffffff1611159050613464565b60008463ffffffff168463ffffffff1611615288578363ffffffff16600160201b01615290565b8363ffffffff165b64ffffffffff16905060008563ffffffff168463ffffffff16116152c0578363ffffffff16600160201b016152c8565b8363ffffffff165b64ffffffffff169091111595945050505050565b6152e4615916565b6152ec615916565b60008361ffff168560010161ffff168161530257fe5b0661ffff169050600060018561ffff16830103905060005b506002818301048961ffff8716828161532f57fe5b0661ffff811061533b57fe5b60408051608081018252929091015463ffffffff81168352600160201b8104600690810b810b900b60208401526001600160a01b03600160581b8204169183019190915260ff600160f81b909104161515606082018190529095506153a55780600101925061531a565b898661ffff1682600101816153b657fe5b0661ffff81106153c257fe5b60408051608081018252929091015463ffffffff81168352600160201b8104600690810b810b900b60208401526001600160a01b03600160581b8204169183019190915260ff600160f81b9091041615156060820152855190945060009061542c908b908b61521b565b905080801561544557506154458a8a876000015161521b565b15615450575061546d565b8061546057600182039250615467565b8160010193505b5061531a565b5050509550959350505050565b60028a810b900b600090815260208c90526040812080546001600160801b0316826154a5828d6136b7565b9050846001600160801b0316816001600160801b031611156154f3576040805162461bcd60e51b81526020600482015260026024820152614c4f60f01b604482015290519081900360640190fd5b6001600160801b038281161590821615811415945015615598578c60020b8e60020b1361558057600183018b9055600283018a9055600383018054600160381b600160d81b031916600160381b6001600160a01b038c16021766ffffffffffffff191666ffffffffffffff60068b900b161763ffffffff60d81b1916600160d81b63ffffffff8a16021790555b6003830180546001600160f81b0316600160f81b1790555b82546001600160801b0319166001600160801b038216178355856155e15782546155dc906155d790600160801b9004600f90810b810b908f900b6133a5565b613faf565b615602565b8254615602906155d790600160801b9004600f90810b810b908f900b613389565b8354600f9190910b6001600160801b03908116600160801b0291161790925550909c9b505050505050505050505050565b600285810b80820b60009081526020899052604080822088850b850b83529082209193849391929184918291908a900b126156795750506001820154600283015461568c565b8360010154880391508360020154870390505b6000808b60020b8b60020b12156156ae575050600183015460028401546156c1565b84600101548a0391508460020154890390505b92909803979097039b96909503949094039850939650505050505050565b6040805160a08101825285546001600160801b0390811682526001870154602083015260028701549282019290925260038601548083166060830152600160801b900490911660808201526000600f85900b61577e5781516001600160801b0316615776576040805162461bcd60e51b815260206004820152600260248201526104e560f41b604482015290519081900360640190fd5b50805161578d565b815161578a90866136b7565b90505b60006157b18360200151860384600001516001600160801b0316600160801b6133bb565b905060006157d78460400151860385600001516001600160801b0316600160801b6133bb565b905086600f0b6000146157fe5787546001600160801b0319166001600160801b0384161788555b60018801869055600288018590556001600160801b03821615158061582c57506000816001600160801b0316115b1561586a576003880180546001600160801b031981166001600160801b039182168501821617808216600160801b9182900483168501909216021790555b5050505050505050565b600290810b810b6000908152602092909252604082208281556001810183905590810182905560030155565b60006a636f6e736f6c652e6c6f679050600080835160208501845afa505050565b90565b806001600160a01b0381168114612b9e57600080fd5b6040805160e081018252600080825260208201819052918101829052606081018290526080810182905260a0810182905260c081019190915290565b6040805160808101825260008082526020820181905291810182905260608101919091529056fea2646970667358221220037ea0d98b173e133cb04f30d0a464cf31c5b9c49e4f0935212ccfc4b6389e2464736f6c63430007060033",
  "linkReferences": {},
  "deployedLinkReferences": {}
}