{"contracts/UniswapArb.sol":{"MyArb":{"abi":[{"inputs":[],"stateMutability":"nonpayable","type":"constructor"},{"inputs":[{"internalType":"uint256","name":"amountIn","type":"uint256"},{"internalType":"uint256","name":"reserveIn","type":"uint256"},{"internalType":"uint256","name":"reserveOut","type":"uint256"}],"name":"getAmountOut","outputs":[{"internalType":"uint256","name":"amountOut","type":"uint256"}],"stateMutability":"pure","type":"function"},{"inputs":[],"name":"owner","outputs":[{"internalType":"address","name":"","type":"address"}],"stateMutability":"view","type":"function"},{"inputs":[{"components":[{"internalType":"address","name":"poolAddress","type":"address"},{"internalType":"uint256","name":"stepType","type":"uint256"},{"internalType":"address","name":"token0","type":"address"},{"internalType":"address","name":"token1","type":"address"}],"internalType":"struct MyArb.Step","name":"initStep","type":"tuple"},{"components":[{"internalType":"address","name":"poolAddress","type":"address"},{"internalType":"uint256","name":"stepType","type":"uint256"},{"internalType":"address","name":"token0","type":"address"},{"internalType":"address","name":"token1","type":"address"}],"internalType":"struct MyArb.Step[]","name":"steps","type":"tuple[]"},{"internalType":"uint256","name":"input","type":"uint256"},{"internalType":"uint256","name":"fees","type":"uint256"},{"internalType":"bytes","name":"endStepData","type":"bytes"}],"name":"startFlashLoan","outputs":[],"stateMutability":"nonpayable","type":"function"},{"inputs":[{"internalType":"address","name":"sender","type":"address"},{"internalType":"uint256","name":"amount0","type":"uint256"},{"internalType":"uint256","name":"amount1","type":"uint256"},{"internalType":"bytes","name":"data","type":"bytes"}],"name":"uniswapV2Call","outputs":[],"stateMutability":"nonpayable","type":"function"},{"inputs":[{"internalType":"int256","name":"amount0Delta","type":"int256"},{"internalType":"int256","name":"amount1Delta","type":"int256"},{"internalType":"bytes","name":"data","type":"bytes"}],"name":"uniswapV3SwapCallback","outputs":[],"stateMutability":"nonpayable","type":"function"},{"inputs":[],"name":"withdrawFunds","outputs":[],"stateMutability":"nonpayable","type":"function"},{"stateMutability":"payable","type":"receive"}],"evm":{"bytecode":{"linkReferences":{},"object":"6080806040523461002857600080546001600160a01b03191633179055611574908161002e8239f35b600080fdfe6080604052600436101561001b575b361561001957600080fd5b005b6000803560e01c8063054d50d414610b5c57806310d1e85c14610a7857806324600fc3146109fe5780638da5cb5b146109d7578063f3443c981461017f5763fa461e3314610069575061000e565b3461017c57606036600319011261017c576001600160401b03602435600435604435838111610178576100a0903690600401610b9d565b810191608082840312610174576100b682610b89565b916100c360208201610b89565b936040820135968715158803610170576060830135908111610170576100e99201610cd1565b6001600160a01b0395610134575b50858113610120575b505083821361010d578380f35b6101199233911661144f565b3880808380f35b61012d918533911661144f565b3880610100565b61014a8160208061016194518301019101610d2c565b878312156101675761015b83610efa565b90610f7f565b386100f7565b61015b86610efa565b8880fd5b8580fd5b8480fd5b80fd5b503461017c573660031901610100811261044b5760801361017c57608435906001600160401b0380831161044b573660238401121561044b5782600401359080821161045a573660248360071b8601011161045a5760e43590811161045a57836101ee84923690600401610b9d565b914792602435956040518093826040830160208085015252602460608301910192885b81811061097757505061022d925003601f198101845283610c93565b84906001871661086c57600460606001600160a01b0361024b610df6565b1660405192838092630240bc6b60e21b82525afa908115610861578790889261083e575b50969788976001600160701b0392831692169088906002161561082a57509061029a9160a435610bed565b6001600160a01b036102aa610df6565b16906102b4610e0c565b986102bd610e22565b604080516001600160a01b039c8d16602082015291909b169a81019a909a52608060608b015261030a8a6102f460a0820189610e38565b60a435608083015203601f1981018c528b610c93565b823b15610170579161034f99918980946040519c8d958694859363022c0d9f60e01b855260048501526024840152306044840152608060648401526084830190610e38565b03925af1801561064a57610814575b8596509493945b600160c435166104a3575b50506040516370a0823160e01b815230600482015273c02aaa39b223fe8d0a0e5c4f27ead9083c756cc292509050602081602481855afa90811561049857839161045e575b50813b1561045a578291602483926040519485938492632e1a7d4d60e01b845260048401525af1801561044f57610437575b5080808060c43560801c81811561042e575b4190f115610421576104179060c4356001600160801b031690610bca565b47111561017c5780f35b50604051903d90823e3d90fd5b506108fc6103f9565b61044090610c4f565b61044b5781836103e7565b5080fd5b6040513d84823e3d90fd5b8280fd5b9250506020823d602011610490575b8161047a60209383610c93565b8101031261048b57839151856103b5565b600080fd5b3d915061046d565b6040513d85823e3d90fd5b83608091810103126105ea57604051916104bc83610c78565b6104c584610b89565b83526020840135938460208501526104f160606104e460408401610b89565b9283604088015201610b89565b806060860152831561076c575b5050602083015160011661065557508151604051630240bc6b60e21b81526001600160a01b0392916060908290600490829087165afa90811561064a5786908792610617575b5086956001600160701b039283169291909116908690600216156105ee575082916105729161058494610bed565b9383806040830151169151169061144f565b61058c610df6565b1691823b156105ea576105ba9284928360405180968195829463022c0d9f60e01b8452309160048501610f55565b03925af1801561044f576105d6575b50505b8183808080610370565b6105df90610c4f565b61044b5781836105c9565b8380fd5b94955061060090839261061294610bed565b9483806060830151169151169061144f565b610584565b905061063b915060603d606011610643575b6106338183610c93565b810190610f1f565b509089610544565b503d610629565b6040513d88823e3d90fd5b9293506106da9260409250906002851615610752576401000276a45b876001600160a01b03610682610df6565b16926106b761068f610e0c565b6106a961069a610e22565b97895198899360208501610e78565b03601f198101875286610c93565b8551630251596160e31b81529687958694859360028c1615153060048701610ec1565b03925af19182156107475784918593610711575b5060021615610707575061070190610efa565b506105cc565b6107019150610efa565b6107389193506002925060403d604011610740575b6107308183610c93565b810190610eab565b9290916106ee565b503d610726565b6040513d86823e3d90fd5b73fffd8963efd1fc6a506488495d951d5263988d25610671565b91925060249160209190600287161561080457506001600160a01b03165b6040516370a0823160e01b815230600482015292839182906001600160a01b03165afa9081156107f95785916107c4575b509087806104fe565b9450506020843d6020116107f1575b816107e060209383610c93565b8101031261048b57859351876107bb565b3d91506107d3565b6040513d87823e3d90fd5b6001600160a01b0316905061078a565b9394909561082190610c4f565b9392859061035e565b98506108389160a435610bed565b9661029a565b9050610859915060603d606011610643576106338183610c93565b50908961026f565b6040513d89823e3d90fd5b9495939486949091506002811615610958576108f660406401000276a45b6001600160a01b0361089a610df6565b166108a3610e0c565b916108d06108af610e22565b936108c28a875196879360208501610e78565b03601f198101855284610c93565b898451809681958294630251596160e31b845260a43560028c1615153060048701610ec1565b03925af191821561064a5786918793610932575b5060021615610923575061091d90610efa565b90610365565b61092d9150610efa565b61091d565b6109509193506002925060403d604011610740576107308183610c93565b92909161090a565b6108f6604073fffd8963efd1fc6a506488495d951d5263988d2561088a565b9092509060019060809081906001600160a01b038061099589610b89565b16825260208801356020830152806109af60408a01610b89565b1660408301526109c160608901610b89565b1660608201520194019101918592939193610211565b503461017c578060031936011261017c57546040516001600160a01b039091168152602090f35b503461017c578060031936011261017c5780546001600160a01b031633819003610a4f5781808080934790828215610a46575bf115610a3a5780f35b604051903d90823e3d90fd5b506108fc610a31565b60405162461bcd60e51b81526020600482015260016024820152606f60f81b6044820152606490fd5b503461017c57608036600319011261017c576001600160a01b036004358181160361044b576001600160401b0360243560443560643583811161017457610ac3903690600401610b9d565b81019390608081860312610b5857610ada81610b89565b93610ae760208301610b89565b926040830135908111610170576060610b08610b1d98610b2d938601610cd1565b93013596836020808a96518301019101610d2c565b821580159390610b505790610f7f565b610b3c575b505061010d578380f35b610b49918633911661144f565b3883610b32565b508590610f7f565b8680fd5b503461017c57606036600319011261017c576020610b81604435602435600435610bed565b604051908152f35b35906001600160a01b038216820361048b57565b9181601f8401121561048b578235916001600160401b03831161048b576020838186019501011161048b57565b91908201809211610bd757565b634e487b7160e01b600052601160045260246000fd5b6103e580820291808304821481151715610bd757840202928184041481151715610bd7576103e891828102928184041490151715610bd757610c2e91610bca565b908115610c39570490565b634e487b7160e01b600052601260045260246000fd5b6001600160401b038111610c6257604052565b634e487b7160e01b600052604160045260246000fd5b608081019081106001600160401b03821117610c6257604052565b601f909101601f19168101906001600160401b03821190821017610c6257604052565b6001600160401b038111610c6257601f01601f191660200190565b81601f8201121561048b57803590610ce882610cb6565b92610cf66040519485610c93565b8284526020838301011161048b57816000926020809301838601378301015290565b51906001600160a01b038216820361048b57565b6020808284031261048b5781516001600160401b039283821161048b57019083601f8301121561048b578151928311610c625760409260405194610d75838360051b0187610c93565b818652828087019260071b8501019381851161048b578301915b848310610d9f5750505050505090565b60808383031261048b57836080918751610db881610c78565b610dc186610d18565b81528286015183820152610dd6898701610d18565b898201526060610de7818801610d18565b90820152815201920191610d8f565b6004356001600160a01b038116810361048b5790565b6044356001600160a01b038116810361048b5790565b6064356001600160a01b038116810361048b5790565b919082519283825260005b848110610e64575050826000602080949584010152601f8019910116010190565b602081830181015184830182015201610e43565b6001600160a01b0391821681529116602082015260016040820152608060608201819052610ea892910190610e38565b90565b919082604091031261048b576020825192015190565b6001600160a01b039182168152911515602083015260408201929092529116606082015260a060808201819052610ea892910190610e38565b600160ff1b8114610bd75760000390565b51906001600160701b038216820361048b57565b9081606091031261048b57610f3381610f0b565b916040610f4260208401610f0b565b92015163ffffffff8116810361048b5790565b9160a0939183526020830152600180841b0316604082015260806060820152600060808201520190565b919060005b835181101561144957602091828260051b86010151928084015191600160028416151593161560001461120f57845160408051630240bc6b60e21b8152909460049490926001600160a01b03926060929091839083908990829088165afa9182156111145760009081936111ec575b5060018060701b038091169216926000968b8891809860001461111f575050505084156110a4575b5061103b9161102a9185610bed565b9282878a015116838a51169061144f565b600096511691823b15610b58579184939187809461106e97519788958694859363022c0d9f60e01b855230928501610f55565b03925af190811561109b5750906001929161108c575b505b01610f84565b61109590610c4f565b38611084565b513d85823e3d90fd5b90935060248184898c0151168951928380926370a0823160e01b8252308c8301525afa918215611114576000926110e3575b509093905061103b61101b565b81819392933d831161110d575b6110fa8183610c93565b8101031261017c5750518161102a6110d6565b503d6110f0565b88513d6000823e3d90fd5b988388959297939996949a15611157575b5050506111529450906111439184610bed565b958a015116838a51169061144f565b61103b565b602494959193965082970151168b51938480926370a0823160e01b82528d30908301525afa9485156111e057908693929181966111a3575b508c95949150611143905061115289611130565b829450809291939596503d83116111d9575b6111bf8183610c93565b8101031261017c575051919083908061115261114361118f565b503d6111b5565b508951903d90823e3d90fd5b9050611206919250833d8511610643576106338183610c93565b50919038610ff3565b9395949390918115611341575b8015611326576401000276a4925b60018060a01b03928389511691600060409a868c8201511696606080920151168c519760a0948901528c880152860152608080860152600081860152845260c0948585019285841060018060401b03851117610c62578360008c94886112a8818597868a52630251596160e31b875260bf19948c3060c48501610ec1565b0301925af19384156111145760019596979860009485966112ee575b505050506000146112df57506112d990610efa565b91611086565b6112e99150610efa565b6112d9565b908092939496506113149550913d1061131e575b61130c8285610c93565b010190610eab565b91388080806112c4565b3d9150611302565b73fffd8963efd1fc6a506488495d951d5263988d259261122a565b9050600081156113c8575060408681015181516370a0823160e01b8152306004820152908490829060249082906001600160a01b03165afa9182156113be5750600091611391575b505b9061121c565b908382813d83116113b7575b6113a78183610c93565b8101031261017c57505138611389565b503d61139d565b513d6000823e3d90fd5b6060870151604080516370a0823160e01b8152306004820152909290918590839060249082906001600160a01b03165afa92831561143f5750809261140f575b505061138b565b9091508382813d8311611438575b6114278183610c93565b8101031261017c5750513880611408565b503d61141d565b51903d90823e3d90fd5b50509050565b60405163a9059cbb60e01b602082019081526001600160a01b0390931660248201526044808201949094529283529161148781610c78565b600092839283809351925af1903d15611536573d906114a582610cb6565b916114b36040519384610c93565b82523d81602084013e5b826114f5575b5050156114cc57565b60405162461bcd60e51b81526020600482015260016024820152600b60fb1b6044820152606490fd5b908092505191821592831561150f575b50505038806114c3565b81929350906020918101031261044b576020015190811515820361017c5750388080611505565b6060906114bd56fea2646970667358221220d2bc0fe695d02f579f4dd4cdcd1635fb8b5b2c4797095324383de24346cf0d1364736f6c63430008180033","opcodes":"PUSH1 0x80 DUP1 PUSH1 0x40 MSTORE CALLVALUE PUSH2 0x28 JUMPI PUSH1 0x0 DUP1 SLOAD PUSH1 0x1 PUSH1 0x1 PUSH1 0xA0 SHL SUB NOT AND CALLER OR SWAP1 SSTORE PUSH2 0x1574 SWAP1 DUP2 PUSH2 0x2E DUP3 CODECOPY RETURN JUMPDEST PUSH1 0x0 DUP1 REVERT INVALID PUSH1 0x80 PUSH1 0x40 MSTORE PUSH1 0x4 CALLDATASIZE LT ISZERO PUSH2 0x1B JUMPI JUMPDEST CALLDATASIZE ISZERO PUSH2 0x19 JUMPI PUSH1 0x0 DUP1 REVERT JUMPDEST STOP JUMPDEST PUSH1 0x0 DUP1 CALLDATALOAD PUSH1 0xE0 SHR DUP1 PUSH4 0x54D50D4 EQ PUSH2 0xB5C JUMPI DUP1 PUSH4 0x10D1E85C EQ PUSH2 0xA78 JUMPI DUP1 PUSH4 0x24600FC3 EQ PUSH2 0x9FE JUMPI DUP1 PUSH4 0x8DA5CB5B EQ PUSH2 0x9D7 JUMPI DUP1 PUSH4 0xF3443C98 EQ PUSH2 0x17F JUMPI PUSH4 0xFA461E33 EQ PUSH2 0x69 JUMPI POP PUSH2 0xE JUMP JUMPDEST CALLVALUE PUSH2 0x17C JUMPI PUSH1 0x60 CALLDATASIZE PUSH1 0x3 NOT ADD SLT PUSH2 0x17C JUMPI PUSH1 0x1 PUSH1 0x1 PUSH1 0x40 SHL SUB PUSH1 0x24 CALLDATALOAD PUSH1 0x4 CALLDATALOAD PUSH1 0x44 CALLDATALOAD DUP4 DUP2 GT PUSH2 0x178 JUMPI PUSH2 0xA0 SWAP1 CALLDATASIZE SWAP1 PUSH1 0x4 ADD PUSH2 0xB9D JUMP JUMPDEST DUP2 ADD SWAP2 PUSH1 0x80 DUP3 DUP5 SUB SLT PUSH2 0x174 JUMPI PUSH2 0xB6 DUP3 PUSH2 0xB89 JUMP JUMPDEST SWAP2 PUSH2 0xC3 PUSH1 0x20 DUP3 ADD PUSH2 0xB89 JUMP JUMPDEST SWAP4 PUSH1 0x40 DUP3 ADD CALLDATALOAD SWAP7 DUP8 ISZERO ISZERO DUP9 SUB PUSH2 0x170 JUMPI PUSH1 0x60 DUP4 ADD CALLDATALOAD SWAP1 DUP2 GT PUSH2 0x170 JUMPI PUSH2 0xE9 SWAP3 ADD PUSH2 0xCD1 JUMP JUMPDEST PUSH1 0x1 PUSH1 0x1 PUSH1 0xA0 SHL SUB SWAP6 PUSH2 0x134 JUMPI JUMPDEST POP DUP6 DUP2 SGT PUSH2 0x120 JUMPI JUMPDEST POP POP DUP4 DUP3 SGT PUSH2 0x10D JUMPI DUP4 DUP1 RETURN JUMPDEST PUSH2 0x119 SWAP3 CALLER SWAP2 AND PUSH2 0x144F JUMP JUMPDEST CODESIZE DUP1 DUP1 DUP4 DUP1 RETURN JUMPDEST PUSH2 0x12D SWAP2 DUP6 CALLER SWAP2 AND PUSH2 0x144F JUMP JUMPDEST CODESIZE DUP1 PUSH2 0x100 JUMP JUMPDEST PUSH2 0x14A DUP2 PUSH1 0x20 DUP1 PUSH2 0x161 SWAP5 MLOAD DUP4 ADD ADD SWAP2 ADD PUSH2 0xD2C JUMP JUMPDEST DUP8 DUP4 SLT ISZERO PUSH2 0x167 JUMPI PUSH2 0x15B DUP4 PUSH2 0xEFA JUMP JUMPDEST SWAP1 PUSH2 0xF7F JUMP JUMPDEST CODESIZE PUSH2 0xF7 JUMP JUMPDEST PUSH2 0x15B DUP7 PUSH2 0xEFA JUMP JUMPDEST DUP9 DUP1 REVERT JUMPDEST DUP6 DUP1 REVERT JUMPDEST DUP5 DUP1 REVERT JUMPDEST DUP1 REVERT JUMPDEST POP CALLVALUE PUSH2 0x17C JUMPI CALLDATASIZE PUSH1 0x3 NOT ADD PUSH2 0x100 DUP2 SLT PUSH2 0x44B JUMPI PUSH1 0x80 SGT PUSH2 0x17C JUMPI PUSH1 0x84 CALLDATALOAD SWAP1 PUSH1 0x1 PUSH1 0x1 PUSH1 0x40 SHL SUB DUP1 DUP4 GT PUSH2 0x44B JUMPI CALLDATASIZE PUSH1 0x23 DUP5 ADD SLT ISZERO PUSH2 0x44B JUMPI DUP3 PUSH1 0x4 ADD CALLDATALOAD SWAP1 DUP1 DUP3 GT PUSH2 0x45A JUMPI CALLDATASIZE PUSH1 0x24 DUP4 PUSH1 0x7 SHL DUP7 ADD ADD GT PUSH2 0x45A JUMPI PUSH1 0xE4 CALLDATALOAD SWAP1 DUP2 GT PUSH2 0x45A JUMPI DUP4 PUSH2 0x1EE DUP5 SWAP3 CALLDATASIZE SWAP1 PUSH1 0x4 ADD PUSH2 0xB9D JUMP JUMPDEST SWAP2 SELFBALANCE SWAP3 PUSH1 0x24 CALLDATALOAD SWAP6 PUSH1 0x40 MLOAD DUP1 SWAP4 DUP3 PUSH1 0x40 DUP4 ADD PUSH1 0x20 DUP1 DUP6 ADD MSTORE MSTORE PUSH1 0x24 PUSH1 0x60 DUP4 ADD SWAP2 ADD SWAP3 DUP9 JUMPDEST DUP2 DUP2 LT PUSH2 0x977 JUMPI POP POP PUSH2 0x22D SWAP3 POP SUB PUSH1 0x1F NOT DUP2 ADD DUP5 MSTORE DUP4 PUSH2 0xC93 JUMP JUMPDEST DUP5 SWAP1 PUSH1 0x1 DUP8 AND PUSH2 0x86C JUMPI PUSH1 0x4 PUSH1 0x60 PUSH1 0x1 PUSH1 0x1 PUSH1 0xA0 SHL SUB PUSH2 0x24B PUSH2 0xDF6 JUMP JUMPDEST AND PUSH1 0x40 MLOAD SWAP3 DUP4 DUP1 SWAP3 PUSH4 0x240BC6B PUSH1 0xE2 SHL DUP3 MSTORE GAS STATICCALL SWAP1 DUP2 ISZERO PUSH2 0x861 JUMPI DUP8 SWAP1 DUP9 SWAP3 PUSH2 0x83E JUMPI JUMPDEST POP SWAP7 SWAP8 DUP9 SWAP8 PUSH1 0x1 PUSH1 0x1 PUSH1 0x70 SHL SUB SWAP3 DUP4 AND SWAP3 AND SWAP1 DUP9 SWAP1 PUSH1 0x2 AND ISZERO PUSH2 0x82A JUMPI POP SWAP1 PUSH2 0x29A SWAP2 PUSH1 0xA4 CALLDATALOAD PUSH2 0xBED JUMP JUMPDEST PUSH1 0x1 PUSH1 0x1 PUSH1 0xA0 SHL SUB PUSH2 0x2AA PUSH2 0xDF6 JUMP JUMPDEST AND SWAP1 PUSH2 0x2B4 PUSH2 0xE0C JUMP JUMPDEST SWAP9 PUSH2 0x2BD PUSH2 0xE22 JUMP JUMPDEST PUSH1 0x40 DUP1 MLOAD PUSH1 0x1 PUSH1 0x1 PUSH1 0xA0 SHL SUB SWAP13 DUP14 AND PUSH1 0x20 DUP3 ADD MSTORE SWAP2 SWAP1 SWAP12 AND SWAP11 DUP2 ADD SWAP11 SWAP1 SWAP11 MSTORE PUSH1 0x80 PUSH1 0x60 DUP12 ADD MSTORE PUSH2 0x30A DUP11 PUSH2 0x2F4 PUSH1 0xA0 DUP3 ADD DUP10 PUSH2 0xE38 JUMP JUMPDEST PUSH1 0xA4 CALLDATALOAD PUSH1 0x80 DUP4 ADD MSTORE SUB PUSH1 0x1F NOT DUP2 ADD DUP13 MSTORE DUP12 PUSH2 0xC93 JUMP JUMPDEST DUP3 EXTCODESIZE ISZERO PUSH2 0x170 JUMPI SWAP2 PUSH2 0x34F SWAP10 SWAP2 DUP10 DUP1 SWAP5 PUSH1 0x40 MLOAD SWAP13 DUP14 SWAP6 DUP7 SWAP5 DUP6 SWAP4 PUSH4 0x22C0D9F PUSH1 0xE0 SHL DUP6 MSTORE PUSH1 0x4 DUP6 ADD MSTORE PUSH1 0x24 DUP5 ADD MSTORE ADDRESS PUSH1 0x44 DUP5 ADD MSTORE PUSH1 0x80 PUSH1 0x64 DUP5 ADD MSTORE PUSH1 0x84 DUP4 ADD SWAP1 PUSH2 0xE38 JUMP JUMPDEST SUB SWAP3 GAS CALL DUP1 ISZERO PUSH2 0x64A JUMPI PUSH2 0x814 JUMPI JUMPDEST DUP6 SWAP7 POP SWAP5 SWAP4 SWAP5 JUMPDEST PUSH1 0x1 PUSH1 0xC4 CALLDATALOAD AND PUSH2 0x4A3 JUMPI JUMPDEST POP POP PUSH1 0x40 MLOAD PUSH4 0x70A08231 PUSH1 0xE0 SHL DUP2 MSTORE ADDRESS PUSH1 0x4 DUP3 ADD MSTORE PUSH20 0xC02AAA39B223FE8D0A0E5C4F27EAD9083C756CC2 SWAP3 POP SWAP1 POP PUSH1 0x20 DUP2 PUSH1 0x24 DUP2 DUP6 GAS STATICCALL SWAP1 DUP2 ISZERO PUSH2 0x498 JUMPI DUP4 SWAP2 PUSH2 0x45E JUMPI JUMPDEST POP DUP2 EXTCODESIZE ISZERO PUSH2 0x45A JUMPI DUP3 SWAP2 PUSH1 0x24 DUP4 SWAP3 PUSH1 0x40 MLOAD SWAP5 DUP6 SWAP4 DUP5 SWAP3 PUSH4 0x2E1A7D4D PUSH1 0xE0 SHL DUP5 MSTORE PUSH1 0x4 DUP5 ADD MSTORE GAS CALL DUP1 ISZERO PUSH2 0x44F JUMPI PUSH2 0x437 JUMPI JUMPDEST POP DUP1 DUP1 DUP1 PUSH1 0xC4 CALLDATALOAD PUSH1 0x80 SHR DUP2 DUP2 ISZERO PUSH2 0x42E JUMPI JUMPDEST COINBASE SWAP1 CALL ISZERO PUSH2 0x421 JUMPI PUSH2 0x417 SWAP1 PUSH1 0xC4 CALLDATALOAD PUSH1 0x1 PUSH1 0x1 PUSH1 0x80 SHL SUB AND SWAP1 PUSH2 0xBCA JUMP JUMPDEST SELFBALANCE GT ISZERO PUSH2 0x17C JUMPI DUP1 RETURN JUMPDEST POP PUSH1 0x40 MLOAD SWAP1 RETURNDATASIZE SWAP1 DUP3 RETURNDATACOPY RETURNDATASIZE SWAP1 REVERT JUMPDEST POP PUSH2 0x8FC PUSH2 0x3F9 JUMP JUMPDEST PUSH2 0x440 SWAP1 PUSH2 0xC4F JUMP JUMPDEST PUSH2 0x44B JUMPI DUP2 DUP4 PUSH2 0x3E7 JUMP JUMPDEST POP DUP1 REVERT JUMPDEST PUSH1 0x40 MLOAD RETURNDATASIZE DUP5 DUP3 RETURNDATACOPY RETURNDATASIZE SWAP1 REVERT JUMPDEST DUP3 DUP1 REVERT JUMPDEST SWAP3 POP POP PUSH1 0x20 DUP3 RETURNDATASIZE PUSH1 0x20 GT PUSH2 0x490 JUMPI JUMPDEST DUP2 PUSH2 0x47A PUSH1 0x20 SWAP4 DUP4 PUSH2 0xC93 JUMP JUMPDEST DUP2 ADD SUB SLT PUSH2 0x48B JUMPI DUP4 SWAP2 MLOAD DUP6 PUSH2 0x3B5 JUMP JUMPDEST PUSH1 0x0 DUP1 REVERT JUMPDEST RETURNDATASIZE SWAP2 POP PUSH2 0x46D JUMP JUMPDEST PUSH1 0x40 MLOAD RETURNDATASIZE DUP6 DUP3 RETURNDATACOPY RETURNDATASIZE SWAP1 REVERT JUMPDEST DUP4 PUSH1 0x80 SWAP2 DUP2 ADD SUB SLT PUSH2 0x5EA JUMPI PUSH1 0x40 MLOAD SWAP2 PUSH2 0x4BC DUP4 PUSH2 0xC78 JUMP JUMPDEST PUSH2 0x4C5 DUP5 PUSH2 0xB89 JUMP JUMPDEST DUP4 MSTORE PUSH1 0x20 DUP5 ADD CALLDATALOAD SWAP4 DUP5 PUSH1 0x20 DUP6 ADD MSTORE PUSH2 0x4F1 PUSH1 0x60 PUSH2 0x4E4 PUSH1 0x40 DUP5 ADD PUSH2 0xB89 JUMP JUMPDEST SWAP3 DUP4 PUSH1 0x40 DUP9 ADD MSTORE ADD PUSH2 0xB89 JUMP JUMPDEST DUP1 PUSH1 0x60 DUP7 ADD MSTORE DUP4 ISZERO PUSH2 0x76C JUMPI JUMPDEST POP POP PUSH1 0x20 DUP4 ADD MLOAD PUSH1 0x1 AND PUSH2 0x655 JUMPI POP DUP2 MLOAD PUSH1 0x40 MLOAD PUSH4 0x240BC6B PUSH1 0xE2 SHL DUP2 MSTORE PUSH1 0x1 PUSH1 0x1 PUSH1 0xA0 SHL SUB SWAP3 SWAP2 PUSH1 0x60 SWAP1 DUP3 SWAP1 PUSH1 0x4 SWAP1 DUP3 SWAP1 DUP8 AND GAS STATICCALL SWAP1 DUP2 ISZERO PUSH2 0x64A JUMPI DUP7 SWAP1 DUP8 SWAP3 PUSH2 0x617 JUMPI JUMPDEST POP DUP7 SWAP6 PUSH1 0x1 PUSH1 0x1 PUSH1 0x70 SHL SUB SWAP3 DUP4 AND SWAP3 SWAP2 SWAP1 SWAP2 AND SWAP1 DUP7 SWAP1 PUSH1 0x2 AND ISZERO PUSH2 0x5EE JUMPI POP DUP3 SWAP2 PUSH2 0x572 SWAP2 PUSH2 0x584 SWAP5 PUSH2 0xBED JUMP JUMPDEST SWAP4 DUP4 DUP1 PUSH1 0x40 DUP4 ADD MLOAD AND SWAP2 MLOAD AND SWAP1 PUSH2 0x144F JUMP JUMPDEST PUSH2 0x58C PUSH2 0xDF6 JUMP JUMPDEST AND SWAP2 DUP3 EXTCODESIZE ISZERO PUSH2 0x5EA JUMPI PUSH2 0x5BA SWAP3 DUP5 SWAP3 DUP4 PUSH1 0x40 MLOAD DUP1 SWAP7 DUP2 SWAP6 DUP3 SWAP5 PUSH4 0x22C0D9F PUSH1 0xE0 SHL DUP5 MSTORE ADDRESS SWAP2 PUSH1 0x4 DUP6 ADD PUSH2 0xF55 JUMP JUMPDEST SUB SWAP3 GAS CALL DUP1 ISZERO PUSH2 0x44F JUMPI PUSH2 0x5D6 JUMPI JUMPDEST POP POP JUMPDEST DUP2 DUP4 DUP1 DUP1 DUP1 PUSH2 0x370 JUMP JUMPDEST PUSH2 0x5DF SWAP1 PUSH2 0xC4F JUMP JUMPDEST PUSH2 0x44B JUMPI DUP2 DUP4 PUSH2 0x5C9 JUMP JUMPDEST DUP4 DUP1 REVERT JUMPDEST SWAP5 SWAP6 POP PUSH2 0x600 SWAP1 DUP4 SWAP3 PUSH2 0x612 SWAP5 PUSH2 0xBED JUMP JUMPDEST SWAP5 DUP4 DUP1 PUSH1 0x60 DUP4 ADD MLOAD AND SWAP2 MLOAD AND SWAP1 PUSH2 0x144F JUMP JUMPDEST PUSH2 0x584 JUMP JUMPDEST SWAP1 POP PUSH2 0x63B SWAP2 POP PUSH1 0x60 RETURNDATASIZE PUSH1 0x60 GT PUSH2 0x643 JUMPI JUMPDEST PUSH2 0x633 DUP2 DUP4 PUSH2 0xC93 JUMP JUMPDEST DUP2 ADD SWAP1 PUSH2 0xF1F JUMP JUMPDEST POP SWAP1 DUP10 PUSH2 0x544 JUMP JUMPDEST POP RETURNDATASIZE PUSH2 0x629 JUMP JUMPDEST PUSH1 0x40 MLOAD RETURNDATASIZE DUP9 DUP3 RETURNDATACOPY RETURNDATASIZE SWAP1 REVERT JUMPDEST SWAP3 SWAP4 POP PUSH2 0x6DA SWAP3 PUSH1 0x40 SWAP3 POP SWAP1 PUSH1 0x2 DUP6 AND ISZERO PUSH2 0x752 JUMPI PUSH5 0x1000276A4 JUMPDEST DUP8 PUSH1 0x1 PUSH1 0x1 PUSH1 0xA0 SHL SUB PUSH2 0x682 PUSH2 0xDF6 JUMP JUMPDEST AND SWAP3 PUSH2 0x6B7 PUSH2 0x68F PUSH2 0xE0C JUMP JUMPDEST PUSH2 0x6A9 PUSH2 0x69A PUSH2 0xE22 JUMP JUMPDEST SWAP8 DUP10 MLOAD SWAP9 DUP10 SWAP4 PUSH1 0x20 DUP6 ADD PUSH2 0xE78 JUMP JUMPDEST SUB PUSH1 0x1F NOT DUP2 ADD DUP8 MSTORE DUP7 PUSH2 0xC93 JUMP JUMPDEST DUP6 MLOAD PUSH4 0x2515961 PUSH1 0xE3 SHL DUP2 MSTORE SWAP7 DUP8 SWAP6 DUP7 SWAP5 DUP6 SWAP4 PUSH1 0x2 DUP13 AND ISZERO ISZERO ADDRESS PUSH1 0x4 DUP8 ADD PUSH2 0xEC1 JUMP JUMPDEST SUB SWAP3 GAS CALL SWAP2 DUP3 ISZERO PUSH2 0x747 JUMPI DUP5 SWAP2 DUP6 SWAP4 PUSH2 0x711 JUMPI JUMPDEST POP PUSH1 0x2 AND ISZERO PUSH2 0x707 JUMPI POP PUSH2 0x701 SWAP1 PUSH2 0xEFA JUMP JUMPDEST POP PUSH2 0x5CC JUMP JUMPDEST PUSH2 0x701 SWAP2 POP PUSH2 0xEFA JUMP JUMPDEST PUSH2 0x738 SWAP2 SWAP4 POP PUSH1 0x2 SWAP3 POP PUSH1 0x40 RETURNDATASIZE PUSH1 0x40 GT PUSH2 0x740 JUMPI JUMPDEST PUSH2 0x730 DUP2 DUP4 PUSH2 0xC93 JUMP JUMPDEST DUP2 ADD SWAP1 PUSH2 0xEAB JUMP JUMPDEST SWAP3 SWAP1 SWAP2 PUSH2 0x6EE JUMP JUMPDEST POP RETURNDATASIZE PUSH2 0x726 JUMP JUMPDEST PUSH1 0x40 MLOAD RETURNDATASIZE DUP7 DUP3 RETURNDATACOPY RETURNDATASIZE SWAP1 REVERT JUMPDEST PUSH20 0xFFFD8963EFD1FC6A506488495D951D5263988D25 PUSH2 0x671 JUMP JUMPDEST SWAP2 SWAP3 POP PUSH1 0x24 SWAP2 PUSH1 0x20 SWAP2 SWAP1 PUSH1 0x2 DUP8 AND ISZERO PUSH2 0x804 JUMPI POP PUSH1 0x1 PUSH1 0x1 PUSH1 0xA0 SHL SUB AND JUMPDEST PUSH1 0x40 MLOAD PUSH4 0x70A08231 PUSH1 0xE0 SHL DUP2 MSTORE ADDRESS PUSH1 0x4 DUP3 ADD MSTORE SWAP3 DUP4 SWAP2 DUP3 SWAP1 PUSH1 0x1 PUSH1 0x1 PUSH1 0xA0 SHL SUB AND GAS STATICCALL SWAP1 DUP2 ISZERO PUSH2 0x7F9 JUMPI DUP6 SWAP2 PUSH2 0x7C4 JUMPI JUMPDEST POP SWAP1 DUP8 DUP1 PUSH2 0x4FE JUMP JUMPDEST SWAP5 POP POP PUSH1 0x20 DUP5 RETURNDATASIZE PUSH1 0x20 GT PUSH2 0x7F1 JUMPI JUMPDEST DUP2 PUSH2 0x7E0 PUSH1 0x20 SWAP4 DUP4 PUSH2 0xC93 JUMP JUMPDEST DUP2 ADD SUB SLT PUSH2 0x48B JUMPI DUP6 SWAP4 MLOAD DUP8 PUSH2 0x7BB JUMP JUMPDEST RETURNDATASIZE SWAP2 POP PUSH2 0x7D3 JUMP JUMPDEST PUSH1 0x40 MLOAD RETURNDATASIZE DUP8 DUP3 RETURNDATACOPY RETURNDATASIZE SWAP1 REVERT JUMPDEST PUSH1 0x1 PUSH1 0x1 PUSH1 0xA0 SHL SUB AND SWAP1 POP PUSH2 0x78A JUMP JUMPDEST SWAP4 SWAP5 SWAP1 SWAP6 PUSH2 0x821 SWAP1 PUSH2 0xC4F JUMP JUMPDEST SWAP4 SWAP3 DUP6 SWAP1 PUSH2 0x35E JUMP JUMPDEST SWAP9 POP PUSH2 0x838 SWAP2 PUSH1 0xA4 CALLDATALOAD PUSH2 0xBED JUMP JUMPDEST SWAP7 PUSH2 0x29A JUMP JUMPDEST SWAP1 POP PUSH2 0x859 SWAP2 POP PUSH1 0x60 RETURNDATASIZE PUSH1 0x60 GT PUSH2 0x643 JUMPI PUSH2 0x633 DUP2 DUP4 PUSH2 0xC93 JUMP JUMPDEST POP SWAP1 DUP10 PUSH2 0x26F JUMP JUMPDEST PUSH1 0x40 MLOAD RETURNDATASIZE DUP10 DUP3 RETURNDATACOPY RETURNDATASIZE SWAP1 REVERT JUMPDEST SWAP5 SWAP6 SWAP4 SWAP5 DUP7 SWAP5 SWAP1 SWAP2 POP PUSH1 0x2 DUP2 AND ISZERO PUSH2 0x958 JUMPI PUSH2 0x8F6 PUSH1 0x40 PUSH5 0x1000276A4 JUMPDEST PUSH1 0x1 PUSH1 0x1 PUSH1 0xA0 SHL SUB PUSH2 0x89A PUSH2 0xDF6 JUMP JUMPDEST AND PUSH2 0x8A3 PUSH2 0xE0C JUMP JUMPDEST SWAP2 PUSH2 0x8D0 PUSH2 0x8AF PUSH2 0xE22 JUMP JUMPDEST SWAP4 PUSH2 0x8C2 DUP11 DUP8 MLOAD SWAP7 DUP8 SWAP4 PUSH1 0x20 DUP6 ADD PUSH2 0xE78 JUMP JUMPDEST SUB PUSH1 0x1F NOT DUP2 ADD DUP6 MSTORE DUP5 PUSH2 0xC93 JUMP JUMPDEST DUP10 DUP5 MLOAD DUP1 SWAP7 DUP2 SWAP6 DUP3 SWAP5 PUSH4 0x2515961 PUSH1 0xE3 SHL DUP5 MSTORE PUSH1 0xA4 CALLDATALOAD PUSH1 0x2 DUP13 AND ISZERO ISZERO ADDRESS PUSH1 0x4 DUP8 ADD PUSH2 0xEC1 JUMP JUMPDEST SUB SWAP3 GAS CALL SWAP2 DUP3 ISZERO PUSH2 0x64A JUMPI DUP7 SWAP2 DUP8 SWAP4 PUSH2 0x932 JUMPI JUMPDEST POP PUSH1 0x2 AND ISZERO PUSH2 0x923 JUMPI POP PUSH2 0x91D SWAP1 PUSH2 0xEFA JUMP JUMPDEST SWAP1 PUSH2 0x365 JUMP JUMPDEST PUSH2 0x92D SWAP2 POP PUSH2 0xEFA JUMP JUMPDEST PUSH2 0x91D JUMP JUMPDEST PUSH2 0x950 SWAP2 SWAP4 POP PUSH1 0x2 SWAP3 POP PUSH1 0x40 RETURNDATASIZE PUSH1 0x40 GT PUSH2 0x740 JUMPI PUSH2 0x730 DUP2 DUP4 PUSH2 0xC93 JUMP JUMPDEST SWAP3 SWAP1 SWAP2 PUSH2 0x90A JUMP JUMPDEST PUSH2 0x8F6 PUSH1 0x40 PUSH20 0xFFFD8963EFD1FC6A506488495D951D5263988D25 PUSH2 0x88A JUMP JUMPDEST SWAP1 SWAP3 POP SWAP1 PUSH1 0x1 SWAP1 PUSH1 0x80 SWAP1 DUP2 SWAP1 PUSH1 0x1 PUSH1 0x1 PUSH1 0xA0 SHL SUB DUP1 PUSH2 0x995 DUP10 PUSH2 0xB89 JUMP JUMPDEST AND DUP3 MSTORE PUSH1 0x20 DUP9 ADD CALLDATALOAD PUSH1 0x20 DUP4 ADD MSTORE DUP1 PUSH2 0x9AF PUSH1 0x40 DUP11 ADD PUSH2 0xB89 JUMP JUMPDEST AND PUSH1 0x40 DUP4 ADD MSTORE PUSH2 0x9C1 PUSH1 0x60 DUP10 ADD PUSH2 0xB89 JUMP JUMPDEST AND PUSH1 0x60 DUP3 ADD MSTORE ADD SWAP5 ADD SWAP2 ADD SWAP2 DUP6 SWAP3 SWAP4 SWAP2 SWAP4 PUSH2 0x211 JUMP JUMPDEST POP CALLVALUE PUSH2 0x17C JUMPI DUP1 PUSH1 0x3 NOT CALLDATASIZE ADD SLT PUSH2 0x17C JUMPI SLOAD PUSH1 0x40 MLOAD PUSH1 0x1 PUSH1 0x1 PUSH1 0xA0 SHL SUB SWAP1 SWAP2 AND DUP2 MSTORE PUSH1 0x20 SWAP1 RETURN JUMPDEST POP CALLVALUE PUSH2 0x17C JUMPI DUP1 PUSH1 0x3 NOT CALLDATASIZE ADD SLT PUSH2 0x17C JUMPI DUP1 SLOAD PUSH1 0x1 PUSH1 0x1 PUSH1 0xA0 SHL SUB AND CALLER DUP2 SWAP1 SUB PUSH2 0xA4F JUMPI DUP2 DUP1 DUP1 DUP1 SWAP4 SELFBALANCE SWAP1 DUP3 DUP3 ISZERO PUSH2 0xA46 JUMPI JUMPDEST CALL ISZERO PUSH2 0xA3A JUMPI DUP1 RETURN JUMPDEST PUSH1 0x40 MLOAD SWAP1 RETURNDATASIZE SWAP1 DUP3 RETURNDATACOPY RETURNDATASIZE SWAP1 REVERT JUMPDEST POP PUSH2 0x8FC PUSH2 0xA31 JUMP JUMPDEST PUSH1 0x40 MLOAD PUSH3 0x461BCD PUSH1 0xE5 SHL DUP2 MSTORE PUSH1 0x20 PUSH1 0x4 DUP3 ADD MSTORE PUSH1 0x1 PUSH1 0x24 DUP3 ADD MSTORE PUSH1 0x6F PUSH1 0xF8 SHL PUSH1 0x44 DUP3 ADD MSTORE PUSH1 0x64 SWAP1 REVERT JUMPDEST POP CALLVALUE PUSH2 0x17C JUMPI PUSH1 0x80 CALLDATASIZE PUSH1 0x3 NOT ADD SLT PUSH2 0x17C JUMPI PUSH1 0x1 PUSH1 0x1 PUSH1 0xA0 SHL SUB PUSH1 0x4 CALLDATALOAD DUP2 DUP2 AND SUB PUSH2 0x44B JUMPI PUSH1 0x1 PUSH1 0x1 PUSH1 0x40 SHL SUB PUSH1 0x24 CALLDATALOAD PUSH1 0x44 CALLDATALOAD PUSH1 0x64 CALLDATALOAD DUP4 DUP2 GT PUSH2 0x174 JUMPI PUSH2 0xAC3 SWAP1 CALLDATASIZE SWAP1 PUSH1 0x4 ADD PUSH2 0xB9D JUMP JUMPDEST DUP2 ADD SWAP4 SWAP1 PUSH1 0x80 DUP2 DUP7 SUB SLT PUSH2 0xB58 JUMPI PUSH2 0xADA DUP2 PUSH2 0xB89 JUMP JUMPDEST SWAP4 PUSH2 0xAE7 PUSH1 0x20 DUP4 ADD PUSH2 0xB89 JUMP JUMPDEST SWAP3 PUSH1 0x40 DUP4 ADD CALLDATALOAD SWAP1 DUP2 GT PUSH2 0x170 JUMPI PUSH1 0x60 PUSH2 0xB08 PUSH2 0xB1D SWAP9 PUSH2 0xB2D SWAP4 DUP7 ADD PUSH2 0xCD1 JUMP JUMPDEST SWAP4 ADD CALLDATALOAD SWAP7 DUP4 PUSH1 0x20 DUP1 DUP11 SWAP7 MLOAD DUP4 ADD ADD SWAP2 ADD PUSH2 0xD2C JUMP JUMPDEST DUP3 ISZERO DUP1 ISZERO SWAP4 SWAP1 PUSH2 0xB50 JUMPI SWAP1 PUSH2 0xF7F JUMP JUMPDEST PUSH2 0xB3C JUMPI JUMPDEST POP POP PUSH2 0x10D JUMPI DUP4 DUP1 RETURN JUMPDEST PUSH2 0xB49 SWAP2 DUP7 CALLER SWAP2 AND PUSH2 0x144F JUMP JUMPDEST CODESIZE DUP4 PUSH2 0xB32 JUMP JUMPDEST POP DUP6 SWAP1 PUSH2 0xF7F JUMP JUMPDEST DUP7 DUP1 REVERT JUMPDEST POP CALLVALUE PUSH2 0x17C JUMPI PUSH1 0x60 CALLDATASIZE PUSH1 0x3 NOT ADD SLT PUSH2 0x17C JUMPI PUSH1 0x20 PUSH2 0xB81 PUSH1 0x44 CALLDATALOAD PUSH1 0x24 CALLDATALOAD PUSH1 0x4 CALLDATALOAD PUSH2 0xBED JUMP JUMPDEST PUSH1 0x40 MLOAD SWAP1 DUP2 MSTORE RETURN JUMPDEST CALLDATALOAD SWAP1 PUSH1 0x1 PUSH1 0x1 PUSH1 0xA0 SHL SUB DUP3 AND DUP3 SUB PUSH2 0x48B JUMPI JUMP JUMPDEST SWAP2 DUP2 PUSH1 0x1F DUP5 ADD SLT ISZERO PUSH2 0x48B JUMPI DUP3 CALLDATALOAD SWAP2 PUSH1 0x1 PUSH1 0x1 PUSH1 0x40 SHL SUB DUP4 GT PUSH2 0x48B JUMPI PUSH1 0x20 DUP4 DUP2 DUP7 ADD SWAP6 ADD ADD GT PUSH2 0x48B JUMPI JUMP JUMPDEST SWAP2 SWAP1 DUP3 ADD DUP1 SWAP3 GT PUSH2 0xBD7 JUMPI JUMP JUMPDEST PUSH4 0x4E487B71 PUSH1 0xE0 SHL PUSH1 0x0 MSTORE PUSH1 0x11 PUSH1 0x4 MSTORE PUSH1 0x24 PUSH1 0x0 REVERT JUMPDEST PUSH2 0x3E5 DUP1 DUP3 MUL SWAP2 DUP1 DUP4 DIV DUP3 EQ DUP2 ISZERO OR ISZERO PUSH2 0xBD7 JUMPI DUP5 MUL MUL SWAP3 DUP2 DUP5 DIV EQ DUP2 ISZERO OR ISZERO PUSH2 0xBD7 JUMPI PUSH2 0x3E8 SWAP2 DUP3 DUP2 MUL SWAP3 DUP2 DUP5 DIV EQ SWAP1 ISZERO OR ISZERO PUSH2 0xBD7 JUMPI PUSH2 0xC2E SWAP2 PUSH2 0xBCA JUMP JUMPDEST SWAP1 DUP2 ISZERO PUSH2 0xC39 JUMPI DIV SWAP1 JUMP JUMPDEST PUSH4 0x4E487B71 PUSH1 0xE0 SHL PUSH1 0x0 MSTORE PUSH1 0x12 PUSH1 0x4 MSTORE PUSH1 0x24 PUSH1 0x0 REVERT JUMPDEST PUSH1 0x1 PUSH1 0x1 PUSH1 0x40 SHL SUB DUP2 GT PUSH2 0xC62 JUMPI PUSH1 0x40 MSTORE JUMP JUMPDEST PUSH4 0x4E487B71 PUSH1 0xE0 SHL PUSH1 0x0 MSTORE PUSH1 0x41 PUSH1 0x4 MSTORE PUSH1 0x24 PUSH1 0x0 REVERT JUMPDEST PUSH1 0x80 DUP2 ADD SWAP1 DUP2 LT PUSH1 0x1 PUSH1 0x1 PUSH1 0x40 SHL SUB DUP3 GT OR PUSH2 0xC62 JUMPI PUSH1 0x40 MSTORE JUMP JUMPDEST PUSH1 0x1F SWAP1 SWAP2 ADD PUSH1 0x1F NOT AND DUP2 ADD SWAP1 PUSH1 0x1 PUSH1 0x1 PUSH1 0x40 SHL SUB DUP3 GT SWAP1 DUP3 LT OR PUSH2 0xC62 JUMPI PUSH1 0x40 MSTORE JUMP JUMPDEST PUSH1 0x1 PUSH1 0x1 PUSH1 0x40 SHL SUB DUP2 GT PUSH2 0xC62 JUMPI PUSH1 0x1F ADD PUSH1 0x1F NOT AND PUSH1 0x20 ADD SWAP1 JUMP JUMPDEST DUP2 PUSH1 0x1F DUP3 ADD SLT ISZERO PUSH2 0x48B JUMPI DUP1 CALLDATALOAD SWAP1 PUSH2 0xCE8 DUP3 PUSH2 0xCB6 JUMP JUMPDEST SWAP3 PUSH2 0xCF6 PUSH1 0x40 MLOAD SWAP5 DUP6 PUSH2 0xC93 JUMP JUMPDEST DUP3 DUP5 MSTORE PUSH1 0x20 DUP4 DUP4 ADD ADD GT PUSH2 0x48B JUMPI DUP2 PUSH1 0x0 SWAP3 PUSH1 0x20 DUP1 SWAP4 ADD DUP4 DUP7 ADD CALLDATACOPY DUP4 ADD ADD MSTORE SWAP1 JUMP JUMPDEST MLOAD SWAP1 PUSH1 0x1 PUSH1 0x1 PUSH1 0xA0 SHL SUB DUP3 AND DUP3 SUB PUSH2 0x48B JUMPI JUMP JUMPDEST PUSH1 0x20 DUP1 DUP3 DUP5 SUB SLT PUSH2 0x48B JUMPI DUP2 MLOAD PUSH1 0x1 PUSH1 0x1 PUSH1 0x40 SHL SUB SWAP3 DUP4 DUP3 GT PUSH2 0x48B JUMPI ADD SWAP1 DUP4 PUSH1 0x1F DUP4 ADD SLT ISZERO PUSH2 0x48B JUMPI DUP2 MLOAD SWAP3 DUP4 GT PUSH2 0xC62 JUMPI PUSH1 0x40 SWAP3 PUSH1 0x40 MLOAD SWAP5 PUSH2 0xD75 DUP4 DUP4 PUSH1 0x5 SHL ADD DUP8 PUSH2 0xC93 JUMP JUMPDEST DUP2 DUP7 MSTORE DUP3 DUP1 DUP8 ADD SWAP3 PUSH1 0x7 SHL DUP6 ADD ADD SWAP4 DUP2 DUP6 GT PUSH2 0x48B JUMPI DUP4 ADD SWAP2 JUMPDEST DUP5 DUP4 LT PUSH2 0xD9F JUMPI POP POP POP POP POP POP SWAP1 JUMP JUMPDEST PUSH1 0x80 DUP4 DUP4 SUB SLT PUSH2 0x48B JUMPI DUP4 PUSH1 0x80 SWAP2 DUP8 MLOAD PUSH2 0xDB8 DUP2 PUSH2 0xC78 JUMP JUMPDEST PUSH2 0xDC1 DUP7 PUSH2 0xD18 JUMP JUMPDEST DUP2 MSTORE DUP3 DUP7 ADD MLOAD DUP4 DUP3 ADD MSTORE PUSH2 0xDD6 DUP10 DUP8 ADD PUSH2 0xD18 JUMP JUMPDEST DUP10 DUP3 ADD MSTORE PUSH1 0x60 PUSH2 0xDE7 DUP2 DUP9 ADD PUSH2 0xD18 JUMP JUMPDEST SWAP1 DUP3 ADD MSTORE DUP2 MSTORE ADD SWAP3 ADD SWAP2 PUSH2 0xD8F JUMP JUMPDEST PUSH1 0x4 CALLDATALOAD PUSH1 0x1 PUSH1 0x1 PUSH1 0xA0 SHL SUB DUP2 AND DUP2 SUB PUSH2 0x48B JUMPI SWAP1 JUMP JUMPDEST PUSH1 0x44 CALLDATALOAD PUSH1 0x1 PUSH1 0x1 PUSH1 0xA0 SHL SUB DUP2 AND DUP2 SUB PUSH2 0x48B JUMPI SWAP1 JUMP JUMPDEST PUSH1 0x64 CALLDATALOAD PUSH1 0x1 PUSH1 0x1 PUSH1 0xA0 SHL SUB DUP2 AND DUP2 SUB PUSH2 0x48B JUMPI SWAP1 JUMP JUMPDEST SWAP2 SWAP1 DUP3 MLOAD SWAP3 DUP4 DUP3 MSTORE PUSH1 0x0 JUMPDEST DUP5 DUP2 LT PUSH2 0xE64 JUMPI POP POP DUP3 PUSH1 0x0 PUSH1 0x20 DUP1 SWAP5 SWAP6 DUP5 ADD ADD MSTORE PUSH1 0x1F DUP1 NOT SWAP2 ADD AND ADD ADD SWAP1 JUMP JUMPDEST PUSH1 0x20 DUP2 DUP4 ADD DUP2 ADD MLOAD DUP5 DUP4 ADD DUP3 ADD MSTORE ADD PUSH2 0xE43 JUMP JUMPDEST PUSH1 0x1 PUSH1 0x1 PUSH1 0xA0 SHL SUB SWAP2 DUP3 AND DUP2 MSTORE SWAP2 AND PUSH1 0x20 DUP3 ADD MSTORE PUSH1 0x1 PUSH1 0x40 DUP3 ADD MSTORE PUSH1 0x80 PUSH1 0x60 DUP3 ADD DUP2 SWAP1 MSTORE PUSH2 0xEA8 SWAP3 SWAP2 ADD SWAP1 PUSH2 0xE38 JUMP JUMPDEST SWAP1 JUMP JUMPDEST SWAP2 SWAP1 DUP3 PUSH1 0x40 SWAP2 SUB SLT PUSH2 0x48B JUMPI PUSH1 0x20 DUP3 MLOAD SWAP3 ADD MLOAD SWAP1 JUMP JUMPDEST PUSH1 0x1 PUSH1 0x1 PUSH1 0xA0 SHL SUB SWAP2 DUP3 AND DUP2 MSTORE SWAP2 ISZERO ISZERO PUSH1 0x20 DUP4 ADD MSTORE PUSH1 0x40 DUP3 ADD SWAP3 SWAP1 SWAP3 MSTORE SWAP2 AND PUSH1 0x60 DUP3 ADD MSTORE PUSH1 0xA0 PUSH1 0x80 DUP3 ADD DUP2 SWAP1 MSTORE PUSH2 0xEA8 SWAP3 SWAP2 ADD SWAP1 PUSH2 0xE38 JUMP JUMPDEST PUSH1 0x1 PUSH1 0xFF SHL DUP2 EQ PUSH2 0xBD7 JUMPI PUSH1 0x0 SUB SWAP1 JUMP JUMPDEST MLOAD SWAP1 PUSH1 0x1 PUSH1 0x1 PUSH1 0x70 SHL SUB DUP3 AND DUP3 SUB PUSH2 0x48B JUMPI JUMP JUMPDEST SWAP1 DUP2 PUSH1 0x60 SWAP2 SUB SLT PUSH2 0x48B JUMPI PUSH2 0xF33 DUP2 PUSH2 0xF0B JUMP JUMPDEST SWAP2 PUSH1 0x40 PUSH2 0xF42 PUSH1 0x20 DUP5 ADD PUSH2 0xF0B JUMP JUMPDEST SWAP3 ADD MLOAD PUSH4 0xFFFFFFFF DUP2 AND DUP2 SUB PUSH2 0x48B JUMPI SWAP1 JUMP JUMPDEST SWAP2 PUSH1 0xA0 SWAP4 SWAP2 DUP4 MSTORE PUSH1 0x20 DUP4 ADD MSTORE PUSH1 0x1 DUP1 DUP5 SHL SUB AND PUSH1 0x40 DUP3 ADD MSTORE PUSH1 0x80 PUSH1 0x60 DUP3 ADD MSTORE PUSH1 0x0 PUSH1 0x80 DUP3 ADD MSTORE ADD SWAP1 JUMP JUMPDEST SWAP2 SWAP1 PUSH1 0x0 JUMPDEST DUP4 MLOAD DUP2 LT ISZERO PUSH2 0x1449 JUMPI PUSH1 0x20 SWAP2 DUP3 DUP3 PUSH1 0x5 SHL DUP7 ADD ADD MLOAD SWAP3 DUP1 DUP5 ADD MLOAD SWAP2 PUSH1 0x1 PUSH1 0x2 DUP5 AND ISZERO ISZERO SWAP4 AND ISZERO PUSH1 0x0 EQ PUSH2 0x120F JUMPI DUP5 MLOAD PUSH1 0x40 DUP1 MLOAD PUSH4 0x240BC6B PUSH1 0xE2 SHL DUP2 MSTORE SWAP1 SWAP5 PUSH1 0x4 SWAP5 SWAP1 SWAP3 PUSH1 0x1 PUSH1 0x1 PUSH1 0xA0 SHL SUB SWAP3 PUSH1 0x60 SWAP3 SWAP1 SWAP2 DUP4 SWAP1 DUP4 SWAP1 DUP10 SWAP1 DUP3 SWAP1 DUP9 AND GAS STATICCALL SWAP2 DUP3 ISZERO PUSH2 0x1114 JUMPI PUSH1 0x0 SWAP1 DUP2 SWAP4 PUSH2 0x11EC JUMPI JUMPDEST POP PUSH1 0x1 DUP1 PUSH1 0x70 SHL SUB DUP1 SWAP2 AND SWAP3 AND SWAP3 PUSH1 0x0 SWAP7 DUP12 DUP9 SWAP2 DUP1 SWAP9 PUSH1 0x0 EQ PUSH2 0x111F JUMPI POP POP POP POP DUP5 ISZERO PUSH2 0x10A4 JUMPI JUMPDEST POP PUSH2 0x103B SWAP2 PUSH2 0x102A SWAP2 DUP6 PUSH2 0xBED JUMP JUMPDEST SWAP3 DUP3 DUP8 DUP11 ADD MLOAD AND DUP4 DUP11 MLOAD AND SWAP1 PUSH2 0x144F JUMP JUMPDEST PUSH1 0x0 SWAP7 MLOAD AND SWAP2 DUP3 EXTCODESIZE ISZERO PUSH2 0xB58 JUMPI SWAP2 DUP5 SWAP4 SWAP2 DUP8 DUP1 SWAP5 PUSH2 0x106E SWAP8 MLOAD SWAP8 DUP9 SWAP6 DUP7 SWAP5 DUP6 SWAP4 PUSH4 0x22C0D9F PUSH1 0xE0 SHL DUP6 MSTORE ADDRESS SWAP3 DUP6 ADD PUSH2 0xF55 JUMP JUMPDEST SUB SWAP3 GAS CALL SWAP1 DUP2 ISZERO PUSH2 0x109B JUMPI POP SWAP1 PUSH1 0x1 SWAP3 SWAP2 PUSH2 0x108C JUMPI JUMPDEST POP JUMPDEST ADD PUSH2 0xF84 JUMP JUMPDEST PUSH2 0x1095 SWAP1 PUSH2 0xC4F JUMP JUMPDEST CODESIZE PUSH2 0x1084 JUMP JUMPDEST MLOAD RETURNDATASIZE DUP6 DUP3 RETURNDATACOPY RETURNDATASIZE SWAP1 REVERT JUMPDEST SWAP1 SWAP4 POP PUSH1 0x24 DUP2 DUP5 DUP10 DUP13 ADD MLOAD AND DUP10 MLOAD SWAP3 DUP4 DUP1 SWAP3 PUSH4 0x70A08231 PUSH1 0xE0 SHL DUP3 MSTORE ADDRESS DUP13 DUP4 ADD MSTORE GAS STATICCALL SWAP2 DUP3 ISZERO PUSH2 0x1114 JUMPI PUSH1 0x0 SWAP3 PUSH2 0x10E3 JUMPI JUMPDEST POP SWAP1 SWAP4 SWAP1 POP PUSH2 0x103B PUSH2 0x101B JUMP JUMPDEST DUP2 DUP2 SWAP4 SWAP3 SWAP4 RETURNDATASIZE DUP4 GT PUSH2 0x110D JUMPI JUMPDEST PUSH2 0x10FA DUP2 DUP4 PUSH2 0xC93 JUMP JUMPDEST DUP2 ADD SUB SLT PUSH2 0x17C JUMPI POP MLOAD DUP2 PUSH2 0x102A PUSH2 0x10D6 JUMP JUMPDEST POP RETURNDATASIZE PUSH2 0x10F0 JUMP JUMPDEST DUP9 MLOAD RETURNDATASIZE PUSH1 0x0 DUP3 RETURNDATACOPY RETURNDATASIZE SWAP1 REVERT JUMPDEST SWAP9 DUP4 DUP9 SWAP6 SWAP3 SWAP8 SWAP4 SWAP10 SWAP7 SWAP5 SWAP11 ISZERO PUSH2 0x1157 JUMPI JUMPDEST POP POP POP PUSH2 0x1152 SWAP5 POP SWAP1 PUSH2 0x1143 SWAP2 DUP5 PUSH2 0xBED JUMP JUMPDEST SWAP6 DUP11 ADD MLOAD AND DUP4 DUP11 MLOAD AND SWAP1 PUSH2 0x144F JUMP JUMPDEST PUSH2 0x103B JUMP JUMPDEST PUSH1 0x24 SWAP5 SWAP6 SWAP2 SWAP4 SWAP7 POP DUP3 SWAP8 ADD MLOAD AND DUP12 MLOAD SWAP4 DUP5 DUP1 SWAP3 PUSH4 0x70A08231 PUSH1 0xE0 SHL DUP3 MSTORE DUP14 ADDRESS SWAP1 DUP4 ADD MSTORE GAS STATICCALL SWAP5 DUP6 ISZERO PUSH2 0x11E0 JUMPI SWAP1 DUP7 SWAP4 SWAP3 SWAP2 DUP2 SWAP7 PUSH2 0x11A3 JUMPI JUMPDEST POP DUP13 SWAP6 SWAP5 SWAP2 POP PUSH2 0x1143 SWAP1 POP PUSH2 0x1152 DUP10 PUSH2 0x1130 JUMP JUMPDEST DUP3 SWAP5 POP DUP1 SWAP3 SWAP2 SWAP4 SWAP6 SWAP7 POP RETURNDATASIZE DUP4 GT PUSH2 0x11D9 JUMPI JUMPDEST PUSH2 0x11BF DUP2 DUP4 PUSH2 0xC93 JUMP JUMPDEST DUP2 ADD SUB SLT PUSH2 0x17C JUMPI POP MLOAD SWAP2 SWAP1 DUP4 SWAP1 DUP1 PUSH2 0x1152 PUSH2 0x1143 PUSH2 0x118F JUMP JUMPDEST POP RETURNDATASIZE PUSH2 0x11B5 JUMP JUMPDEST POP DUP10 MLOAD SWAP1 RETURNDATASIZE SWAP1 DUP3 RETURNDATACOPY RETURNDATASIZE SWAP1 REVERT JUMPDEST SWAP1 POP PUSH2 0x1206 SWAP2 SWAP3 POP DUP4 RETURNDATASIZE DUP6 GT PUSH2 0x643 JUMPI PUSH2 0x633 DUP2 DUP4 PUSH2 0xC93 JUMP JUMPDEST POP SWAP2 SWAP1 CODESIZE PUSH2 0xFF3 JUMP JUMPDEST SWAP4 SWAP6 SWAP5 SWAP4 SWAP1 SWAP2 DUP2 ISZERO PUSH2 0x1341 JUMPI JUMPDEST DUP1 ISZERO PUSH2 0x1326 JUMPI PUSH5 0x1000276A4 SWAP3 JUMPDEST PUSH1 0x1 DUP1 PUSH1 0xA0 SHL SUB SWAP3 DUP4 DUP10 MLOAD AND SWAP2 PUSH1 0x0 PUSH1 0x40 SWAP11 DUP7 DUP13 DUP3 ADD MLOAD AND SWAP7 PUSH1 0x60 DUP1 SWAP3 ADD MLOAD AND DUP13 MLOAD SWAP8 PUSH1 0xA0 SWAP5 DUP10 ADD MSTORE DUP13 DUP9 ADD MSTORE DUP7 ADD MSTORE PUSH1 0x80 DUP1 DUP7 ADD MSTORE PUSH1 0x0 DUP2 DUP7 ADD MSTORE DUP5 MSTORE PUSH1 0xC0 SWAP5 DUP6 DUP6 ADD SWAP3 DUP6 DUP5 LT PUSH1 0x1 DUP1 PUSH1 0x40 SHL SUB DUP6 GT OR PUSH2 0xC62 JUMPI DUP4 PUSH1 0x0 DUP13 SWAP5 DUP9 PUSH2 0x12A8 DUP2 DUP6 SWAP8 DUP7 DUP11 MSTORE PUSH4 0x2515961 PUSH1 0xE3 SHL DUP8 MSTORE PUSH1 0xBF NOT SWAP5 DUP13 ADDRESS PUSH1 0xC4 DUP6 ADD PUSH2 0xEC1 JUMP JUMPDEST SUB ADD SWAP3 GAS CALL SWAP4 DUP5 ISZERO PUSH2 0x1114 JUMPI PUSH1 0x1 SWAP6 SWAP7 SWAP8 SWAP9 PUSH1 0x0 SWAP5 DUP6 SWAP7 PUSH2 0x12EE JUMPI JUMPDEST POP POP POP POP PUSH1 0x0 EQ PUSH2 0x12DF JUMPI POP PUSH2 0x12D9 SWAP1 PUSH2 0xEFA JUMP JUMPDEST SWAP2 PUSH2 0x1086 JUMP JUMPDEST PUSH2 0x12E9 SWAP2 POP PUSH2 0xEFA JUMP JUMPDEST PUSH2 0x12D9 JUMP JUMPDEST SWAP1 DUP1 SWAP3 SWAP4 SWAP5 SWAP7 POP PUSH2 0x1314 SWAP6 POP SWAP2 RETURNDATASIZE LT PUSH2 0x131E JUMPI JUMPDEST PUSH2 0x130C DUP3 DUP6 PUSH2 0xC93 JUMP JUMPDEST ADD ADD SWAP1 PUSH2 0xEAB JUMP JUMPDEST SWAP2 CODESIZE DUP1 DUP1 DUP1 PUSH2 0x12C4 JUMP JUMPDEST RETURNDATASIZE SWAP2 POP PUSH2 0x1302 JUMP JUMPDEST PUSH20 0xFFFD8963EFD1FC6A506488495D951D5263988D25 SWAP3 PUSH2 0x122A JUMP JUMPDEST SWAP1 POP PUSH1 0x0 DUP2 ISZERO PUSH2 0x13C8 JUMPI POP PUSH1 0x40 DUP7 DUP2 ADD MLOAD DUP2 MLOAD PUSH4 0x70A08231 PUSH1 0xE0 SHL DUP2 MSTORE ADDRESS PUSH1 0x4 DUP3 ADD MSTORE SWAP1 DUP5 SWAP1 DUP3 SWAP1 PUSH1 0x24 SWAP1 DUP3 SWAP1 PUSH1 0x1 PUSH1 0x1 PUSH1 0xA0 SHL SUB AND GAS STATICCALL SWAP2 DUP3 ISZERO PUSH2 0x13BE JUMPI POP PUSH1 0x0 SWAP2 PUSH2 0x1391 JUMPI JUMPDEST POP JUMPDEST SWAP1 PUSH2 0x121C JUMP JUMPDEST SWAP1 DUP4 DUP3 DUP2 RETURNDATASIZE DUP4 GT PUSH2 0x13B7 JUMPI JUMPDEST PUSH2 0x13A7 DUP2 DUP4 PUSH2 0xC93 JUMP JUMPDEST DUP2 ADD SUB SLT PUSH2 0x17C JUMPI POP MLOAD CODESIZE PUSH2 0x1389 JUMP JUMPDEST POP RETURNDATASIZE PUSH2 0x139D JUMP JUMPDEST MLOAD RETURNDATASIZE PUSH1 0x0 DUP3 RETURNDATACOPY RETURNDATASIZE SWAP1 REVERT JUMPDEST PUSH1 0x60 DUP8 ADD MLOAD PUSH1 0x40 DUP1 MLOAD PUSH4 0x70A08231 PUSH1 0xE0 SHL DUP2 MSTORE ADDRESS PUSH1 0x4 DUP3 ADD MSTORE SWAP1 SWAP3 SWAP1 SWAP2 DUP6 SWAP1 DUP4 SWAP1 PUSH1 0x24 SWAP1 DUP3 SWAP1 PUSH1 0x1 PUSH1 0x1 PUSH1 0xA0 SHL SUB AND GAS STATICCALL SWAP3 DUP4 ISZERO PUSH2 0x143F JUMPI POP DUP1 SWAP3 PUSH2 0x140F JUMPI JUMPDEST POP POP PUSH2 0x138B JUMP JUMPDEST SWAP1 SWAP2 POP DUP4 DUP3 DUP2 RETURNDATASIZE DUP4 GT PUSH2 0x1438 JUMPI JUMPDEST PUSH2 0x1427 DUP2 DUP4 PUSH2 0xC93 JUMP JUMPDEST DUP2 ADD SUB SLT PUSH2 0x17C JUMPI POP MLOAD CODESIZE DUP1 PUSH2 0x1408 JUMP JUMPDEST POP RETURNDATASIZE PUSH2 0x141D JUMP JUMPDEST MLOAD SWAP1 RETURNDATASIZE SWAP1 DUP3 RETURNDATACOPY RETURNDATASIZE SWAP1 REVERT JUMPDEST POP POP SWAP1 POP JUMP JUMPDEST PUSH1 0x40 MLOAD PUSH4 0xA9059CBB PUSH1 0xE0 SHL PUSH1 0x20 DUP3 ADD SWAP1 DUP2 MSTORE PUSH1 0x1 PUSH1 0x1 PUSH1 0xA0 SHL SUB SWAP1 SWAP4 AND PUSH1 0x24 DUP3 ADD MSTORE PUSH1 0x44 DUP1 DUP3 ADD SWAP5 SWAP1 SWAP5 MSTORE SWAP3 DUP4 MSTORE SWAP2 PUSH2 0x1487 DUP2 PUSH2 0xC78 JUMP JUMPDEST PUSH1 0x0 SWAP3 DUP4 SWAP3 DUP4 DUP1 SWAP4 MLOAD SWAP3 GAS CALL SWAP1 RETURNDATASIZE ISZERO PUSH2 0x1536 JUMPI RETURNDATASIZE SWAP1 PUSH2 0x14A5 DUP3 PUSH2 0xCB6 JUMP JUMPDEST SWAP2 PUSH2 0x14B3 PUSH1 0x40 MLOAD SWAP4 DUP5 PUSH2 0xC93 JUMP JUMPDEST DUP3 MSTORE RETURNDATASIZE DUP2 PUSH1 0x20 DUP5 ADD RETURNDATACOPY JUMPDEST DUP3 PUSH2 0x14F5 JUMPI JUMPDEST POP POP ISZERO PUSH2 0x14CC JUMPI JUMP JUMPDEST PUSH1 0x40 MLOAD PUSH3 0x461BCD PUSH1 0xE5 SHL DUP2 MSTORE PUSH1 0x20 PUSH1 0x4 DUP3 ADD MSTORE PUSH1 0x1 PUSH1 0x24 DUP3 ADD MSTORE PUSH1 0xB PUSH1 0xFB SHL PUSH1 0x44 DUP3 ADD MSTORE PUSH1 0x64 SWAP1 REVERT JUMPDEST SWAP1 DUP1 SWAP3 POP MLOAD SWAP2 DUP3 ISZERO SWAP3 DUP4 ISZERO PUSH2 0x150F JUMPI JUMPDEST POP POP POP CODESIZE DUP1 PUSH2 0x14C3 JUMP JUMPDEST DUP2 SWAP3 SWAP4 POP SWAP1 PUSH1 0x20 SWAP2 DUP2 ADD SUB SLT PUSH2 0x44B JUMPI PUSH1 0x20 ADD MLOAD SWAP1 DUP2 ISZERO ISZERO DUP3 SUB PUSH2 0x17C JUMPI POP CODESIZE DUP1 DUP1 PUSH2 0x1505 JUMP JUMPDEST PUSH1 0x60 SWAP1 PUSH2 0x14BD JUMP INVALID LOG2 PUSH5 0x6970667358 0x22 SLT KECCAK256 0xD2 0xBC 0xF 0xE6 SWAP6 0xD0 0x2F JUMPI SWAP16 0x4D 0xD4 0xCD 0xCD AND CALLDATALOAD 0xFB DUP12 JUMPDEST 0x2C SELFBALANCE SWAP8 MULMOD MSTORE8 0x24 CODESIZE RETURNDATASIZE 0xE2 NUMBER CHAINID 0xCF 0xD SGT PUSH5 0x736F6C6343 STOP ADDMOD XOR STOP CALLER "},"methodIdentifiers":{"getAmountOut(uint256,uint256,uint256)":"054d50d4","owner()":"8da5cb5b","startFlashLoan((address,uint256,address,address),(address,uint256,address,address)[],uint256,uint256,bytes)":"f3443c98","uniswapV2Call(address,uint256,uint256,bytes)":"10d1e85c","uniswapV3SwapCallback(int256,int256,bytes)":"fa461e33","withdrawFunds()":"24600fc3"}},"storageLayout":{"storage":[{"astId":70,"contract":"contracts/UniswapArb.sol:MyArb","label":"owner","offset":0,"slot":"0","type":"t_address"}],"types":{"t_address":{"encoding":"inplace","label":"address","numberOfBytes":"20"}}}}}}