{
  "_format": "hh-sol-artifact-1",
  "contractName": "MyArb",
  "sourceName": "contracts/myArb.sol",
  "abi": [
    {
      "inputs": [],
      "stateMutability": "nonpayable",
      "type": "constructor"
    },
    {
      "inputs": [
        {
          "internalType": "uint256",
          "name": "amountIn",
          "type": "uint256"
        },
        {
          "internalType": "uint256",
          "name": "reserveIn",
          "type": "uint256"
        },
        {
          "internalType": "uint256",
          "name": "reserveOut",
          "type": "uint256"
        }
      ],
      "name": "getAmountOut",
      "outputs": [
        {
          "internalType": "uint256",
          "name": "amountOut",
          "type": "uint256"
        }
      ],
      "stateMutability": "pure",
      "type": "function"
    },
    {
      "inputs": [],
      "name": "owner",
      "outputs": [
        {
          "internalType": "address",
          "name": "",
          "type": "address"
        }
      ],
      "stateMutability": "view",
      "type": "function"
    },
    {
      "inputs": [
        {
          "components": [
            {
              "internalType": "address",
              "name": "poolAddress",
              "type": "address"
            },
            {
              "internalType": "uint256",
              "name": "stepType",
              "type": "uint256"
            },
            {
              "internalType": "address",
              "name": "token0",
              "type": "address"
            },
            {
              "internalType": "address",
              "name": "token1",
              "type": "address"
            }
          ],
          "internalType": "struct MyArb.Step",
          "name": "initStep",
          "type": "tuple"
        },
        {
          "components": [
            {
              "internalType": "address",
              "name": "poolAddress",
              "type": "address"
            },
            {
              "internalType": "uint256",
              "name": "stepType",
              "type": "uint256"
            },
            {
              "internalType": "address",
              "name": "token0",
              "type": "address"
            },
            {
              "internalType": "address",
              "name": "token1",
              "type": "address"
            }
          ],
          "internalType": "struct MyArb.Step[]",
          "name": "steps",
          "type": "tuple[]"
        },
        {
          "internalType": "uint256",
          "name": "input",
          "type": "uint256"
        },
        {
          "internalType": "uint256",
          "name": "fees",
          "type": "uint256"
        },
        {
          "internalType": "bytes",
          "name": "endStepData",
          "type": "bytes"
        }
      ],
      "name": "startFlashLoan",
      "outputs": [],
      "stateMutability": "nonpayable",
      "type": "function"
    },
    {
      "inputs": [
        {
          "internalType": "address",
          "name": "sender",
          "type": "address"
        },
        {
          "internalType": "uint256",
          "name": "amount0",
          "type": "uint256"
        },
        {
          "internalType": "uint256",
          "name": "amount1",
          "type": "uint256"
        },
        {
          "internalType": "bytes",
          "name": "data",
          "type": "bytes"
        }
      ],
      "name": "uniswapV2Call",
      "outputs": [],
      "stateMutability": "nonpayable",
      "type": "function"
    },
    {
      "inputs": [
        {
          "internalType": "int256",
          "name": "amount0Delta",
          "type": "int256"
        },
        {
          "internalType": "int256",
          "name": "amount1Delta",
          "type": "int256"
        },
        {
          "internalType": "bytes",
          "name": "data",
          "type": "bytes"
        }
      ],
      "name": "uniswapV3SwapCallback",
      "outputs": [],
      "stateMutability": "nonpayable",
      "type": "function"
    },
    {
      "inputs": [],
      "name": "withdrawFunds",
      "outputs": [],
      "stateMutability": "nonpayable",
      "type": "function"
    },
    {
      "stateMutability": "payable",
      "type": "receive"
    }
  ],
  "bytecode": "0x6080806040523461002857600080546001600160a01b031916331790556116b8908161002e8239f35b600080fdfe6080604052600436101561001b575b361561001957600080fd5b005b6000803560e01c8063054d50d414610ce457806310d1e85c14610bc557806324600fc314610b4b5780638da5cb5b14610b24578063f3443c98146102395763fa461e3314610069575061000e565b34610236576060366003190112610236576004356001600160401b03602435604435828111610232576100a0903690600401610d25565b8192910160808382031261022e576100b783610d11565b936020956100c6878601610d11565b94604081013593841515850361022a57606082013593841161022a5788936100ee9201610e3e565b6001600160a01b039687949091906101ef575b5088821361018c575b50505050848113610119578480f35b839161013d918660405195868095819463a9059cbb60e01b83523360048401610f8a565b0393165af1801561018157610153575b80808480f35b8161017292903d1061017a575b61016a8183610e1b565b810190610f72565b50388061014d565b503d610160565b6040513d85823e3d90fd5b6101ae918960405195868095819463a9059cbb60e01b83523360048401610f8a565b0393165af180156101e4576101c7575b8481859261010a565b6101dd90853d871161017a5761016a8183610e1b565b50386101be565b6040513d88823e3d90fd5b61020481858061021b94518301019101610ea8565b8a84121561022157610215846110a9565b9061112e565b38610101565b610215876110a9565b8980fd5b8580fd5b8480fd5b80fd5b503461023657366003190161010081126105025760801361023657608435906001600160401b03808311610502573660238401121561050257826004013590808211610511573660248360071b860101116105115760e43590811161051157836102a884923690600401610d25565b914792602435956040518093826040830160208085015252602460608301910192885b818110610ac45750506102e7925003601f198101845283610e1b565b8490600187166109b957600460606001600160a01b03610305610fa5565b1660405192838092630240bc6b60e21b82525afa9081156109ae578790889261098b575b50969788976001600160701b039283169216908890600216156109775750906103549160a435610d75565b6001600160a01b03610364610fa5565b169061036e610fbb565b98610377610fd1565b604080516001600160a01b039c8d16602082015291909b169a81019a909a52608060608b01526103c48a6103ae60a0820189610fe7565b60a435608083015203601f1981018c528b610e1b565b823b15610973579161040999918980946040519c8d958694859363022c0d9f60e01b855260048501526024840152306044840152608060648401526084830190610fe7565b03925af180156101e45761095d575b8596509493945b600160c4351661054f575b506001600160a01b0392506104419150610fbb9050565b166040516370a0823160e01b8152306004820152602081602481855afa908115610181578391610515575b50813b15610511578291602483926040519485938492632e1a7d4d60e01b845260048401525af18015610506576104ee575b5080808060c43560801c8181156104e5575b4190f1156104d8576104ce9060c4356001600160801b031690610d52565b4711156102365780f35b50604051903d90823e3d90fd5b506108fc6104b0565b6104f790610dd7565b61050257818361049e565b5080fd5b6040513d84823e3d90fd5b8280fd5b9250506020823d602011610547575b8161053160209383610e1b565b81010312610542578391518561046c565b600080fd5b3d9150610524565b83608091810103126106c2576040519161056883610e00565b61057184610d11565b83526020840135602084015261058960408501610d11565b80604085015261059b60608601610d11565b80606086015283156108bd575b5050602083015160011661079457508151604051630240bc6b60e21b81526001600160a01b0392916060908290600490829087165afa9081156101e45786908792610761575b5086956001600160701b03928316929190911690869060200135600216156106f057509161062260209261064b9483610d75565b9484806040830151169151168860405180968195829463a9059cbb60e01b845260048401610f8a565b03925af180156106e5576106c6575b505b610664610fa5565b1691823b156106c2576106929284928360405180968195829463022c0d9f60e01b8452309160048501611104565b03925af18015610506576106ae575b50505b818380808061042a565b6106b790610dd7565b6105025781836106a1565b8380fd5b6106de9060203d60201161017a5761016a8183610e1b565b508661065a565b6040513d87823e3d90fd5b9495509161070461072d9360209383610d75565b9584806060830151169151168860405180968195829463a9059cbb60e01b845260048401610f8a565b03925af180156106e557610742575b5061065c565b61075a9060203d60201161017a5761016a8183610e1b565b508661073c565b9050610785915060603d60601161078d575b61077d8183610e1b565b8101906110ce565b5090896105ee565b503d610773565b9293506108219260409250906020850135600216156108a3576401000276a45b876001600160a01b036107c5610fa5565b16926107fa6107d2610fbb565b6107ec6107dd610fd1565b97895198899360208501611027565b03601f198101875286610e1b565b8551630251596160e31b81529687958694859360208c013560021615153060048701611070565b03925af1918215610898578491859361085c575b506020013560021615610852575061084c906110a9565b506106a4565b61084c91506110a9565b6002919350602092506108869060403d604011610891575b61087e8183610e1b565b81019061105a565b929092939150610835565b503d610874565b6040513d86823e3d90fd5b73fffd8963efd1fc6a506488495d951d5263988d256107b4565b91925060249160209190868301356002161561094d57506001600160a01b03165b6040516370a0823160e01b815230600482015292839182906001600160a01b03165afa9081156106e5578591610918575b509087806105a8565b9450506020843d602011610945575b8161093460209383610e1b565b81010312610542578593518761090f565b3d9150610927565b6001600160a01b031690506108de565b9394909561096a90610dd7565b93928590610418565b8880fd5b98506109859160a435610d75565b96610354565b90506109a6915060603d60601161078d5761077d8183610e1b565b509089610329565b6040513d89823e3d90fd5b9495939486949091506002811615610aa557610a4360406401000276a45b6001600160a01b036109e7610fa5565b166109f0610fbb565b91610a1d6109fc610fd1565b93610a0f8a875196879360208501611027565b03601f198101855284610e1b565b898451809681958294630251596160e31b845260a43560028c1615153060048701611070565b03925af19182156101e45786918793610a7f575b5060021615610a705750610a6a906110a9565b9061041f565b610a7a91506110a9565b610a6a565b610a9d9193506002925060403d6040116108915761087e8183610e1b565b929091610a57565b610a43604073fffd8963efd1fc6a506488495d951d5263988d256109d7565b9092509060019060809081906001600160a01b0380610ae289610d11565b1682526020880135602083015280610afc60408a01610d11565b166040830152610b0e60608901610d11565b16606082015201940191019185929391936102cb565b5034610236578060031936011261023657546040516001600160a01b039091168152602090f35b503461023657806003193601126102365780546001600160a01b031633819003610b9c5781808080934790828215610b93575bf115610b875780f35b604051903d90823e3d90fd5b506108fc610b7e565b60405162461bcd60e51b81526020600482015260016024820152606f60f81b6044820152606490fd5b5034610236576080366003190112610236576001600160a01b0360043581811603610502576001600160401b039060243560443560643584811161022e57610c11903690600401610d25565b8192910194608083870312610ce057610c2983610d11565b93602096610c38888601610d11565b92604086013590811161022a576060610c59610c7b93610c6b938901610e3e565b96013595898082518301019101610ea8565b821580159390610cd8579061112e565b610c89575b50610119578480f35b85604051809263a9059cbb60e01b8252818a8982610cab8a3360048401610f8a565b0393165af180156109ae5715610c8057610cd190863d881161017a5761016a8183610e1b565b5038610c80565b50849061112e565b8680fd5b5034610236576060366003190112610236576020610d09604435602435600435610d75565b604051908152f35b35906001600160a01b038216820361054257565b9181601f84011215610542578235916001600160401b038311610542576020838186019501011161054257565b91908201809211610d5f57565b634e487b7160e01b600052601160045260246000fd5b6103e580820291808304821481151715610d5f57840202928184041481151715610d5f576103e891828102928184041490151715610d5f57610db691610d52565b908115610dc1570490565b634e487b7160e01b600052601260045260246000fd5b6001600160401b038111610dea57604052565b634e487b7160e01b600052604160045260246000fd5b608081019081106001600160401b03821117610dea57604052565b601f909101601f19168101906001600160401b03821190821017610dea57604052565b81601f82011215610542578035906001600160401b038211610dea5760405192610e72601f8401601f191660200185610e1b565b8284526020838301011161054257816000926020809301838601378301015290565b51906001600160a01b038216820361054257565b602080828403126105425781516001600160401b039283821161054257019083601f83011215610542578151928311610dea5760409260405194610ef1838360051b0187610e1b565b818652828087019260071b85010193818511610542578301915b848310610f1b5750505050505090565b60808383031261054257836080918751610f3481610e00565b610f3d86610e94565b81528286015183820152610f52898701610e94565b898201526060610f63818801610e94565b90820152815201920191610f0b565b90816020910312610542575180151581036105425790565b6001600160a01b039091168152602081019190915260400190565b6004356001600160a01b03811681036105425790565b6044356001600160a01b03811681036105425790565b6064356001600160a01b03811681036105425790565b919082519283825260005b848110611013575050826000602080949584010152601f8019910116010190565b602081830181015184830182015201610ff2565b6001600160a01b039182168152911660208201526001604082015260806060820181905261105792910190610fe7565b90565b9190826040910312610542576020825192015190565b6001600160a01b039182168152911515602083015260408201929092529116606082015260a06080820181905261105792910190610fe7565b600160ff1b8114610d5f5760000390565b51906001600160701b038216820361054257565b90816060910312610542576110e2816110ba565b9160406110f1602084016110ba565b92015163ffffffff811681036105425790565b9160a0939183526020830152600180841b0316604082015260806060820152600060808201520190565b919060005b835181101561167c576020808260051b86010151928184015190600160028316151592161560001461144357845160408051630240bc6b60e21b81529094600494926001600160a01b0392606091829082908990829088165afa90811561130e576000908192611422575b5060018060701b038091169116916000968b88918098600014611319575050505084156112a1575b6111d56111fd92849287610d75565b9484898c015116858c511660008a8c519687958694859363a9059cbb60e01b85528401610f8a565b03925af1801561129657611278575b50505b600096511691823b15610ce0579184939187809461124297519788958694859363022c0d9f60e01b855230928501611104565b03925af190811561126f57509060019291611260575b505b01611133565b61126990610dd7565b38611258565b513d85823e3d90fd5b8161128e92903d1061017a5761016a8183610e1b565b50388061120c565b87513d6000823e3d90fd5b935060248284898c0151168951928380926370a0823160e01b8252308c8301525afa90811561130e579083916000916112de575b509490506111c6565b9182813d8311611307575b6112f38183610e1b565b8101031261023657505182906111fd6112d5565b503d6112e9565b88513d6000823e3d90fd5b98838795969289949a959b15611395575b5050506113619461133b9184610d75565b978c015116858c511660008a8c519687958694859363a9059cbb60e01b85528401610f8a565b03925af1801561129657611377575b505061120f565b8161138d92903d1061017a5761016a8183610e1b565b503880611370565b6024949295509592950151168b51928380926370a0823160e01b82528d30908301525afa9182156114175791869183879594926113dc575b5090929050611361898e61132a565b9250848194969592503d8311611410575b6113f78183610e1b565b810103126102365750519091839185908461133b6113cd565b503d6113ed565b8a51903d90823e3d90fd5b905061143b9150823d841161078d5761077d8183610e1b565b50903861119e565b93959493908115611574575b8015611559576401000276a4925b60018060a01b03928389511691600060409a868c8201511696606080920151168c519760a0948901528c880152860152608080860152600081860152845260c0948585019285841060018060401b03851117610dea578360008c94886114db818597868a52630251596160e31b875260bf19948c3060c48501611070565b0301925af193841561130e576001959697986000948596611521575b50505050600014611512575061150c906110a9565b9161125a565b61151c91506110a9565b61150c565b908092939496506115479550913d10611551575b61153f8285610e1b565b01019061105a565b91388080806114f7565b3d9150611535565b73fffd8963efd1fc6a506488495d951d5263988d259261145d565b9050600081156115fb575060408681015181516370a0823160e01b8152306004820152908490829060249082906001600160a01b03165afa9182156115f157506000916115c4575b505b9061144f565b908382813d83116115ea575b6115da8183610e1b565b81010312610236575051386115bc565b503d6115d0565b513d6000823e3d90fd5b6060870151604080516370a0823160e01b8152306004820152909290918590839060249082906001600160a01b03165afa92831561167257508092611642575b50506115be565b9091508382813d831161166b575b61165a8183610e1b565b81010312610236575051388061163b565b503d611650565b51903d90823e3d90fd5b5050905056fea2646970667358221220863f7f50169d71341ccfbf12f3ddbf13fbff0965fa9b2394c0990745f7cb131764736f6c63430008180033",
  "linkReferences": {},
  "deployedLinkReferences": {}
}